:020000040800F2
:10000000881500200D0F0008BD030008BF0300087D
:10001000CD030008DB030008E9030008000000002E
:10002000000000000000000000000000F7030008CE
:10003000F903000800000000FB030008FD030008AE
:10004000270F0008270F0008270F0008270F0008B8
:10005000270F0008270F0008270F0008270F0008A8
:10006000270F0008270F00082F380008270F000867
:10007000270F0008270F0008270F0008270F000888
:10008000270F0008270F0008270F0008270F000878
:10009000270F0008270F0008270F00084B3600081D
:1000A000270F0008270F0008270F0008270F000858
:1000B000270F0008CD390008693C0008270F000809
:1000C000270F0008270F0008270F0008270F000838
:1000D000270F00086D0E0008270F0008270F0008E3
:1000E000270F0008270F0008270F0008270F000818
:1000F000270F0008270F0008270F0008270F000808
:10010000270F0008270F0008270F0008270F0008F7
:10011000270F0008270F0008270F0008270F0008E7
:10012000270F0008270F0008270F0008270F0008D7
:1001300000F002F800F03AF80AA090E8000C8244BF
:100140008344AAF10107DA4501D100F02FF8AFF29C
:10015000090EBAE80F0013F0010F18BFFB1A43F0A5
:100160000103184738F8000058F80000103A24BF7F
:1001700078C878C1FAD8520724BF30C830C144BF0C
:1001800004680C607047000000230024002500264E
:10019000103A28BF78C1FBD8520728BF30C148BFEA
:1001A0000B6070471FB51FBD10B510BD0DF077FE79
:1001B0001146FFF7F7FF00F0A1F80DF095FE03B42C
:1001C000FFF7F2FF03BC00F0E5FD000010B54FF4AF
:1001D000A06001F03FFC00F0C3FC6848806940F07B
:1001E0000100664988616648406840F000706449D3
:1001F000486005F0D7FD05F083F903F0F8F903F046
:1002000080FE06F069FA4FF4165000F0E3FD00F0AE
:100210009FFA4FF47A7000F0E0FC00F099FA4FF486
:1002200034714FF47A7003F09FFB10BD10B500F0ED
:100230004DFC03F001FF04F098F803F04DFD3BE0A6
:100240005048407B10B300204F4908604F49086078
:100250004F4805F0FFFE06F05BF84E48C07849496C
:100260000978884212D14B4800794649497888423A
:100270000CD14948006840F0080047490860002058
:100280004649086001204649087016E04548407814
:1002900001280FD14248007860B93F48006840F01B
:1002A00008003D49086000203C49086001203C49A5
:1002B000087002E003F007FBC2E700BF002006F071
:1002C00048FA394805F08EF905F0A3F84FF47A7032
:1002D00000F083FC4FF47A7000F07FFC4FF47A70EA
:1002E00000F07BFC05F0A3F805F002FA05F091F8A8
:1002F00000F0ECFB01202D49087010BD0024FFF731
:1003000065FFFFF793FF38E02848007828B12248BE
:10031000006840F008002049086004F096FF0DF0E6
:100320008AFB641C2248844227D100241548407B64
:1003300018B3174805F08EFE05F0EAFF1548C0789F
:1003400010498978884218D1124801790D48C0783F
:10035000814212D1012080F3138800BF00BF1548ED
:10036000006800F4E06014490843001D114908606A
:10037000BFF34F8F00BF00BFFEE7C5E7001002408C
:10038000000001408C0E002068000020700000205A
:100390007D00002085000020100801409C012142C2
:1003A000000000205000002031F500086C00002003
:1003B000FFFF0F000CED00E00000FA05704704E0BD
:1003C000012000F01CF800F01FF8F9E704E001201C
:1003D00000F015F800F018F8F9E704E0012000F04B
:1003E0000EF800F011F8F9E704E0012000F007F83A
:1003F00000F00AF8F9E7704770477047704700F05F
:10040000010181F3138870470648006800F4E0603A
:1004100005490843001D03490860BFF34F8F00BF23
:10042000FEE700000CED00E00000FA050CB500202E
:10043000019000906C48006840F480306A49086080
:1004400000BF6948006800F4003000900198401C2B
:100450000190009818B90198B0F5A06FF1D16248E9
:10046000006800F4003010B10120009001E000208D
:1004700000900098012843D15C48006840F01000CB
:100480005A4908600846006820F0030008600846E2
:10049000006840F0020008605348406852494860D4
:1004A0000846406848600846406840F480604860FC
:1004B0000846406820F47C1048600846406840F4D4
:1004C000E81048600846006840F08070086000BF8F
:1004D0004548006800F000700028F9D042484068A4
:1004E00020F00300404948600846406840F00200A0
:1004F000486000BF3C48406800F00C000828F9D173
:100500000CBD10B5FFF792FF10BD10B5364800685E
:1005100040F001003449086008464068344908400A
:100520003149486008460068324908402E49086051
:100530000846006820F4802008600846406820F4DF
:10054000FE0048604FF41F008860FFF7DAFF4FF0AD
:1005500000602949086010BD10B50021002000226C
:10056000214B5B6803F00C0121B1042906D0082956
:1005700028D107E0214B224C236027E01F4B204C61
:10058000236023E0184B5B6803F47010164B5B6824
:1005900003F48032022303EB904022B9194B43430A
:1005A000174C23600DE0104B5B6803F4003323B15C
:1005B000144B4343124C236003E0104B4343104C55
:1005C000236003E00D4B0E4C236000BF00BF064BC1
:1005D0005B68C3F303130C4CE15C094B1B68CB4015
:1005E000074C236010BD00000010024000200240B4
:1005F0000000FFF8FFFFF6FE08ED00E000127A00B1
:100600000400002000093D00080000200146088881
:1006100070472DE9F04105460E461746002407E0D5
:1006200036F81410284601F0EAFBAD1C601C84B2B9
:10063000BC42F5DBBDE8F08130B503460C461546FB
:10064000002207E01846FFF7E1FF24F812009B1C88
:10065000501C82B2AA42F5DB30BD2DE9F05F804626
:100660008A461746B8F1006F02D33748804501D358
:10067000BDE8F09F01F07BFAA8F1006B4FEADB25A3
:10068000CBF34909C9F58064A74200DC3C464DE044
:100690004FF0006101EBC5204A142C49FFF7CCFF55
:1006A00000260BE009EB0600284931F810004FF650
:1006B000FF71884200D003E0701C86B2A642F1DBD5
:1006C00000BFA6421BDA4FF0006101EBC52001F02C
:1006D00093FA002608E03AF8160006EB09011B4AD7
:1006E00022F81100701C86B2A642F4DB4FF00061C4
:1006F00001EBC5204A141549FFF78BFF04E02246A1
:1007000051464046FFF785FFA74200D10FE06D1C20
:100710004FF000090AEB440AA044381B87B2B7F532
:10072000806F02DD4FF4806400E03C46B0E700BF1C
:1007300001F029FA00BF9BE713B50446012201A985
:100740002046FFF78AFF1CBD00000408900000202F
:1007500000B591B00121084600F007FF01214FF4D8
:10076000047000F00FFF4FF4004000F06FFE012016
:10077000ADF82C0000208DF82F000BA9EA4800F0FE
:1007800045FC0420ADF82C0000208DF82F000BA9AB
:10079000E54800F03BFC0220ADF82C0000208DF86D
:1007A0002F000BA9E04800F031FC0820ADF82C0028
:1007B00000208DF82F000BA9DB4800F027FCDB4858
:1007C00002F0CCFCDA4802F09FFBD8484C30009095
:1007D000D848019000200290282003900020049027
:1007E000802005904000069080000790202008900F
:1007F0000002099000200A906946CD4802F026FCCC
:1008000000200C9001208DF834008DF835004FF455
:1008100060200E9000200F9004208DF840000723E8
:1008200001220A21C14802F058FD072302220B21B0
:10083000BE4802F052FD072303220C21BB4802F000
:100840004CFD072304220D21B84802F046FD0CA9F7
:10085000B64802F0AAFC0121B44802F0D2FC012102
:10086000B24802F0D9FCB14802F0EDFC00BFAF483D
:1008700002F0EEFC0028FAD1AC4802F0F3FC00BF15
:10088000AA4802F0F4FC0028FAD10121A84802F09D
:1008900008FC0121A54802F0F4FC11B000BD2DE9CF
:1008A000F05F4FF00009CB46002405E0A14830F886
:1008B00034008144601CC4B29F4800788442F5DB58
:1008C0000A2099FBF0F01FFA80FBABF538700DF0B1
:1008D0002CFC0746994A9A4B0DF07AFC05460DF020
:1008E00011FB8246974950460DF02AFF82469649F1
:1008F000B1F908000EF006F8054651460DF0B2FEBB
:10090000824650460DF082FE054600228F4B0DF0C8
:100910005DFD01D2DFF838A25046BDE8F09F2DE919
:10092000FC470026002406E0824800EBC400408813
:100930000644601CC4B2804800788442F4DB0A207C
:10094000B6FBF0F01FFA80F97F48808A10B9642462
:1009500001250CE07C48808A012802D10A240A255E
:1009600005E07948808A022801D101246425A9F292
:10097000EA200DF0DAFB0746764A774B0DF028FCAB
:10098000CDE900010DF0BEFA824620460DF0D2FFFF
:100990000746394650460DF0D3FE82466A48B0F904
:1009A0000A00642190FBF1F000FB05F840460DF0D1
:1009B000A9FF074651460DF055FE824600215046DC
:1009C0000DF0CCFF01D24FF0000A5046BDE8FC8785
:1009D0002DE9F05F4FF00009CB46002406E05548B2
:1009E00000EBC40080888144601CC4B25248007887
:1009F0008442F4DB0A2099FBF0F01FFA80FBABF590
:100A000038700DF092FB07464C4A4D4B0DF0E0FB61
:100A100005460DF077FA82464A4950460DF090FEA1
:100A200082464949B1F908000DF06CFF0546514670
:100A30000DF018FE824650460DF0E8FD05460022F6
:100A4000424B0DF0C3FC01D2DFF804A15046BDE8D3
:100A5000F09F2DE9F05F4FF00009CA46002406E040
:100A6000344800EBC400C0888144601CC4B23248E2
:100A700000788442F4DB0A2099FBF0F01FFA80FA38
:100A8000AAF538700DF051FB07462C4A2C4B0DF09F
:100A90009FFB05460DF036FA83462A4958460DF06D
:100AA0004FFE83462849B1F90C000DF02BFF834619
:100AB00058460DF0ABFD05460022244B0DF086FC98
:100AC00001D2DFF88CB05846BDE8F09F1948008885
:100AD000642803DA00202149087402E001201F493C
:100AE000087414484088642803DA00201B494874BD
:100AF00002E00120194948740E488088642803DA0E
:100B000000201649887402E00120144988740948BD
:100B1000C088642803DA00201049C87402E001206C
:100B20000E49C874704700000010014000240140C5
:100B3000080002409008002018000020BF3749C577
:100B4000CFB3E33F0000C8429A0E0020004032407D
:100B5000000092419F85E959989EE53F1C000020C6
:100B600010B56FF0040000F0C4FF2E4800682E4955
:100B7000B0FBF1F02D4908700846007800EB400109
:100B8000C1EBC0104FF6FF7101EAC0002849088090
:100B900010BD0146254A12784A434FF0E0235A61BE
:100BA00000229A611A46126942F001021A6100BFDE
:100BB0004FF0E022106900F001021AB100F4803217
:100BC000002AF5D04FF0E022126922F001024FF026
:100BD000E0231A6100229A6170470146144A128884
:100BE0004A434FF0E0235A6100229A611A46126983
:100BF00042F001021A6100BF4FF0E022106900F0DC
:100C000001021AB100F48032002AF5D04FF0E02240
:100C1000126922F001024FF0E0231A6100229A616A
:100C2000704700000400002000127A00300000200D
:100C30003200002070B504460B46CE1701EB9676C5
:100C4000C6F38700CE1701EB9676B610A1EB8606A9
:100C5000B606350E484B9B6943F00103464EB3611F
:100C60004FEAB63353F820300F26AE40B343434E1D
:100C700046F82030334653F8203004FA05F61E4378
:100C80003E4B43F820603E4B1B6801268E403343A9
:100C90003B4E336002F0010343B1394B0C331B6808
:100CA00001268E403343364E0C36336002F0020389
:100CB00043B1334B08331E6801238B401E43304B36
:100CC00008331E6070BD2F4A0A4002432E4B1A6043
:100CD00070470146072323EA010212022A4B1B1D1B
:100CE00018684FF6FF031840284B18431043264B53
:100CF0001B1D186070472DE9F041074688461446D1
:100D00001D462846FFF7E5FFC5F1040007FA00F687
:100D10000F20284100EA0800064306F00F06E217FC
:100D200004EBD2625211920002F1E022D2F80021CB
:100D30002146E31704EBD3635B11A4EB431C0123AF
:100D400003FA0CF31A432046E31704EBD3635B1159
:100D50009B0003F1E023C3F800210D48005D40EA49
:100D600006100B490855BDE8F08130BF704772B6D8
:100D7000704762B670470000001002400800014052
:100D80000004014080FFFF1F08ED00E00000FA05AD
:100D900000E400E0014600BF704700BF574A1288D8
:100DA00002F04002002AF9D0C2B2544B1B1D1A8037
:100DB00070470BE000BF5149098801F0400100294C
:100DC000F9D001784D4A121D1180401C017800298C
:100DD000F0D1704710B586B00446012144F20400FA
:100DE00000F0D0FB4FF40070ADF8140003208DF834
:100DF000160018208DF8170005A9414800F006F9E3
:100E00004FF48060ADF8140004208DF8170005A998
:100E10003B4800F0FBF825208DF8000003208DF8FA
:100E200001008DF8020001208DF80300684600F0F3
:100E300016FE01940020ADF80800ADF80A00ADF8E8
:100E40000C00ADF810000C20ADF80E0001A92B48E5
:100E500000F03FFC012240F22551284800F0D1FC6F
:100E60000121264800F0C1FC06B010BD10B540F2CB
:100E70002551224800F0AAFD00283ED01F4800F06E
:100E800025FDC4B200BF1D48008800F040000028C6
:100E9000F9D01A48001D04801A48008800F4004068
:100EA00058BB1848008800F4804060B10A2C03D079
:100EB00000201449088020E01248008840F40040D7
:100EC0001049088019E00D2C06D10E48008840F426
:100ED00080400C49088010E00A480088C0F30D00EB
:100EE00009490C5407480088401C064908800846F8
:100EF0000088C72801DD0020088010BD00380140AF
:100F00000008014038000020E00800200948804720
:100F100009480047FEE7FEE7FEE7FEE7FEE7FEE7DB
:100F2000FEE7FEE7FEE7FEE704480549054A064BF3
:100F3000704700000B05000831010008880F0020F1
:100F400088150020881100208811002010B5044663
:100F5000CC48844208D10121042000F02DFB00215F
:100F6000042000F029FB46E0C748844208D1012153
:100F7000082000F021FB0021082000F01DFB3AE0D2
:100F8000C248844208D10121102000F015FB002145
:100F9000102000F011FB2EE0BD48844208D1012151
:100FA000202000F009FB0021202000F005FB22E0BA
:100FB000B848844208D10121402000F0FDFA002108
:100FC000402000F0F9FA16E0B348844208D101212C
:100FD000802000F0F1FA0021802000F0EDFA0AE014
:100FE000AE48844207D10121801500F0E5FA0021C6
:100FF000A01500F0E1FA10BD10B50121084600F07F
:10100000DBFA0021012000F0D7FA10BD2DE9F041F4
:10101000024600250026002000230024002791F826
:1010200003C00CF00F0591F803C00CF0100CBCF1DC
:10103000000F03D091F802C04CEA050591F800C0FA
:10104000BCF1000F31D0146800202BE04FF0010CF0
:101050000CFA00F3B1F800C00CEA03069E4220D15E
:1010600083004FF00F0C0CFA03F7BC4305FA03FCA6
:101070004CEA040491F803C0BCF1280F06D14FF0EC
:10108000010C0CFA00FCC2F814C00AE091F803C08D
:10109000BCF1480F05D14FF0010C0CFA00FCC2F86E
:1010A00010C0401C0828D1D31460B1F800C0BCF1B6
:1010B000FF0F34DD546800202EE000F1080C4FF0E3
:1010C000010808FA0CF3B1F800C00CEA03069E42CE
:1010D00021D183004FF00F0C0CFA03F7BC4305FA43
:1010E00003FC4CEA040491F803C0BCF1280F05D1BD
:1010F00000F1080C08FA0CF8C2F8148091F803C04B
:10110000BCF1480F07D100F1080C4FF0010808FAB4
:101110000CF8C2F81080401C0828CED35460BDE8FB
:10112000F0814FF6FF710180022181700421C170AE
:1011300070470246002093680B400BB1012000E08D
:10114000002070470146886880B270470246002040
:10115000D3680B400BB1012000E00020704701462E
:10116000C86880B2704701617047416170470AB139
:10117000016100E041617047C16070474FF4803207
:101180000A43826181618261826982697047024695
:101190000020434B18684FF68073184040EA021055
:1011A00008433F4B186070473E49C8617047F0B52F
:1011B0000A46002300240021002500F00046B6F175
:1011C000004F02D1364EF16901E0354E7168C0F32F
:1011D000034583B200F44016B6F5401F08D121F054
:1011E00070612F4E766826F070662D4F7E6012E09B
:1011F00000F48016B6F5801F06D1032606FA05F422
:10120000A14341F0706106E0460D360103FA06F68F
:10121000B14341F0706122B1460D360103FA06F682
:10122000314300F00046B6F1004F02D11C4EF1618F
:1012300001E01B4E7160F0BD30B500228B071C0F22
:101240000F2303FA04F2164B08338C1053F82430A2
:101250009343134C08348D1044F8253023468C10EA
:1012600053F824308C07240F00FA04F423430C4C69
:1012700008348D1044F8253030BD0A49DC3108604F
:101280007047000000080140000C014000100140C0
:101290000014014000180140001C014000200140E2
:1012A0000000014000002042DF48006840F00100DB
:1012B000DD49086008464068DC490840DA49486072
:1012C00008460068DA490840D749086008460068BF
:1012D00020F4802008600846406820F4FE00486042
:1012E0004FF41F0088607047CF49096821F48031AE
:1012F000CD4A11601146096821F480211160B0F5D2
:10130000803F03D0B0F5802F0ED106E0C6490968B2
:1013100041F48031C44A116007E0C349096841F4CF
:10132000A021C14A116000E000BF00BF704710B5A6
:1013300001460022002300204A11012A02D1BA4CA2
:10134000236806E0022A02D1B74C236A01E0B64CBA
:10135000636A01F01F02012494401C400CB101207B
:1013600000E0002010BD38B50020009000240025CA
:1013700000BF3120FFF7DBFF05460098401C0090BE
:101380000098B0F5A06F01D0002DF2D03120FFF70A
:10139000CEFF08B1012400E00024204638BD0146FC
:1013A0000020A14A106820F0F80040EAC100106057
:1013B0007047A04908607047024600209A4B586861
:1013C00020F47C1042EA01031843974B58607047A1
:1013D00098490866704701460020934A506820F0FB
:1013E00003000843506070478F48406800F00C00CD
:1013F0007047014600208C4A506820F0F0000843F6
:101400005060704701460020874A506820F4E06031
:1014100008435060704701460020834A506820F41A
:10142000605040EAC1005060704729B17E4A527A4C
:1014300002437D4B5A7204E07B4A527A82437A4BD4
:101440005A7270477B49D8310860704701460020C6
:10145000754A506820F440400843506070470021AE
:10146000714A20321170704A82F82010012802D08F
:1014700004280AD104E001216B4A2032117005E0F2
:101480000521694A2032117000E000BF00BF70479B
:101490006949086070476449096A0143624A1162F8
:1014A0007047654944390860704730B50021002213
:1014B000002400235C4D6D6805F00C0121B1042966
:1014C00005D0082923D105E05C4D056022E05B4D85
:1014D00005601FE0544D6D6805F47012524D6D6843
:1014E00005F48034022505EB92421CB9544D554356
:1014F00005600BE04C4D6D6805F400351DB1504D95
:101500005543056002E04D4D5543056002E04B4DEB
:10151000056000BF00BF444D6D6805F0F00109098A
:10152000484D6B5C0568DD4045603F4D6D6805F4D6
:10153000E061090A434D6B5C4568DD4085603A4DCA
:101540006D6805F46051C90A3E4D6B5C4568DD402D
:10155000C560354D6D6805F44041890B3A4D6B5CB3
:10156000C568B5FBF3F5056130BD29B12E4A526956
:1015700002432D4B5A6104E02B4A526982432A4BA5
:101580005A61704729B1284A92690243264B9A61F1
:1015900004E0254A92698243234B9A61704729B13E
:1015A000214AD2690243204BDA6104E01E4AD26923
:1015B00082431D4BDA61704729B11B4AD26802434E
:1015C000194BDA6004E0184AD2688243164BDA609D
:1015D000704729B1144A12690243134B1A6104E09F
:1015E000114A12698243104B1A61704712494039FF
:1015F000086070470F49C86470470B49C87170474D
:101600000948406A40F080700749486270470146C7
:101610000020054A92680A400AB1012000E000203B
:101620007047014988727047001002400000FFF8BF
:10163000FFFFF6FE000042428004424200127A00A0
:1016400000093D003A0000204A00002010B5044681
:10165000FB48844209D101218803FFF7ADFF002137
:101660004FF48040FFF7A8FF32E0F648844209D1EA
:1016700001214804FFF7ADFF00214FF40030FFF7D0
:10168000A8FF25E0F048844209D101218804FFF732
:10169000A0FF00214FF48020FFF79BFF18E0EB48EC
:1016A000844209D10121C804FFF793FF00214FF4C0
:1016B0000020FFF78EFF0BE0E548844208D10121AE
:1016C0000805FFF786FF00214FF48010FFF781FF28
:1016D00010BD2DE9F04786B005460E460024A2460F
:1016E00000BFA1460027B08900B100BF2F462C8A59
:1016F0004CF6FF700440F08804432C82AC894EF60F
:10170000F3100440B08831890843718908430443C9
:10171000AC81AC8A4FF6FF400440B0890443AC82F0
:1017200001A8FFF7C2FEC648874202D1DDF810A02B
:1017300001E0DDF80CA0A88900F4004040B10AEBFC
:10174000CA0000EB0A1031684900B0FBF1F807E06D
:101750000AEBCA0000EB0A1031688900B0FBF1F80F
:101760006420B8FBF0F004012009642101FB10891A
:10177000A88900F4004040B1322000EBC900B0FB62
:10178000F1F000F00700044308E0322000EB0910FC
:101790006421B0FBF1F000F00F0004432C8106B08F
:1017A000BDE8F0874FF41651016000218180C180AF
:1017B00001810C21418100218181704710B50246D1
:1017C0000020108A4FF2FF0318400B884C882343F7
:1017D0008C882343CC8823431843108210BD0021FA
:1017E000018041808180C180704721B1828942F4AB
:1017F0000052828104E082894DF6FF731A40828193
:101800007047F0B50346002400260025002040F66E
:101810006A17B94200D100BF1846C1F3421401F063
:101820001F06012707FA06F5012C01D10C3004E050
:10183000022C01D1103000E014301AB107682F4398
:10184000076002E00768AF430760F0BD1AB1838A02
:101850000B43838202E0838A8B4383827047028A30
:101860004FF6F0731A400282028A0A4302827047DE
:1018700082894FF2FF731A40828182890A438281F2
:10188000704721B1828942F00202828104E082899C
:101890004FF6FD731A4082817047028A4FF6DF735C
:1018A0001A400282028A0A430282704721B1028AE8
:1018B00042F48042028204E0028A4BF6FF731A402F
:1018C00002827047C1F3080282807047014688880F
:1018D000C0F308007047818941F0010181817047A0
:1018E000028BD2B20283028B42EA0122028370474A
:1018F000028B02F47F420283028B0A430283704709
:1019000021B1828A42F02002828204E0828A4FF66C
:10191000DF731A408282704721B1828A42F010023E
:10192000828204E0828A4FF6EF731A408282704707
:1019300021B1828A42F00802828204E0828A4FF654
:10194000F7731A408282704721B1828942F40042C3
:10195000828103E08289C2F30E028281704721B145
:10196000828A42F40062828204E0828A4FF2FF732C
:101970001A4082827047828A4FF6FB731A40828235
:10198000828A0A438282704721B1828A42F002022F
:10199000828204E0828A4FF6FD731A408282704789
:1019A00002460020B1F5007F00D100BF13880B4034
:1019B0000BB1012000E00020704701F40072B2F585
:1019C000007F00D100BFCA430280704770B5024655
:1019D000002400230025002040F66A16B14200D101
:1019E00000BFC1F3421501F01F03012606FA03F3FD
:1019F000012D02D19689334006E0022D02D1168ACC
:101A0000334001E0968A33400C12012606FA04F4B2
:101A10001688344013B10CB1012000E0002070BDE5
:101A200010B50022002340F66A14A14200D100BF85
:101A30000A1201249440A3B2DC43048010BD0000CC
:101A4000003801400044004000480040004C004085
:101A50000050004031490143314A1160704770B570
:101A6000002100230F22C47804B32D4C246804F411
:101A7000E064C4F5E064210AC1F10403CA4044787B
:101A800004FA03F18478144021430901254C0678B7
:101A9000A155047804F01F050124AC4005786D11B0
:101AA000AD0005F1E025C5F8004109E0047804F037
:101AB0001F050124AC401C4D0678761145F82640E0
:101AC00070BD1A4A0A400243154B1B1F1A6070472B
:101AD00039B1134A121D12680243114B1B1D1A60C3
:101AE00006E00F4A121D126882430D4B1B1D1A603F
:101AF0007047042808D14FF0E021096941F0040142
:101B00004FF0E022116107E04FF0E021096921F078
:101B100004014FF0E0221161704700000000FA0557
:101B20000CED00E000E400E080E100E080FFFF1F3A
:101B300001460020FE4A106800F03800084310609B
:101B40007047FB49096821F00801F94A1160114604
:101B50000968014311607047F549096821F01001D7
:101B6000F34A116011460968014311607047F1485A
:101B7000EF494860F04848607047EE48EC494860DB
:101B8000ED4848607047EA48006940F08000E84945
:101B900008617047E648006940F08000E449086148
:101BA00070470420E249C96801F0010109B1012030
:101BB0000EE0DF49C96801F0040109B1022007E025
:101BC000DB49C96801F0100109B1032000E00420DD
:101BD000704700B502460423FFF7E3FF034603E026
:101BE000FFF7DFFF0346521E012B01D1002AF7D178
:101BF00002B90523184600BD30B5044604254FF44C
:101C00003020FFF7E6FF0546042D17D1C8480069CC
:101C100040F00200C649086108464461006940F08E
:101C2000400008614FF43020FFF7D3FF0546C0485D
:101C3000006941F6FD710840BD490861284630BD84
:101C400010B504244FF43020FFF7C3FF0446042CE2
:101C500016D1B748006940F00400B549086108464C
:101C6000006940F0400008614FF43020FFF7B1FFF9
:101C70000446AF48006941F6FB710840AC49086171
:101C8000204610BD00B502460423FFF78AFF034635
:101C900003E0FFF786FF0346521E012B01D1002A05
:101CA000F7D102B90523184600BD10B504244FF43E
:101CB0003020FFF7E7FF0446042C16D19C4800694A
:101CC00040F004009A4908610846006940F040006D
:101CD00008614FF43020FFF7D5FF044694480069AF
:101CE00041F6FB71084092490861204610BD002072
:101CF0008F49C96901F0020109B1012000E000200B
:101D0000704730B5A5250424FFF7F1FF00B1002589
:101D10004FF43020FFF75DFF0446042C3AD185488C
:101D200083498860844888600846006940F0200044
:101D300008610846006940F0400008614FF4302017
:101D4000FFF747FF0446042C1BD17948006941F690
:101D5000DF710840764908610846006940F01000CC
:101D6000086176480580E002FFF733FF0446052C42
:101D700010D06F48006941F6EF7108406C49086166
:101D800008E0052C06D06A48006941F6EF7108406A
:101D900067490861204630BD78B506460C460425E3
:101DA00000200090E802FFF714FF0546042D24D11F
:101DB0005F48006940F001005D4908613480E80235
:101DC000FFF707FF0546042D10D1B01C0090200C32
:101DD00000990880E802FFF7FCFE054654480069B8
:101DE00041F6FE7108405249086106E0504800691A
:101DF00041F6FE7108404E490861284678BD70B52D
:101E000004460D460426F002FFF7E3FE0646042EC4
:101E100011D14748006940F001004549086125801B
:101E2000F002FFF7D6FE06464148006941F6FE7112
:101E300008403F490861304670BD70B505460E4602
:101E40000424E002FFF7C5FE0446042C17D13948EC
:101E500037498860384888600846006940F01000BB
:101E600008612E80E002FFF7B4FE0446052C06D080
:101E70002F48006941F6EF7108402D49086120465E
:101E800070BD2DE9F04304464FF6FF763746B04665
:101E9000B1460425E443E6B2C4F30727C4F3074878
:101EA0004FEA1469E802FFF794FE0546042D49D174
:101EB00020481F498860204888600846006940F033
:101EC00010000861FF2E06D01C4808300680E8028A
:101ED000FFF77FFE0546042D08D1FF2F06D01748D7
:101EE0000A300780E802FFF774FE0546042D0AD188
:101EF000B8F1FF0F07D011480C30A0F80080E802BD
:101F0000FFF767FE0546042D0AD1B9F1FF0F07D090
:101F10000A480E30A0F80090E802FFF75AFE054686
:101F2000052D0FD00248006941F6EF71084007E027
:101F30000020024023016745AB89EFCD00F8FF1F69
:101F4000664908612846BDE8F08330B5054604249B
:101F50004FF43020FFF73DFE0446042C41D1604889
:101F60005E4988605F4888600846006940F020004C
:101F700008610846006940F0400008614FF43020D5
:101F8000FFF727FE0446042C22D15448006941F68D
:101F9000DF710840514908610846006940F01000AF
:101FA00008611DB100205049088002E0A5204E497B
:101FB00008804FF43020FFF70CFE0446052C10D0AB
:101FC0004648006941F6EF7108404449086108E05D
:101FD000052C06D04148006941F6DF7108403F49B1
:101FE0000861204630BDF0B505460E46174604246C
:101FF0003B483A4988603B488860E002FFF7E9FDCA
:102000000446042C19D13548006940F010003349CA
:10201000086147F0F800304328433349891C0880A1
:10202000E002FFF7D6FD0446052C06D02B480069D8
:1020300041F6EF710840294908612046F0BD274864
:10204000C069800870472548006A7047002023490E
:10205000096801F0200109B1012000E0002070476B
:1020600029B11E4A126902431C4B1A6104E01B4A43
:1020700012698243194B1A617047014600200129F9
:1020800008D1164AD26902F001020AB1012008E023
:10209000002006E0114AD2680A400AB1012000E09F
:1020A000002070470D49C860704704200B49C9687B
:1020B00001F0010109B101200EE00849C96801F0F1
:1020C000040109B1022007E00449C96801F01001C8
:1020D00009B1032000E00420704700000020024006
:1020E00023016745AB89EFCD00F8FF1F10B504460B
:1020F000FE48844208D10121C014FFF75DFA002197
:10210000E014FFF759FAC4E0B4F1804F08D101217F
:102110000846FFF75EFA00210120FFF75AFAB8E0FF
:10212000F348844208D101210220FFF752FA00212E
:102130000220FFF74EFAACE0EE48844208D10121BC
:102140000420FFF746FA00210420FFF742FAA0E03E
:10215000E948844208D101210820FFF73AFA00211A
:102160000820FFF736FA94E0E448844208D10121C0
:102170001020FFF72EFA00211020FFF72AFA88E03E
:10218000DF48844208D101212020FFF722FA0021F4
:102190002020FFF71EFA7CE0DA48844208D10121B2
:1021A0004014FFF709FA00216014FFF705FA70E008
:1021B000D548844209D10121C804FFF7FDF9002167
:1021C0004FF40020FFF7F8F963E0D048844209D1CA
:1021D00001210805FFF7F0F900214FF48010FFF707
:1021E000EBF956E0CA48844209D101214805FFF7BE
:1021F000E3F900214FF40010FFF7DEF949E0C5488C
:10220000844208D101214020FFF7E3F9002140205A
:10221000FFF7DFF93DE0C048844208D1012180206A
:10222000FFF7D7F900218020FFF7D3F931E0BB4851
:10223000844208D101218015FFF7CBF90021A015B8
:10224000FFF7C7F925E0B648844209D10121080407
:10225000FFF7B2F900214FF48030FFF7ADF918E035
:10226000B048844209D101214804FFF7A5F90021B3
:102270004FF40030FFF7A0F90BE0AB48844208D1DF
:1022800001218804FFF798F900214FF48020FFF71F
:1022900093F910BD00220288944B98420ED0994BBE
:1022A00098420BD0B0F1804F08D0914B984205D0A6
:1022B000904B984202D0904B984204D14FF68F73C6
:1022C0001A404B881A438D4B984207D08C4B98424A
:1022D00004D04FF6FF431A40CB881A4302808B8804
:1022E00083850B880385814B98420BD0854B9842A0
:1022F00008D08B4B984205D08A4B984202D08A4B2B
:10230000984201D10B7A038601238382704770B50E
:10231000002400220023058C4FF6FE76354005840C
:10232000028C8388048B4FF68F752C40B51E2C4091
:102330000D882C43751E2A400D892A434D882A4357
:102340006A4DA8420BD06F4DA84208D0744DA842E8
:1023500005D0744DA84202D0734DA84213D14FF658
:10236000F7752A404D892A434FF6FB752A408D8820
:102370002A434FF6FF652B404FF6FF552B408D89C2
:102380002B43CD892B4383800483CD8885860284AB
:1023900070BD70B5002400220023058C4FF6EF7647
:1023A00035400584028C8388048B48F6FF752C40E9
:1023B0004FF6FF452C400D884FF6FF7606EA0525BF
:1023C0002C434FF6DF752A400D8906EA05152A438E
:1023D0004D8806EA05152A43444DA84202D0494DCE
:1023E000A8421DD14FF67F752A404D894FF6FF76E2
:1023F00006EA05152A434FF6BF752A408D8806EA7E
:1024000005152A434FF6FF352B404FF2FF752B4041
:102410008D8906EA85052B43CD8906EA85052B4380
:1024200083800483CD880587028470BD70B5002445
:1024300000220023058C4FF6FF6635400584028C90
:102440008388848B4FF68F752C404FF6FC752C409B
:102450000D882C434FF6FF552A400D894FF6FF7625
:1024600006EA05252A434D8806EA05252A431F4D1D
:10247000A84202D0234DA8421DD14FF2FF752A4039
:102480004D894FF6FF7606EA05252A434FF6FF35BC
:102490002A408D8806EA05252A434EF6FF752B4013
:1024A0004DF6FF752B408D8906EA05152B43CD8926
:1024B00006EA05152B4383808483CD8885870284B3
:1024C00070BD70B5002200230024058C4EF6FF7607
:1024D00035400584038C8488828B48F6FF752A403A
:1024E0004FF6FF452A400D8820E00000002C0140F7
:1024F0000004004000080040000C004000100040B4
:102500000014004000340140004C014000500140E4
:102510000054014000180040001C00400020004012
:102520000040014000440140004801404FF6FF7662
:1025300006EA05252A434DF6FF752B400D8906EA6C
:1025400005352B434D8806EA05352B43FA4DA84245
:1025500002D0FA4DA84208D14BF6FF752C408D8968
:102560004FF6FF7606EA85152C4384808283CD885A
:10257000A0F84050038470BD828B4FF2FF331A40A5
:102580008283828B4FF6FF7303EA01231A4382830F
:102590007047F0B50C461546002200210026078C36
:1025A0004EF6FF7C07EA0C070784828B018C4FF6FE
:1025B000FF7707EA043640F6FF473A404FF6FF77C9
:1025C00007EA05273A434FF6FF7707EA03373A430E
:1025D000D94FB8420ED0D94FB8420BD0B0F1804F8E
:1025E00008D0D74FB84205D0D64FB84202D0D64F08
:1025F000B84206D14DF6FF77394046F4805739434B
:1026000005E047F6FF57394044F480573943828349
:102610000184F0BD828B4FF6F3731A408283828B64
:102620000A4382837047F0B50C461546002200210C
:102630000026078C4FF6FF6C07EA0C070784828B95
:10264000018C4FF6FF7707EA04264FF60C773A40E5
:102650004FF6FF7707EA03172F433A43B64FB842C6
:102660000ED0B64FB8420BD0B0F1804F08D0B44F67
:10267000B84205D0B34FB84202D0B34FB84206D1EA
:102680004FF6FF57394046F48077394305E04FF263
:10269000FF57394044F48077394382830184F0BD89
:1026A000028B4FF2FF331A400283028B4FF6FF7307
:1026B00003EA01231A4302837047F0B50C4615461E
:1026C000002200210026078C4FF6EF7C07EA0C075A
:1026D0000784028B018C4FF6FF7707EA041640F659
:1026E000FF473A404FF6FF7707EA03373A434FF682
:1026F000FF7707EA05273A438F4FB8420ED08F4F36
:10270000B8420BD0B0F1804F08D08D4FB84205D001
:102710008C4FB84202D08C4FB84206D14FF6DF77CB
:10272000394046F01007394305E04FF65F773940EE
:1027300044F01007394302830184F0BD028B4FF649
:10274000F3731A400283028B0A4302837047F0B589
:102750000C46154600220021068C4FF6FE773E40BF
:102760000684028B018C4FF60C7632407E1C06EA02
:1027700003162E433243704EB0420ED06F4EB0421D
:102780000BD0B0F1804F08D06D4EB04205D06D4EE9
:10279000B04202D06C4EB04206D14FF6FD763140C9
:1027A00044F00106314305E04FF6F576314044F040
:1027B0000106314302830184F0BD70B505460C4625
:1027C0005D4885420ED05D4885420BD0B5F1804F03
:1027D00008D05B48854205D05A48854202D05A4805
:1027E000854200D100E000BF208850B92389A2882B
:1027F00061882846FFF7ABFFE1882846FFF79EFF78
:1028000025E0208804280AD12389A28861882846E7
:10281000FFF753FFE1882846FFF742FF17E02088C3
:1028200008280AD12389A28861882846FFF7FBFE81
:10283000E1882846FFF7EEFE09E02389A288618837
:102840002846FFF7A6FEE1882846FFF795FE70BDF3
:102850002DE9F04105460C4600260127608808B99D
:10286000022600E00026A088012801D1022700E00E
:1028700001272088A0B92389A28861882846FFF70C
:1028800066FFE1882846FFF759FF23893A4631461B
:102890002846FFF712FFE1882846FFF701FF13E003
:1028A0002389A28861882846FFF707FFE188284628
:1028B000FFF7F6FE23893A4631462846FFF747FFE1
:1028C000E1882846FFF73AFFBDE8F0810A884B8887
:1028D0001A438B881A43CB881A430B891A434B89B6
:1028E0001A438B891A43A0F8442070474FF6FF71B2
:1028F000818000210180C1804180017270470021E8
:10290000018041808180C180018141818181C181BB
:102910007047002101804180012181800021C18018
:10292000018170470021018041808180C180018147
:102930004181818170470000002C0140003401403A
:102940000004004000080040000C004021B1028853
:1029500042F00102028004E002884FF6FE731A4042
:102960000280704731B1B0F8442042F40042A0F830
:10297000442005E0B0F84420C2F30E02A0F8442041
:1029800070471AB183890B43838102E083898B43AB
:10299000838170478182704741EA0203A0F8483082
:1029A00070471AB183890B43838102E083898B438B
:1029B0008381704701894FF6F87211400181704799
:1029C0000A46002101894FF68F7319401143018196
:1029D000704730B504460D4629462046FFF7F0FF04
:1029E000208940F00700208130BD2DE9F0410446E8
:1029F0000D4616461F46602D06D13B460122314644
:102A00002046FFF75AFE05E03B46012231462046AC
:102A1000FFF79DFE29462046FFF7D2FF208940F0B0
:102A200007002081BDE8F08130B50C460021018906
:102A3000C9B24FF6FF7505EA03251543254329431F
:102A4000018130BD2DE9F04105460E4617469846F6
:102A5000002443463A4631462846FFF7E5FF2C89D5
:102A60004FF6F870044044F007044FF68F700440AE
:102A700044F070042C81BDE8F081F0B504460D46A9
:102A800016461F463B46324629462046FFF7CCFFF6
:102A9000208940F480402081F0BD0185828270470A
:102AA0000A46002101884FF68F73194011430180B7
:102AB0007047F0B50C4615461E4600210022002343
:102AC0000189028B038C4FF6F877394021434FF68A
:102AD000FC473A4040F201173A434FF6DD773B405E
:102AE0004FF6FF7707EA06172F433B430181028326
:102AF0000384F0BD0A460021018B4FF68F73194005
:102B00001143018370470A460021018B48F6FF7389
:102B100019404FF6FF7303EA0223194301837047FC
:102B20000A460021818B4FF68F7319401143818330
:102B300070470A460021818B48F6FF7319404FF613
:102B4000FF7303EA022319438183704721B102888E
:102B500042F08002028004E002884FF67F731A4040
:102B60000280704721B1828842F00402828004E032
:102B700082884FF6FB731A408280704721B18288A9
:102B800042F00802828004E082884FF6F7731A4010
:102B90008280704721B1828842F00102828004E085
:102BA00082884FF6FE731A40828070470A460021E1
:102BB000018B4FF6F77319401143018370470A46A2
:102BC0000021018B4FF2FF7319404FF6FF7303EAA8
:102BD00002231943018370470A460021818B4FF677
:102BE000F77319401143818370470A460021818B96
:102BF0004FF2FF7319404FF6FF7303EA02231943A4
:102C0000818370470A460021018B4FF6FB73194000
:102C10001143018370470A460021018B4FF6FF33B1
:102C200019404FF6FF7303EA0223194301837047EB
:102C30000A460021818B4FF6FB73194011438183B3
:102C400070470A460021818B4FF6FF3319404FF63B
:102C5000FF7303EA02231943818370470A46002168
:102C6000018B4FF67F7319401143018370470A4669
:102C70000021018BC1F30E014FF6FF7303EA02231B
:102C80001943018370470A460021818B4FF67F73F9
:102C900019401143818370470A460021818BC1F39B
:102CA0000E014FF6FF7303EA022319438183704735
:102CB0000A460021018C4FF6FD731940114301842F
:102CC00070470A460021018C4FF6F77319401143F3
:102CD000018470470A460021018C4FF6DF731940CA
:102CE0004FF6FF7303EA02131943018470470A4643
:102CF0000021018C4FF67F7319404FF6FF7303EAF2
:102D000002131943018470470A460021018C4FF6D3
:102D1000FF5319404FF6FF7303EA0223194301845E
:102D200070470A460021018C4FF2FF7319404FF69D
:102D3000FF7303EA02231943018470470A46002106
:102D4000018C4DF6FF7319404FF6FF7303EA02330F
:102D500019430184704730B5002301248C40A3B28D
:102D6000048C9C430484048C02FA01F5ADB22C431C
:102D7000048430BD30B5002304248C40A3B2048CFD
:102D80009C430484048C02FA01F5ADB22C43048404
:102D900030BD70B5034600200024184618300125C8
:102DA0008D40ACB21D8CA5431D8409B1082909D101
:102DB00000EB6100056825F07005056005681543A6
:102DC00005600EE00D1FC5F34E052844056825F487
:102DD000E045056005684FF6FF7606EA02263543B2
:102DE000056070BD21B1028842F00202028004E059
:102DF00002884FF6FD731A400280704721B10288A5
:102E000042F00402028004E002884FF6FB731A408D
:102E10000280704721B1828842F08002828004E003
:102E200082884FF67F731A408280704702884FF67F
:102E3000F7731A40028002880A4302807047828832
:102E40004FF68F731A40828082880A4382807047CF
:102E500002894FF6F8731A40028102890A430281FF
:102E6000704702894FF67F731A40028102890A4334
:102E700002817047818470478185704781867047E1
:102E80000187704781877047A0F84010704702881B
:102E90004FF6FF431A40028002880A4302807047BF
:102EA0000146888E70470146088F70470146888F1B
:102EB00070470146B1F8400070470146888C704762
:102EC0000146088D704702460020138A0B400BB163
:102ED000012000E000207047CA430282704730B5ED
:102EE0000246002000230024158A05EA0103958983
:102EF00005EA010413B10CB1012000E0002030BD4F
:102F0000CA4302827047000001684FF6FE7211400A
:102F100001600021016041608160C1608D4988428B
:102F200008D18C490839496841F00F01894A083AAB
:102F300051608AE087491431884208D185490839AF
:102F4000496841F0F001834A083A51607DE08149C7
:102F50002831884208D17F490839496841F47061B5
:102F60007C4A083A516070E07A493C31884208D185
:102F700078490839496841F47041764A083A516005
:102F800063E074495031884208D172490839496870
:102F900041F470216F4A083A516056E06D4964313E
:102FA000884208D16B490839496841F47001694A7F
:102FB000083A516049E067497831884208D165494B
:102FC0000839496841F07061624A083A51603CE052
:102FD0006149884206D1011F096841F00F01021FB3
:102FE000116032E05C491431884208D15A49091F06
:102FF000096841F0F001584A121F116025E0564956
:103000002831884208D15449091F096841F4706188
:10301000514A121F116018E04F493C31884208D1D3
:103020004D49091F096841F470414B4A121F116054
:103030000BE049495031884207D14749091F0968C7
:1030400041F47021444A121F1160704710B50022EC
:10305000026847F6F0739A430C6A8B6823430C6945
:1030600023434C6923438C692343CC6923434C6A33
:1030700023438C6A23431A430260CB6843600B6886
:1030800083604B68C36010BD0021016041608160B6
:10309000C160016141618161C1610162416281621E
:1030A000704721B1026842F00102026004E0026848
:1030B0004FF6FE731A40026070471AB103680B4363
:1030C000036002E003688B43036070474160704710
:1030D0000146486880B2704701460020002201F096
:1030E00080531BB11C4B083B1A6802E0194B083B8C
:1030F0001A6802EA01030BB1012000E000207047CA
:1031000000F0805119B11449091F086002E011490B
:1031100008394860704701460020002201F08053C2
:103120001BB10D4B083B1A6802E00A4B083B1A68BA
:1031300002EA01030BB1012000E00020704700F01B
:10314000805119B10449091F086002E0014908399A
:1031500048607047080002400804024010B5044669
:10316000FA48844208D101214015FEF725FA0021D2
:103170006015FEF721FA17E0F548844208D10121D5
:103180000015FEF719FA00212015FEF715FA0BE0DD
:10319000F048844208D10121C803FEF70DFA00214E
:1031A0004FF40040FEF708FA10BD30B5024600208B
:1031B00000235068E84C20400D790C6844EA05244F
:1031C000204350609068E54C2040D1E902542C43E4
:1031D0004D7944EA450420439060D06A20F47000A1
:1031E0000C7C641EE4B2234340EA0350D06230BD3D
:1031F00000210160017141718160C1600121017490
:10320000704721B1826842F00102826003E0826867
:1032100022F001028260704721B1826842F480721C
:10322000826003E0826822F480728260704710B589
:103230000023CBB21AB144681C43446002E04468E6
:103240009C43446010BD816841F008018160704773
:10325000014600208A6802F008020AB1012000E05D
:1032600000207047816841F0040181607047014689
:1032700000208A6802F004020AB1012000E0002068
:10328000704721B1826842F4A002826003E0826844
:1032900022F4A00282607047014600208A6802F48E
:1032A00080020AB1012000E00020704710B50A46F4
:1032B00000210023416821F46041531E41EA43315B
:1032C000416010BD21B1426842F40062426003E0F7
:1032D000426822F4006242607047F0B504460D4631
:1032E00000200021092D11DDE068A5F10A0606EB9A
:1032F0004607072606FA07F18843A5F10A0606EBFA
:10330000460603FA06F10843E0600CE0206905EB8D
:103310004507072606FA07F1884305EB450603FA39
:1033200006F108432061072A0FDA606B561E06EB90
:1033300086071F2606FA07F18843561E06EB860607
:1033400005FA06F10843606322E00D2A0FDA206BCC
:10335000D61F06EB86071F2606FA07F18843D61FFD
:1033600006EB860605FA06F10843206310E0E06AE2
:10337000A2F10D0606EB86071F2606FA07F1884321
:10338000A2F10D0606EB860605FA06F10843E06297
:10339000F0BD21B1826842F48012826003E082684D
:1033A00022F48012826070470146C86C80B2704778
:1033B00066484C300068704721B1426842F4806230
:1033C000426003E0426822F480624260704721B1AB
:1033D000426842F48052426003E0426822F4805224
:1033E000426070470A460021816821F4E0411143A0
:1033F0008160704721B1826842F40042826003E03C
:10340000826822F400428260704721B1826842F4EF
:103410000212826003E0826822F402128260704726
:10342000014600208A6802F400120AB1012000E07F
:1034300000207047F0B50446154600200022002603
:10344000092911DDE068A1F10A0707EB470C0727FE
:1034500007FA0CF29043A1F10A0707EB470703FABA
:1034600007F21043E0600CE0206901EB410C0727F4
:1034700007FA0CF2904301EB410703FA07F21043FD
:103480002061A06BC0F30156EF1C06F1010CA7EB05
:103490000C0707EB870C1F2707FA0CF29043EF1C71
:1034A00006F1010CA7EB0C0707EB870701FA07F2FF
:1034B0001043A063F0BD10B50A4600210023816BC4
:1034C00021F44011531E41EA0351816310BD08B538
:1034D000002300930090009B0B440093009B1A6014
:1034E00008BD08B5024600200090009201F12800B6
:1034F000009B184400900098006880B208BD0A46FE
:1035000000214168164B19401143416070474162E8
:10351000826270470A460021416821F01F01114371
:103520004160704740B109490831096841F4000120
:10353000064A0832116007E004490831096821F49D
:103540000001024A08321160704700000024014067
:1035500000280140003C0140FFFEF0FFFDF7F1FFB5
:10356000FFFD3FFF0246002013680B400BB1012016
:1035700000E000207047CA430260704770B5024601
:103580000020002300240B125568CEB205EA060481
:1035900015681D4015B10CB1012000E0002070BD80
:1035A00000220A12D343036070470000C9488069B3
:1035B00040F01000C7498861C748006880B2C6491A
:1035C00008600846406820F0FF0048600846006830
:1035D000C2490843C04908600846406840F0880076
:1035E00048600846C06840F47C70C860704710B5F9
:1035F000FFF7DCFF012204210220FDF71BFB012263
:1036000005210220FDF716FB012206210220FDF70D
:1036100011FB012207210220FDF70CFB01220821EA
:103620000220FDF707FB012209210220FDF702FB22
:1036300002230A2203211846FDF75DFB022317220D
:1036400019461846FDF757FB10BD10B5A448006891
:10365000A8B9A448407990B90A20FDF7BEFAA1485C
:103660000078401C9F4908700846407840F00200EE
:1036700048709D48006840F020009B4908609848C9
:10368000001D0068B8BB97484079A0BB0A20FDF731
:10369000A4FA94480078401C924908700AE09348C4
:1036A0000068401C9149086008460068B0F5102F7A
:1036B00000D304E08A48001D00680028EFD000BF56
:1036C0008A480068B0F5102F06D38648407840F04D
:1036D00040008449487005E08248407840F004008A
:1036E000804948700020814908607F48006840F0A8
:1036F00040007D4908607A4808300068B8BB7948C6
:103700004079A0BB0A20FDF768FA76480078401C93
:10371000744908700AE075480068401C73490860E5
:1037200008460068B0F5102F00D304E06C4808305C
:1037300000680028EFD000BF6C480068B0F5102F7B
:1037400006D36848407840F080006649487005E03C
:103750006448407840F0080062494870002063499E
:1037600008606148006840F080005F4908605C487C
:103770000C300068A8B95B48407990B90A20FDF781
:103780002CFA58480078401C564908700846407882
:1037900040F0100048705448006840F4807052496E
:1037A00008604F481030006870BB4E48407958BBE5
:1037B0000A20FDF712FA4B480078401C494908706E
:1037C0000846407840F00100487049480078A8B1A8
:1037D00001204849086000BF80F3138800BF00BF84
:1037E0004548006800F4E06044490843001D424930
:1037F0000860BFF34F8F00BF00BFFEE73A48006884
:1038000040F400703849086000203D4908603D4898
:10381000007858B93648007840B13B48006840F01D
:1038200008003949086001203649087010BD10B5FC
:103830000020334908602A48001F006878B92948E9
:10384000407960B90A20FDF7C8F926480078401C85
:10385000244908700846407840F00100487022482A
:10386000006840F010002049086010BD00201D498C
:1038700048710846407900B170472448007800B18B
:10388000FAE71748001D006838B915480830006885
:1038900018B901201D49087002E000201B4908707A
:1038A00000BFE9E70F484078032803D000200D4906
:1038B0004870087000200B4988700871704701201B
:1038C00008494871704710B5002006494871FFF754
:1038D000E9FF10BD00100240001001400000888880
:1038E000140122425000002014040140580000201E
:1038F000000000209C0121420CED00E00000FA05D0
:10390000700000206C000020100801405C000020C6
:1039100038B505460C46FE48C06940F00400FC4935
:10392000C861FC480580001F0480FA4820380088E0
:1039300040F00100F74920390880F6482C3800880B
:1039400040F00100F3492C3908801E208DF800005A
:1039500002208DF801008DF8020001208DF803008F
:103960006846FEF77CF838BD7FB505460C46012158
:103970000220FDF714FEADF80850ADF80440002019
:10398000ADF80A00ADF8060001A9E348FEF782FC95
:1039900001221146E048FEF7F4FF1D208DF80000DB
:1039A00000208DF8010003208DF8020001208DF821
:1039B00003006846FEF753F864214FF4E150FFF727
:1039C000A7FF0121D448FEF7C1FF7FBD10B501213B
:1039D000D148FFF784FAA0B1D0480068401CCF4915
:1039E0000860CF480068401CCD490860CD48006899
:1039F000401CCC490860FFF739FF0121C648FFF79A
:103A00007FFA10BD70B503460C4600212AE001EB99
:103A10004100C0EB4110C44D05EB8000006FF8B9C8
:103A200001EB4100C0EB411045F8203001EB4100B3
:103A3000C0EB411005EB8000046701EB4100C0EBD7
:103A4000411005EB8000A0F86A20002001EB410541
:103A5000C5EB4115B44E06EB8505A5F86C0070BDAD
:103A6000481CC1B20A29D2DB0120F8E770B505462F
:103A700000242CE004EB4401C1EB4411AA4A52F8A3
:103A8000210029460AF01EF9F8B9002004EB440190
:103A9000C1EB4411A44A42F8210004EB4401C1EBFC
:103AA000441102EB8101086704EB4401C1EB4411AE
:103AB00002EB8101A1F86A0004EB4401C1EB44115F
:103AC00002EB8101A1F86C0070BD601CC4B20A2C2D
:103AD000D0DB00BFF8E710B5002460E004EB440041
:103AE000C0EB4410904901EB8000006F002854D0D7
:103AF00004EB4400C0EB441051F82000F0B304EB99
:103B00004400C0EB441001EB8000B0F86C00401C96
:103B100004EB4401C1EB4411834A02EB8101A1F89B
:103B20006C0004EB4400C0EB4410114601EB800034
:103B3000B0F86C0004EB4401C1EB441102EB8101CD
:103B4000B1F86A10884228D104EB4401C1EB44115A
:103B500002EB8101086F8047002004EB4401C1EBB8
:103B60004411714A42F8210004EB4401C1EB4411B5
:103B700002EB8101086704EB440100E00DE0C1EBBA
:103B8000441102EB8101A1F86A0004EB4401C1EB8E
:103B9000441102EB8101A1F86C00601CC4B20A2C34
:103BA0009CDB10BD2DE9F04105460F46164600246A
:103BB00023E004EB4401C1EB44115B4A52F82100BD
:103BC00029460AF07FF8B0B904EB4401C1EB441177
:103BD000554A02EB8101081D324639460AF005F8C4
:103BE00004EB4400C0EB44104F4901EB800080F827
:103BF0006860BDE8F081601CC4B20A2CD9DB00BF4C
:103C0000F7E770B505460E46002429E004EB4401B1
:103C1000C1EB4411444A52F8210029460AF052F8F7
:103C2000E0B904EB4400C0EB44103F4B03EB8000D1
:103C300090F8682004EB4400C0EB441003EB8000D4
:103C4000011D304609F0D1FF04EB4400C0EB4410E5
:103C5000354901EB800090F8680070BD601CC4B26B
:103C60000A2CD3DB0020F8E710B52A481C3800885E
:103C700000F0010038B372B6FFF72DFF2B48006843
:103C8000401C2A4908602A480078D8B129480078A1
:103C9000C0B108460068B0F5FA6F13D9264800781D
:103CA000401C254908700320487000201F49086007
:103CB000224908701E4908702148006840F0080039
:103CC0001F49086062B613481C38008820F00100C4
:103CD00010491C39088010BD10B51A4948880AF0EF
:103CE00029FE044618490AF02BFD184908601549B9
:103CF00088880AF01FFE044613490AF021FD134983
:103D000048601049C8880AF015FE04460E491FE0B5
:103D1000001002402C080040000400406000002019
:103D20006400002068000020A80900207000002026
:103D30006C00002074000020500000208F00002044
:103D4000140801409A0E002000001644800E002046
:103D50000AF0F6FC3249886010BD01203149086044
:103D600070472DE9F0410446002500202D490860E8
:103D700020460AF0DFFD07462948016838460AF068
:103D800021FE06460AF09EFD85B22A46AFF23501B5
:103D900025A0FFF737FEBDE8F08101202149091F6A
:103DA000086070472DE9F0410446002500201D49B8
:103DB000086020460AF0BEFD0746194841683846AB
:103DC0000AF000FE06460AF07DFD85B22A46AFF2F3
:103DD000350116A0FFF716FEBDE8F081012011495C
:103DE0001C31086070472DE9F04104460025002091
:103DF0000C49086020460AF09DFD07460848816886
:103E000038460AF0DFFD06460AF05CFD85B22A4618
:103E1000AFF2370105A0FFF7F5FDBDE8F081000026
:103E2000800E00209401214255504600524F46001A
:103E30004948806940F01C0047498861474800684C
:103E400080B246490860084600684549084343492E
:103E50000860081D0068434908404049091D086082
:103E600008460068404908433C49091D08603F482E
:103E7000006820F0F0003D4908600846006840F006
:103E8000300008603A484068C0B239494860084686
:103E9000406838490843364948600120364908607F
:103EA0003649C1F8A00134490C390860324908315B
:103EB00008603149091F08602F49091D0860304911
:103EC00008602F491C390860091D0860091D086039
:103ED000091D08602849083908602949091D08603A
:103EE00070472248001F0068264908401F49091FE3
:103EF000086008460068244908431C49091F0860F7
:103F0000704700B5FFF794FFFFF7EBFF00BD0120FE
:103F1000194908601949C1F8A00117490C3908600E
:103F20001549083108601449091F08601249091D24
:103F300008601349086012491C390860091D0860AF
:103F4000091D0860091D08600B49083908600C4903
:103F5000091D086070470000001002400008014081
:103F600000003333F00FF0FF03300300040C014076
:103F70000010014000333333B401224200002142DB
:103F8000AC01214200FF0F008800808810B586B088
:103F90000024142101A809F06DFEF848027821469A
:103FA000641C01A820F81120F44842782146641CC2
:103FB00001A820F81120F14882782146641C01A84C
:103FC00020F81120ED48C2782146641C01A820F891
:103FD0001120EA4882882146641C01A820F811209B
:103FE000E648C2882146641C01A820F81120E34855
:103FF00002892146641C01A820F81120DF4842896B
:104000002046611CCCB201A921F81020DB48027BBC
:104010002046611CCCB201A921F81020D748427B70
:104020002046611CCCB201A921F810200A22D448F4
:10403000FCF713FB06B010BD10B586B000241421A8
:1040400001A809F017FE0A2201A9CD48FCF7F4FAED
:1040500001A830F814004FF6FF71884205D1002006
:10406000C6490870601CC4B207E02046611CCCB28F
:1040700001A911F81000C149087001A830F8140016
:104080004FF6FF71884205D10020BC490870601CC2
:10409000C4B207E02046611CCCB201A911F810009F
:1040A000B649487001A830F814004FF6FF718842F5
:1040B00005D10020B1490870601CC4B207E0204659
:1040C000611CCCB201A911F81000AC49887001A89C
:1040D00030F814004FF6FF71884205D10020A7493F
:1040E0000870601CC4B207E02046611CCCB201A974
:1040F00011F81010A148C17001A830F814004FF653
:10410000FF71884205D100209C490870601CC4B230
:1041100007E02046611CCCB201A931F81000974994
:10412000888001A830F814004FF6FF71884205D14D
:10413000002092490870601CC4B207E02046611C50
:10414000CCB201A931F810008C49C88001A830F820
:1041500014004FF6FF71884205D10020874908708E
:10416000601CC4B207E02046611CCCB201A931F842
:1041700010008249088101A830F814004FF6FF7141
:10418000884205D100207D490870601CC4B207E058
:104190002046611CCCB201A931F810007749488152
:1041A00001A830F814004FF6FF71884205D10020B5
:1041B00072490870601CC4B207E02046611CCCB292
:1041C00001A911F810006D49087301A830F8140016
:1041D0004FF6FF71884205D1002068490870601CC5
:1041E000C4B207E02046611CCCB201A911F810004E
:1041F000624948736148407B80B1604880785F497C
:10420000097888420AD15D48C0785C49497888427B
:1042100004D1002059494873FFF7B8FE5748007B86
:1042200020B9002055494881FFF7B0FE601CC4B298
:1042300006B010BD2DE9F0478CB007468846914680
:104240009A46182106A809F015FD1821684609F0BC
:1042500011FD002500244B4801F0FCFE2146641CA2
:1042600006A820F811702146641C20F81180002651
:1042700009E04448825D2046611CCCB206A921F8C1
:104280001020701CC6B2082EF3DB2046611CCCB295
:1042900006A921F810902046611CCCB206A921F88D
:1042A00010A03948FCF7B2F94FF6FF71884203D1EC
:1042B00000213548FCF740FA3448FCF7A7F94FF6DF
:1042C000FF71884203D100213048FCF735FA2E48AF
:1042D000FCF79CF90546B5F5C87F08D101212B48AC
:1042E000FCF72AFA00212848FCF726FA04E0681CAB
:1042F00081B22548FCF720FA05EB4501244A02EB80
:10430000C1000C2206A9FCF7A8F905EB4501204ADB
:1043100002EBC1000C226946FCF78EF90CB0BDE837
:10432000F08708B50020009000211748FCF704FA38
:1043300000211648FCF700FA022269461548FCF7EE
:104340008CF9022269461448FCF787F90222694673
:104350001248FCF782F908BD10B500241224224649
:104360000F491048FCF779F910BD2DE9F0410026FE
:104370000C4D12260A4F002424E000008C0E002071
:10438000000003087D0000200050030800600308BF
:10439000001003080070030800710308007203088E
:1043A0009A0E0020000803082846FCF72FF94FF664
:1043B000FF71884203D100212846FCF7BDF9AD1CEE
:1043C000601C84B2B442EFDB074D002407E02846AE
:1043D000FCF71CF927F8020BAD1C601C84B2B44238
:1043E000F5DBBDE8F08100000008030810B50120EE
:1043F000FE490860FE48008818B1FD48008803287F
:1044000020D1FC48006860B10120FB490860FB49ED
:10441000C1F8B401F5490C3908600420F849087066
:1044200035E00320F649087008460078F549097818
:10443000884202D00C2002F08CF9F1480078F14952
:10444000087024E0EA480088022820D1E9481830A2
:10445000006860B10420EA4908700120E64908605C
:10446000E649C1F8B401E1490C3908600FE00320C6
:10447000E349087008460078E2490978884202D08A
:104480000C2002F066F9DE480078DE49087010BDA5
:1044900010B50120D849083108600020D749C1F87B
:1044A000B401D2490C390860D749C1F8AC0140F6D3
:1044B000B832AFF2C701D5A0FFF7A4FA10BD10B50E
:1044C0000A2002F046F90020CB490860CB49C1F828
:1044D000B80140F6B832AFF24701CCA0FFF792FA2C
:1044E00010BD10B5C348001F006800287ED1CA481F
:1044F0000069401CC84908610846006947F230510C
:10450000884274D90020C5490870BD48007818B1A8
:10451000BB48007802280CD1C148007848B100207F
:10452000C0490870BE4908700120B5490870FFF7FE
:10453000C6FFB3480078032856D1AE48006858B388
:10454000B548C068401CB449C8600846C06847F216
:104550003051884248D90120A7490860A749C1F8CD
:10456000B401A2490C3908600020AB49086104205D
:10457000A349087008460078A2490978884202D009
:104580000D2002F0E6F89E4800789E490870002051
:10459000A149C860086127E09F48C068401C9E4947
:1045A000C8600846C06847F2305188421CD90020D4
:1045B000914908609149C1F8B4018C490C390860EF
:1045C00003208F490870084600788E490978884290
:1045D00002D00C2002F0BDF88948007889490870A3
:1045E00000208D49C8600861854801E058E02DE051
:1045F000007804282AD17F48006840BB8648C068FC
:10460000401C8549C8600846C06847F2305188425E
:104610001CD90020784908607849C1F8B401734971
:104620000C390860032076490870084600787549FF
:104630000978884202D00C2002F08BF8704800788C
:104640007049087000207449C86008617EE07248B3
:10465000C068401C7049C8600846C06847F23051C5
:10466000884273D90120644908606449C1F8B401E3
:104670005E490C39086004206149087008460078DA
:1046800060490978884202D00D2002F062F85C4847
:1046900000785C49087000205F49C860086155E0F7
:1046A0005D480069401C5C4908610846006947F2A2
:1046B000305188424AD90020574908615048007853
:1046C000042807D04E480078032803D002204C4924
:1046D000087022E05348007840B90B2002F039F806
:1046E0000120504908704D49087016E04448007890
:1046F000032807D14B48007801280ED10C2002F086
:1047000028F80AE03E480078042806D14548007899
:10471000012802D10D2002F01CF83A4800783849EF
:104720000978884202D00B2002F013F801203249A8
:1047300008603249C1F8B4013349C1F8A0013048DA
:1047400000783049087002203649087010BD0120F9
:104750002649086005202A490870704710B50A20CC
:1047600001F0F7FF0020244908602449C1F8B40192
:104770001E490C3908602449C1F8AC0140F6B83232
:10478000AFF2350121A0FFF73DF910BD10B5194872
:10479000001F006800287DD11F480069401C1E4989
:1047A00008610846006947F23051884273D90020F9
:1047B0001A4908701B4908701148007818B1104850
:1047C000007802280AD11648007838B10020144930
:1047D000087001200A490870FFF7C0FF08480078F8
:1047E00005287DD10348143000681DE0AC0121424A
:1047F0009A0E002004812142B00122420000224290
:1048000075000020760000200000214243585F53CD
:104810007465703200000000C00E00207900002096
:104820007700002078000020A8B9FE484068401CAE
:10483000FC4948600846406847F2305188420AD92E
:104840000020F9490860F949C1F8B401F849086045
:10485000F44908614860F748006840BBF1480068C7
:10486000401CF04908600846006847F23051884211
:104870001DD9F04810380068C8B9EA48C068401C23
:10488000E849C8600846C06847F2305188420ED9EE
:10489000002001E0E3E1C4E1E349083908600620B3
:1048A000E54908700020DF4908610860C860E148F8
:1048B00008300068C0B1DB488068401CD949886076
:1048C0000846806847F2305188420DD90120D64908
:1048D0000860D649C1F8B401D5490860002000E05D
:1048E00024E0D04908618860D2481038006890B14F
:1048F000CC48C068401CCB49C8600846C06847F235
:104900003051884207D90120C74908390860002082
:10491000C4490861C860C7480830006830B1C5485C
:104920001038006810B10420C3490870C2480078EC
:1049300006287AD1C1480078BF490978884202D058
:104940000C2001F006FFBC480078BC490870B9484B
:104950001038006898B1B348C068401CB149C860BD
:104960000846C06847F2305188421AD90120AE4942
:10497000083908600020AB490861C86011E0A94807
:10498000C068401CA749C8600846C06847F230515B
:10499000884206D90020A44908390860A149086165
:1049A000C860A44808300068B0B19E488068401CC8
:1049B0009C4988600846806847F2305188420BD98C
:1049C0000120994908609949C1F8B40198490860E3
:1049D00000209449086188609648001D0068C8B9A5
:1049E00090484068401C8F4948600846406847F23C
:1049F000305188420ED900208B4908608B49C1F89C
:104A0000B4018B49086005208B4908700020854956
:104A10000861486087480830006830B18548103820
:104A2000006810B104208449087083480078042885
:104A30007ED18248007880490978884202D00D20D2
:104A400001F087FE7C4800787C490870794810386E
:104A5000006820BB7348C068401C7249C8600846A3
:104A6000C06847F2305188422CD97248006848BB70
:104A70006C480068401C6B4908600846006847F2B3
:104A8000305188421ED90020674908390860072044
:104A900069490870002063490861086012E06148B4
:104AA000C068401C5F49C8600846C06847F2305182
:104AB000884207D901205C4908390860002059491B
:104AC0000861C8605B48001D0068C8B95548406867
:104AD000401C544948600846406847F230518842BB
:104AE0000ED90020504908605049C1F8B40150491E
:104AF000086005205049087000204A490861486054
:104B00004C480830006898B146488068401C4549C8
:104B100088600846806847F2305188420DD90120EC
:104B2000414908604149C1F8B4014149086000E0C9
:104B300003E000203B49086188603F48007807286F
:104B40006FD13C48001D0068C8B936484068401C19
:104B5000344948600846406847F2305188420ED9CF
:104B60000020314908603149C1F8B401304908607A
:104B700005203149087000202A49086148602D4805
:104B800008300068B0B127488068401C254988601B
:104B90000846806847F2305188420BD901202249EB
:104BA00008602249C1F8B4012149086000201D496C
:104BB000086188601F48006810BB1A480068401CE4
:104BC000184908600846006847F2305188423BD9CE
:104BD000184810380068A0B11248C068401C11493C
:104BE000C8600846C06847F2305188422CD901207D
:104BF0000D490839086000200A490861C86008604A
:104C000022E00848C068401C0649C8600846C068E1
:104C100047F23051884217D900200349083908600B
:104C20000EE053E0C00E0020B001224200002242FC
:104C3000A00121421481214275000020760000204D
:104C4000FE490861C8600860FD480068F0B3FC4890
:104C500018380068D0B30420FA4908704BE0F748D0
:104C60000069401CF54908610846006947F2305167
:104C7000884240D9F348007804280ED0F1480078E3
:104C800005280AD0EF480078072806D0ED480078BC
:104C9000062802D00220EB490870EB48007838B9AA
:104CA0000B2001F056FD0120E7490870E749087024
:104CB000E7480078E3490978884202D00B2001F0E8
:104CC00048FDE0480078E249087000E013E0012068
:104CD000E0490860E049C1F8B401E0490860DD49F5
:104CE000083908600220D84908700020D3490861BB
:104CF0000120D649087010BD10B5D1481C38006895
:104D000000287DD1CD480069401CCC490861084687
:104D1000006947F23051884273D90020CB490870AE
:104D2000C9490870C748007818B1C64800780228F9
:104D30000AD1CB48007838B10020C9490870012059
:104D4000C0490870FFF7BBFBBE48007803287BD141
:104D5000BF480078BB490978884202D00C2001F096
:104D6000F8FCB8480078BA490870B54808380068B7
:104D7000A8B9B3481838006888B9B0480068401C22
:104D8000AE4908600846006847F23051884206D9AB
:104D90000020B04908390860A84908610860A8489F
:104DA0001838006890B1A548C068401CA349C86085
:104DB0000846C06847F23051884207D90120A5490A
:104DC0000839086000209D490861C8609C48006857
:104DD000E0B19A488068401C98498860084680681D
:104DE00047F23051884211D901209A4908609A4906
:104DF000C1F8B4019949086004209249087001E0A3
:104E00009DE09BE000208D49086188608C48001F70
:104E10000068C8B989484068401C8849486008460D
:104E2000406847F2305188420ED900208949086015
:104E30008949C1F8B4018949086003208149087093
:104E400000207E49086148607E480078042875D1BA
:104E50007F4800787B490978884202D00D2001F014
:104E600078FC784800787A490870754818380068E6
:104E700010BB7248C068401C7049C8600846C068D2
:104E800047F2305188422AD96D480838006830BB53
:104E90006A480068401C694908600846006847F293
:104EA000305188421BD900206A490839086063499B
:104EB0000861C860086012E06048C068401C5F4933
:104EC000C8600846C06847F23051884207D90120BF
:104ED000604908390860002058490861C86058488E
:104EE000001F0068002864D155480068002860D180
:104EF00052484068401C514948600846406847F2A3
:104F00003051884255D90020524908605249C1F8B1
:104F1000B4015249086003204A4908704C4800789F
:104F20000978884202D00C2001F013FC4548007833
:104F300047490870002041490861486039E03F480E
:104F40000069401C3D4908610846006947F230513C
:104F500088422ED93B480078042806D0394800788A
:104F6000032802D00220374908703748007838B942
:104F70000B2001F0EEFB0120334908703349087023
:104F8000334800782F490978884202D00B2001F07D
:104F9000E0FB01202F4908602F49C1F8B4013149D5
:104FA000C1F8A0012748007829490870002023494A
:104FB000086110BD10B522481C38006800287CD15B
:104FC0001E480069401C1D4908610846006947F2F7
:104FD0003051884272D900201C4908701948007865
:104FE00018B11848007802280CD11D48007848B143
:104FF0000020154908701A490870012011490870ED
:10500000FFF75DFA0F480078032870D10C48183874
:10501000006848B30948C068401C0849C860084691
:10502000C06847F23051884261D9012009490860BF
:105030000949C1F8B4010949086016E0C00E002012
:105040001C8121427500002078000020790000209A
:1050500076000020B001224200002242A00121423D
:10506000770000200000214217E0002084490861F9
:1050700004208449087008460078834909788842EA
:1050800002D00D2001F065FB7E4800787E49087053
:1050900000207B49C860086129E07948C068401C4D
:1050A0007749C8600846C06847F2305188421ED927
:1050B000002076490860764901E06FE045E0C1F8DC
:1050C000B4017449086003206E49087008460078EE
:1050D0006D490978884202D00C2001F03AFB6948FA
:1050E00000786949087000206549C8600861654812
:1050F0000078042829D16848006838BB6048C06837
:10510000401C5F49C8600846C06847F23051884279
:105110001BD900205D4908605D49C1F8B4015D49B3
:1051200008600320574908700846007856490978F6
:10513000884202D00C2001F00CFB52480078524902
:10514000087000204E49C86008617DE04C48C06886
:10515000401C4B49C8600846C06847F2305188423D
:1051600072D90120494908604949C1F8B401494947
:1051700008600420434908700846007842490978CD
:10518000884202D00D2001F0E4FA3E4800783E4902
:10519000087000203A49C860086155E03848006945
:1051A000401C374908610846006947F2305188427F
:1051B0004AD900203249086132480078042807D0D3
:1051C00030480078032803D002202E49087022E0DE
:1051D0003248007840B90B2001F0BBFA01202F497A
:1051E00008702F49087016E026480078032807D178
:1051F0002A48007801280ED10C2001F0AAFA0AE012
:1052000020480078042806D124480078012802D1DB
:105210000D2001F09EFA1C4800781A49097888424E
:1052200002D00B2001F095FA0120184908601849B6
:10523000C1F8B4011B49C1F8A00112480078124915
:10524000087002201549087010BD10B51648008876
:1052500030B1012807D0022808D003280CD108E07B
:10526000FFF73FF909E0FFF791FA06E0FFF744FD89
:1052700003E0FFF79FFE00E000BF00BF10BD00008D
:10528000C00E00207500002076000020B0012242F0
:1052900000002242A0012142048121427800002026
:1052A00079000020000021429A0E00202DE9F047ED
:1052B00006460D46F82703240EB147F00207FE48C4
:1052C000006840F00100FC490860081D006840F0DB
:1052D0000400091D08604BE0032C01D1B84607E02B
:1052E000022C02D105F0F00802E0F02000EA0518D7
:1052F0004FF008092EE008F0800030B1EE48006859
:1053000040F00200EC49086007E0EB48001D00682F
:1053100040F00200E849091D086000BF00BFE648F0
:10532000006840F00400E44908604FEA48604FEA32
:1053300010680220FBF72DFCDF48001D006840F0DC
:105340000400DD49091D086000BF00BFA9F101008C
:1053500000F0FF09B9F1000FCDDC032C03D1C82008
:10536000FBF717FC02E02820FBF713FC601EC4B219
:10537000002CB1DCD048001D006840F00200CE498E
:10538000091D08600846006840F001000860BDE89B
:10539000F0872DE9F04106460C46154631460020BF
:1053A000FFF784FF002706E014F8011B0120FFF738
:1053B0007DFF781CC7B2B7EB450FF5DBBDE8F08188
:1053C00010B50446012C06D0022C0AD0032C0FD0B5
:1053D000042C1BD113E00822B8498020FFF7D9FF25
:1053E00015E00822B54910319020FFF7D2FF0EE0FA
:1053F0000822B24920318820FFF7CBFF07E00822BE
:10540000AE4930319820FFF7C4FF00E000BF00BF75
:1054100010BD10B50120FFF7D3FF0220FFF7D0FF2A
:105420000320FFF7CDFF0420FFF7CAFF10BD0020C7
:105430000CE0002106E02022A04B03EB00135A549D
:105440004A1CD1B21029F6DB421CD0B20428F0DB92
:10545000704770B534210020FFF728FF8026002414
:1054600015E03146721CD6B20020FFF71FFF8021E5
:105470000020FFF71BFF002505E000210120FFF7BA
:1054800015FF681CC5B2102DF7DB601CC4B2202CC0
:10549000E7DB8026002415E03146721CD6B20020DE
:1054A000FFF704FF88210020FFF700FF002505E03B
:1054B00000210120FFF7FAFE681CC5B2102DF7DBB2
:1054C000601CC4B2202CE7DB30210020FFF7EEFE89
:1054D00070BD70B505460C4630210020FFF7E6FE92
:1054E00029460020FFF7E2FE002606E014F8011B23
:1054F0000120FFF7DBFE701CC6B2202EF6DB70BD6C
:1055000010B56F48806940F004006D4988616A48B1
:105510001038006820F00F0067491039086008460D
:10552000006840F0030008600846006820F0F000C2
:1055300008600846006840F03000086008460068CF
:1055400020F4706008600846006840F4407008600D
:105550006420FBF742FB30210020FFF7A7FE482024
:10556000FBF73BFB02210020FFF7A0FE4820FBF7E2
:1055700010FB0C210020FFF799FE4820FBF709FBE8
:1055800001210020FFF792FE4820FBF702FB0621D5
:105590000020FFF78BFE4820FBF7FBFA4648103847
:1055A000006820F4704044491039086008460068DB
:1055B00040F4405008604048001D006840F008007A
:1055C0003D49091D08603F494020FFF782FF3E49E1
:1055D0005020FFF77EFFFFF73CFFFFF728FFFFF7A4
:1055E00018FF10BD2DE9F041044634210020FFF7DB
:1055F0005DFE8027002516E039467A1CD7B20020D0
:10560000FFF754FE80210020FFF750FE002606E041
:1056100014F8011B0120FFF749FE701CC6B2102EC2
:10562000F6DB681CC5B2202DE6DB8027002516E0DE
:1056300039467A1CD7B20020FFF738FE88210020B7
:10564000FFF734FE002606E014F8011B0120FFF7E7
:105650002DFE701CC6B2102EF6DB681CC5B2202DC4
:10566000E6DB36210020FFF721FE30210020FFF786
:105670001DFEBDE8F0812DE9F0410546884614463F
:10568000002734210020FFF711FE002624E02946E0
:105690006A1CD5B20020FFF709FE41460020FFF743
:1056A00005FE38467A1CD7B2215C0120FFF7FEFDCB
:1056B00038467A1CD7B209E010080140D40E002009
:1056C00000100240AAEC0008CAEC0008215C01208E
:1056D000FFF7ECFD701CC6B2102ED8DB362100207F
:1056E000FFF7E4FD30210020FFF7E0FDBDE8F08189
:1056F00070B534210020FFF7D9FD002418E004F133
:105700008000C1B20020FFF7D1FD80210020FFF70B
:10571000CDFD002505E000210120FFF7C7FD681C35
:10572000C5B2102DF7DB6420FBF733FA601CC4B25E
:10573000202CE4DB002418E004F18000C1B200203A
:10574000FFF7B4FD88210020FFF7B0FD002505E03C
:1057500000210120FFF7AAFD681CC5B2102DF7DB60
:105760006420FBF716FA601CC4B2202CE4DB302165
:105770000020FFF79BFD70BD2DE9F04706460C4663
:1057800017464FF00009012C03DD4FF00809A01E59
:10579000C4B234210020FFF789FD002520E08020DD
:1057A00000EB04102844C1B20020FFF77FFD09F18F
:1057B00080003044C1B20020FFF778FD4FF00008B0
:1057C00007E000210120FFF771FD08F1010000F062
:1057D000FF08B845F5DB6420FBF7DBF9681CC5B2B0
:1057E000102DDCDB30210020FFF760FDBDE8F087E5
:1057F0002DE9F04706460C4617464FF00009FB48D6
:105800000278FB480178FB480078FFF7B5FFF948BC
:105810000670F7480470F5480770012C03DD4FF05F
:105820000809A01EC4B234210020FFF73FFD002567
:1058300020E0802000EB04102844C1B20020FFF7D4
:1058400035FD09F180003044C1B20020FFF72EFD84
:105850004FF0000807E0FF210120FFF727FD08F1C6
:10586000010000F0FF08B845F5DB6420FBF791F973
:10587000681CC5B2102DDCDB36210020FFF716FDB9
:1058800030210020FFF712FDBDE8F087014600201F
:1058900006E02022D84B03EB01131A54421CD0B26D
:1058A0001028F6DB704770B502F1D2048CB92024C1
:1058B000D14D05EB01152C54012307E02D24CE4DCD
:1058C00005EB0115C618AC555C1CE3B2052BF5DBE6
:1058D0008FE0002A40DA52422D24C74D05EB011516
:1058E0002C54642A10DB4FF47A7492FBF4F504FB19
:1058F0001524642594FBF5F4C04D2D5DBE4C04EBDE
:105900000116441C355505E02025BB4C04EB01165F
:10591000441C3555642492FBF4F504FB15240A2538
:1059200094FBF5F4B54D2D5DB34C04EB0116841CCE
:1059300035552E25B04C04EB0116C41C35550A24F0
:1059400092FBF4F504FB1524AC4D2D5DAA4C04EB41
:105950000116041D35554CE0B2F57A7F0ADB4FF491
:105960007A7492FBF4F4A54D2C5DA34D05EB011563
:105970002C5404E02024A04D05EB01152C54642A7E
:1059800010DB4FF47A7492FBF4F504FB15246425C4
:1059900094FBF5F4994D2D5D974C04EB0116441CD6
:1059A000355505E02025944C04EB0116441C355573
:1059B000642492FBF4F504FB15240A2594FBF5F40A
:1059C0008E4D2D5D8C4C04EB0116841C35552E2517
:1059D000894C04EB0116C41C35550A2492FBF4F5DE
:1059E00004FB1524854D2D5D834C04EB0116041D2D
:1059F00035550025804C04EB0116441D3555022514
:105A00007D4C04EB0116841D355570BD30B5632AFD
:105A100000DC5AB92D23784C04EB011423542D24B7
:105A2000754B03EB0115431CEC5428E00A2A15DBE7
:105A30000A2392FBF3F3714CE35C6F4C04EB01140B
:105A400023540A2392FBF3F403FB14236B4CE45C12
:105A5000694B03EB0115431CEC5410E02023664C0A
:105A600004EB011423540A2392FBF3F403FB1423E5
:105A7000624CE45C604B03EB0115431CEC542524A1
:105A80005D4B03EB0115831CEC5430BD2DE9F04157
:105A900004460D4617465A49384608F093FF80469B
:105AA00008F010FF06465748864208D3B6FBF0F0D0
:105AB0005249085C504901EB0511085504E02020CB
:105AC0004D4901EB0511085542F21070864210D382
:105AD0004C48B6FBF0F100FB116042F21071B0FBD4
