:020000040800F2
:1000000000040020E3010008F1010008F3010008EA
:10001000F5010008F7010008F901000800000000E0
:10002000000000000000000000000000FB010008CC
:10003000FD01000800000000FF01000801020008A7
:10004000030200080302000803020008030200087C
:10005000030200080302000803020008030200086C
:10006000030200080302000803020008030200085C
:10007000030200080302000803020008030200084C
:10008000030200080302000803020008030200083C
:10009000030200080302000803020008030200082C
:1000A000030200080302000803020008030200081C
:1000B000030200080302000803020008030200080C
:1000C00003020008030200080302000803020008FC
:1000D00003020008ED0900080302000803020008FB
:1000E00003020008030200080302000803020008DC
:1000F00003020008030200080302000803020008CC
:1001000003020008030200080302000803020008BB
:1001100003020008030200080302000803020008AB
:10012000030200080302000803020008030200089B
:1001300000F002F800F03FF80AA090E8000C8244BA
:100140008344AAF10107DA4501D100F034F8AFF297
:10015000090EBAE80F0013F0010F18BFFB1A43F0A5
:1001600001031847C04A0000E04A0000103A24BFCB
:1001700078C878C1FAD8520724BF30C830C144BF0C
:1001800004680C607047000000230024002500264E
:10019000103A28BF78C1FBD8520728BF30C148BFEA
:1001A0000B607047782903F06784002070471FB503
:1001B0001FBD10B510BD03F01BFD1146FFF7F7FF83
:1001C00000F0CFF803F039FD03B4FFF7F2FF03BCF2
:1001D00000F0FEFB30BF72B662B680F3088870474D
:1001E00070470B4880470B4981F308880A4800474D
:1001F000FEE7FEE7FEE7FEE7FEE7FEE7FEE7FEE7D7
:10020000FEE7FEE705480649044A064B7047000032
:10021000E1010008500900203101000850010020D0
:100220005009002050010020E748806940F0080094
:10023000E5498861E548006820F0F010E34908606E
:100240000846006840F030100860E0480C30006854
:1002500040F00200DD490C3108600846006840F0BB
:1002600020000860D948001D006820F00F00D74921
:10027000091D08600846006840F003000860D34884
:100280000C300068D1490C3108607047F0B585B07A
:1002900007460E461546002446E0285DC11700EBD0
:1002A0001171091102AA02F8141002A810F8140022
:1002B000092807DD02A810F81400373002A901F858
:1002C000140006E002A810F81400303002A901F86A
:1002D0001400285DC11700EB11710911A0EB011189
:1002E000012202EB440202AB9954012000EB4400CE
:1002F00002A9085C09280ADD012000EB4400085C23
:100300003730012101EB440102AA50540AE00120D8
:1003100000EB440002A9085C3030012101EB4401EC
:1003200002AA5054601CC4B2042CB6DB00208DF825
:100330001000A7A010210B46C822CDE900103146BD
:10034000384602F0B5FE02A81021CDE9001006F1F2
:10035000100081B21023C822384602F0A9FE05B071
:10036000F0BD88B00826002002900390049005900C
:10037000092000F0D1FA4FF41651482000F071FB2B
:10038000482000F05BF900F0E3FB00F06EFF4FF453
:100390007840934908804FF6FF7000F034FF02F078
:1003A000BBFEFFF741FF0A2000F07EF903F0DBF807
:1003B0004FF4FC608A490880AAE04FF478408849ED
:1003C000088007A9522003F084F90546FDB985A0ED
:1003D00010210B46C822CDE900101E21002002F09A
:1003E00067FE00240CE0102007A900900A5D782128
:1003F00001EB441003231E2102F0A3FD601CC4B2D4
:10040000022CF0DB022506A803F08EF90546002D2C
:1004100035D11F207249088075A010210B46C822D3
:10042000CDE900103221002002F042FE4FF4784066
:100430006B49088006AA50210020FFF727FF64A01F
:1004400010210B46C822CDE900107821002002F0CF
:100450002FFE00240CE01020009006A8025D8820EA
:1004600000EB04110323002002F06BFD601CC4B2FA
:10047000042CF0DB022506A803F0C3F905468DB96C
:100480005FA010210B46C822CDE9001011460020C4
:1004900002F00EFE022506AB5E4A0921602003F041
:1004A000EAF905467DB95CA010210B46C822CDE9CA
:1004B0000010DC21002002F0FBFD022502A93046DD
:1004C00003F004FA05461DBB042411E0102002A924
:1004D00000900A5D211F01EBC101002303EB8101A4
:1004E00088B204234FF4827102F02BFD601CC4B269
:1004F000082CEBDB4EA010210B46C822CDE90010E2
:10050000F021002002F0D4FD0225642000F0CCF898
:1005100053E710B502460120002302E050435C1C63
:10052000E3B28B42FADB10BD2DE9F04706460F46D9
:10053000904699460225052400BF43463A46314677
:10054000602003F098F90546601EC4B20DB1002C7E
:10055000F3DC0225052400BF4946304603F0B6F916
:100560000546601EC4B20DB1002CF5DC2846BDE87E
:10057000F0872DE9F04706460F469046994602253A
:10058000052400BF43463A463146602003F073F924
:100590000546601EC4B20DB1002CF3DC0225052413
:1005A00000BF4946304603F0C1F90546601EC4B29B
:1005B0000DB1002CF5DC2846BDE8F08730B5DDE94B
:1005C000034530BD7047000000100240000C0140A0
:1005D00054686520436172642049442069733A007D
:1005E0001400002046494E445F415F43415244009D
:1005F000416E7469636F6C6C5F5F4F4B000000006D
:1006000050636453656C6563745F4D495F4F4B2065
:10061000200000000000002050636441757468539E
:10062000746174655F4D495F4F4B202000000000EE
:10063000524541445F4D495F4F4B00004FF0E02170
:10064000096921F004014FF0E0221161C21700EBAB
:100650005272D210224B1A701946097801EB4102EE
:10066000C2EBC1114FF6FF7202EAC1011D4A1180AF
:10067000704701461A4A12784A434FF0E0235A6104
:1006800000229A6101221A6100BF4FF0E022106936
:1006900010F0010F02D010F4803FF6D000224FF08E
:1006A000E0231A619A61704701460E4A12884A4354
:1006B0004FF0E0235A6100229A6101221A6100BFC3
:1006C0004FF0E022106910F0010F02D010F4803FCB
:1006D000F6D000224FF0E0231A619A6170470000C3
:1006E0000600002008000020AC4A0A400243AC4B40
:1006F0001A6070470146072323EA01021202A84B41
:100700001B1D18684FF6FF031840A64B18431043F3
:10071000A34B1B1D186070472DE9F04780468946A2
:1007200014461D462046E11704EB91714FEAA10AD9
:10073000E11704EB91718910A4EB8101CFB2042081
:1007400000EBC700C7B22846FFF7D4FFC5F104008D
:1007500008FA00F60F20284100EA0900064306F0D7
:100760000F06202C0CDA904800684FF0010101FAC6
:1007700004F140EA01004FF0E021C1F800010DE072
:100780008A480068A4F120014FF0010202FA01F248
:1007900040EA02004FF0E021C1F80401844850F81B
:1007A0002A0006FA07F140EA0100814941F82A00CF
:1007B000BDE8F08770B504460B46CE1701EB967680
:1007C000B010CE1701EB9676B610A1EB8606B606F2
:1007D000350E784B9B6943F00103764EB3614FEAC7
:1007E000B63353F820300F26AE40B343724E46F86E
:1007F0002030334653F8203004FA05F633436E4E6A
:1008000046F820306D4B1E6801238B401E436B4B16
:100810001E6012F0010F08D0684B0C331B680126D4
:100820008E403343654E0C36336012F0020F08D011
:10083000624B08331B6801268E4033435F4E0836F7
:10084000336070BD00B500205A490861C8601420AB
:10085000486100208861C8610846006840F00100D6
:1008600008600846406856490840524948600846B2
:100870000068544908404F4908600846006820F461
:10088000802008600846406820F4FE004860002090
:10089000886000214FF00060FFF726FF00BD10B513
:1008A0003F480830006840F004003D4908310860C6
:1008B0004048C06940F080503E49C86142484068A5
:1008C00040F48070404948600846006840F00400E9
:1008D00008600846006840F002000860FFF77AFCF4
:1008E00010BD3048001D2E49091D086070470146A3
:1008F0004906304A926942F001022E4B9A612E4A13
:10090000083A526822F0E0622B4B083B5A601A46C4
:1009100052680A435A60704730B504460025FFF715
:1009200091FF2448006840F480302249086000BFED
:1009300020480068400CFBD04FF480601D4948609F
:10094000A01EC4B20846406840EA84404860084699
:10095000406840F4803048601C48006840F0320035
:100960001A4908601348006840F080701149086017
:1009700000BF10480068400EFBD00E48406840F0B1
:1009800002000C49486005E00A484068C0F387054A
:1009900005F00305022DF7D130BD000080FFFF1FD9
:1009A00008ED00E00000FA0500E100E004E100E0ED
:1009B00000E400E000100240080001400004014093
:1009C0000000FFF8FFFFF6FE00700040002002402C
:1009D000014600BF704700BF574A128812F0400F0F
:1009E000FAD0C2B2544B1B1D1A8070475249098875
:1009F00011F0200F34D05049091D0988C8B24F4961
:100A0000098811F4004F2BD14C49098811F4804F0B
:100A10000CD00A2803D00021484A118020E0474921
:100A2000098841F40041454A118019E00D2806D19A
:100A30004249098841F48041404A118010E03F4911
:100A40000988C1F30D013E4A50543C490988491CAC
:100A50003A4A118011460988C72901DD0021118019
:100A600070472DE9F05F05460E46300103F034FA79
:100A70008146344905FB01F003F02EFA82464946CF
:100A800003F048F90746384603F006FA84B22046D8
:100A900003F022FA8346394603F0FEFA82464FF00D
:100AA000834103F02DFA814603F0F6F980464FF6B4
:100AB000FF7000EA041404EB080084B22248806945
:100AC00040F00400204988610846806940F4804075
:100AD00088611E48006820F47F601C490860084651
:100AE000006840F40B6008601748C06840F480401C
:100AF0001549C8600846C06820F48040C8600E48A8
:100B000008300480001D008842F20C0108430A49A5
:100B10000C3108800846008840F480700880084640
:100B2000008840F020000880022325220321084687
:100B3000FFF7F2FDBDE8F09F003801400C000020F7
:100B40001800002040420F0000100240040801403D
:100B50001848806940F00800164988610846806995
:100B600040F0400088611448006820F47000124989
:100B700008600846006840F4401008600E480C30D9
:100B8000006840F020000C490C3108600B480068F8
:100B900020F47000094908600846006840F44010DD
:100BA000086006480C30006840F0200003490C3112
:100BB0000860704700100240000C0140001801401E
:100BC000FB4908807047FA49891C08807047F8483B
:100BD000801C00887047F64A1080921C1180704774
:100BE00010B504462046FFF7EBFF0520FFF741FD57
:100BF000FFF7EDFF10BDEF48C079ED490880704761
:100C0000EB49891C0880704730B5014601F01F048C
:100C1000C1F34513CA0AE50205EB43151544A8B212
:100C200030BD00BF0100A0F10102D0B2FAD170477F
:100C300010B503460C46DF488088A0F513414139C2
:100C400014D1DC49087AFFF7BBFF1812FFF7BBFF8E
:100C5000D8B2FFF7B8FFD749487AFFF7B1FF2012A3
:100C6000FFF7B1FFE0B2FFF7AEFF36E0D148808872
:100C7000A0F5D04104391DD1CE488079012804D196
:100C8000CC480088401EC01A83B2CA49087AFFF7D0
:100C900097FF1812FFF797FFD8B2FFF794FFC549E7
:100CA000487AFFF78DFF2012FFF78DFFE0B2FFF7C4
:100CB0008AFF12E0BF488079012804D1BD4800882E
:100CC000401EC01A83B2BB49087A1946FFF783FF5A
:100CD000B849487A2146FFF77EFF10BD2DE9F04163
:100CE00005460E4600240027A046B2480088A842C8
:100CF00003DDB0484088B04202DC0020BDE8F0814E
:100D000031462846FFF794FFAA488088A0F5134192
:100D1000413905D0A7488088A0F5D041043903D1D6
:100D20002E20FFF74DFF02E02220FFF749FFA148E8
:100D30008088A0F51341203902D10220FFF771FF0E
:100D40009B48801C008800B100240220FFF769FF47
:100D50009748801C048897488088A0F51341413942
:100D60000CD10220FFF75DFF9148801CB0F8008095
:100D7000E7B24FF6FF7000EA072708E08D48808849
:100D8000A0F5D041043902D18948801C04888948E3
:100D90008088A0F51341253917D086488088A0F5B2
:100DA0008A41353911D083488088A0F58A4131398C
:100DB0000BD080488088A0F50941893905D07D484D
:100DC0008088A0F53541053901D1204696E779485C
:100DD0008088A0F51341413907D1E012C002B91251
:100DE00040EA411040EAE82088E72046FFF70CFF80
:100DF00084E700B56F488088A0F51341413905D0DC
:100E00006C488088A0F5D041043903D12920FFF730
:100E1000D7FE04E040F273110720FFF7DCFE00BDAF
:100E200000B564488088A0F51341413905D0614878
:100E30008088A0F5D041043903D12820FFF7C0FEF7
:100E400003E000210720FFF7C6FE00BDF0B5054610
:100E5000002400275748807901281ED155488088F2
:100E6000A0F5D041043918D0082D15D2DFE805F0DF
:100E70000406080A0C0E101206250DE007250BE0EB
:100E8000042509E0052507E0012505E0002503E02C
:100E9000032501E0022500BF00BF46488088A0F579
:100EA0001341413905D043488088A0F5D041043929
:100EB0007DD1082D1CD2DFE805F00406090C0F12C5
:100EC000151800BF14E044F0800411E044F0400421
:100ED0000EE044F0C0040BE044F0200408E044F0CD
:100EE000600405E044F0A00402E044F0E00400BF28
:100EF00000BF362744F008042E488088A0F5D04172
:100F0000043901D144F0020421463846FFF763FE5C
:100F100014F0200F03D12748807901280DD12548EE
:100F2000008824494988884214DA22480688408883
:100F300020490880084646800CE01E4800881D496C
:100F40004988884206DD1B48068840881949088080
:100F5000084646801749087AFFF732FE0020FFF75F
:100F600032FE0020FFF72FFE12490988491EC1F307
:100F70000F20FFF728FE0F490978491EC8B2FFF776
:100F800022FE0C49487AFFF71BFE0020FFF71BFEEC
:100F90000020FFF718FE07494988491EC1F30F20BA
:100FA000FFF711FE03498978491EC8B204E006E044
:100FB000FE07006CE0000020FFF705FE31E0082D81
:100FC0001CD2DFE805F004070A0D0F12151844F0D3
:100FD000300413E044F0100410E044F020040DE06D
:100FE00000BF0BE044F0380408E044F0280405E0BA
:100FF00044F0180402E044F0080400BF00BFFE48BB
:101000008088A0F50941893904D1112746F24000B2
:10101000044302E0032744F4805421463846FFF796
:10102000DAFDF0BD30B504460D4629462046FFF7EF
:10103000FFFDFFF7E0FDF1480088F149088030BD71
:1010400030B503460C461546EB488088A0F51341A1
:10105000413914D1E849087AFFF7B2FD1812FFF7B9
:10106000B2FDD8B2FFF7AFFDE349487AFFF7A8FD1C
:101070002012FFF7A8FDE0B2FFF7A5FD36E0DE483D
:101080008088A0F5D04104391DD1DB488079012842
:1010900004D1D9480088401EC01A83B2D649087AC4
:1010A000FFF78EFD1812FFF78EFDD8B2FFF78BFD0C
:1010B000D149487AFFF784FD2012FFF784FDE0B2A2
:1010C000FFF781FD12E0CC488079012804D1CA489D
:1010D0000088401EC01A83B2C749087A1946FFF734
:1010E0007AFDC549487A2146FFF775FDC248C079A7
:1010F000C349891E0880881C058030BD10B5044690
:10110000002C3DD1BC498871F02008804FF4A070BC
:10111000488008468088A0F51341413905D0B6487B
:101120008088A0F5D041043914D12C20B249C8716F
:101130002A2008722B20487208468088A0F5D041EA
:1011400004395CD14FF4A070AB4908804FF4F070C3
:10115000488054E0A8488088A0F50941893907D122
:101160002220A549C8714E2008724F20487246E0DF
:101170002220A149C87120200872212048723EE037
:1011800001209D4988714FF4A0700880F0204880AC
:1011900008468088A0F51341413907D12C20964993
:1011A000C8712A2008722B20487228E09248808853
:1011B000A0F5D04104390DD12C208F49C8712B20C6
:1011C00008722A2048724FF4F07008804FF4A07023
:1011D000488014E088488088A0F50941893907D102
:1011E00022208549C8714F2008724E20487206E0BF
:1011F00022208149C87121200872202048720020D5
:10120000FFF724FE10BD70B5044600267A48058815
:101210004088454378488088A0F5D041043916D1EC
:1012200075488079012812D10020734988712A20DD
:1012300008722B20487200210846FFF7F9FC0120B4
:101240006D4988712B2008722A20487203E0002122
:101250000846FFF7EDFCFFF7CEFC002602E06848E9
:101260000480761CAE42FAD370BD10B56548406963
:1012700040F48070634948610846806940F0080086
:1012800088610846806940F02000886108468069CE
:1012900040F0400088610846806940F480708861B1
:1012A0005948006820F00F00574908600846006858
:1012B00040F003000860554800685549084053490C
:1012C0000860084600685349084350490860081FF1
:1012D000006800F0FF20091F08600846006840F021
:1012E000BB1008604C48006800204B490860084665
:1012F000006840F0BB300860081F006820F07040B4
:10130000091F08600846006840F030400860434804
:10131000406820F47020414948600846406840F425
:10132000302048600846006820F00F00086008463A
:10133000006840F00B00086000204FF020418861F9
:10134000C861374908604FF02040806940F4805000
:101350004FF0204188610846806940F480408861F0
:101360000846806940F0100088610846C069C8617D
:101370000846C06940F00100C8610846C06940F4F1
:101380007060C86126480068C1F81C0124480068E4
:10139000C1F81C010846D0F81C0140F44070C1F8A7
:1013A0001C010846806940F0010088614FF032005E
:1013B000FFF77AF901210020FFF70DFC3220FFF73B
:1013C00073F90020FFF70CFC0B49888008468088E1
:1013D000FF280ADB08468088A0F57F41FF3904D04A
:1013E00005488088B0F5134F63D1D320FFF7E8FBA1
:1013F000FFF7EDFB16E00000E000002014000020E5
:101400000008006C00100240000C01400414014070
:1014100000F0FF00BB0B00BB04180140002001409E
:101420001C0100A0FFF7D3FBFFF7D1FBFE4988802A
:10143000084680884FF6FF7101EA0020FA4988804B
:10144000FFF7C5FBF84989880843F74988800846B3
:101450008088A0F5134141391BD0BF20FFF7B0FBB6
:10146000FFF7B5FBFFF7B3FBFFF7B1FBFFF7AFFBF0
:10147000ED498880084680884FF6FF7101EA002018
:10148000E9498880FFF7A3FBE74989880843E649D3
:101490008880E5488088A0F51341413909D0E248A9
:1014A0008088A0F5D041043903D049F24130DE49AB
:1014B0008880DD488188DDA002F09EFADA488088C5
:1014C000A0F5134141397CD1CF20FFF779FB0020F3
:1014D000FFF779FBC120FFF776FB3020FFF773FBA6
:1014E000ED20FFF76DFB6420FFF76DFB0320FFF796
:1014F0006AFB1220FFF767FB8120FFF764FBE820FF
:10150000FFF75EFB8520FFF75EFB1020FFF75BFB1C
:101510007A20FFF758FBCB20FFF752FB3920FFF76B
:1015200052FB2C20FFF74FFB0020FFF74CFB342031
:10153000FFF749FB0220FFF746FBF720FFF740FBD0
:101540002020FFF740FBEA20FFF73AFB0020FFF7DF
:101550003AFB0020FFF737FBC020FFF731FB1B20D1
:10156000FFF731FBC120FFF72BFB0120FFF72BFB1F
:10157000C520FFF725FB3020FFF725FB3020FFF7C4
:1015800022FBC720FFF71CFBB720FFF71CFB362010
:10159000FFF716FB4820FFF716FB3A20FFF710FB7A
:1015A0005520FFF710FBB120FFF70AFB0020FFF7E3
:1015B0000AFB1A20FFF707FBB620FFF701FB0A2002
:1015C00000E099E0FFF7FFFAA220FFF7FCFAF22013
:1015D000FFF7F6FA0020FFF7F6FA2620FFF7F0FAF9
:1015E0000120FFF7F0FAE020FFF7EAFA0F20FFF7FB
:1015F000EAFA2A20FFF7E7FA2820FFF7E4FA0820A2
:10160000FFF7E1FA0E20FFF7DEFA0820FFF7DBFA1A
:101610005420FFF7D8FAA920FFF7D5FA4320FFF7A7
:10162000D2FA0A20FFF7CFFA0F20FFF7CCFA0020FA
:10163000FFF7C9FA0020FFF7C6FA0020FFF7C3FA48
:101640000020FFF7C0FAE120FFF7BAFA0020FFF709
:10165000BAFA1520FFF7B7FA1720FFF7B4FA0720F8
:10166000FFF7B1FA1120FFF7AEFA0620FFF7ABFA49
:101670002B20FFF7A8FA5620FFF7A5FA3C20FFF72A
:10168000A2FA0520FFF79FFA1020FFF79CFA0F201F
:10169000FFF799FA3F20FFF796FA3F20FFF793FAFA
:1016A0000F20FFF790FA2B20FFF78AFA0020FFF7B0
:1016B0008AFA0020FFF787FA0120FFF784FA3F201B
:1016C000FFF781FA2A20FFF77BFA0020FFF77BFA69
:1016D0000020FFF778FA0020FFF775FAEF20FFF7F8
:1016E00072FA1120FFF76CFA7820FEF7DDFF29204F
:1016F000FFF766FA01F018BA4B488088A0F5D04190
:1017000004397CD11120FFF75BFA1420FEF7CCFFDF
:10171000D020FFF755FA0720FFF755FA4220FFF7D0
:1017200052FA1D20FFF74FFAD120FFF749FA0020A7
:10173000FFF749FA1A20FFF746FA0920FFF743FAA4
:10174000D220FFF73DFA0120FFF73DFA2220FFF7F4
:101750003AFAC020FFF734FA1020FFF734FA3B20A2
:10176000FFF731FA0020FFF72EFA0220FFF72BFADD
:101770001120FFF728FAC520FFF722FA0320FFF710
:1017800022FAC820FFF71CFA0020FFF71CFA2520D8
:10179000FFF719FA2120FFF716FA0520FFF713FAD1
:1017A0000020FFF710FA0A20FFF70DFA6520FFF777
:1017B0000AFA2520FFF707FA7720FFF704FA5020EE
:1017C000FFF701FA0F20FFF7FEF90020FFF7FBF902
:1017D000F820FFF7F5F90120FFF7F5F9FE20FFF7F4
:1017E000EFF90020FFF7EFF90220FFF7ECF92020D6
:1017F000FFF7E6F93620FFF7E3F9082000E038E0CC
:10180000FFF7E1F93A20FFF7DBF95520FFF7DBF9A5
:101810002B20FFF7D5F90020FFF7D5F90020FFF7BF
:10182000D2F901200AE00000E0000020204C4344EF
:101830002049443A25780D0A00000000FFF7C3F95B
:101840003F20FFF7C0F92A20FFF7BAF90020FFF781
:10185000BAF90020FFF7B7F90120FFF7B4F9DF204C
:10186000FFF7B1F97820FEF71FFF2920FFF7A8F94D
:1018700040E7FE488088A0F5134125397ED147F620
:10188000F001E520FFF7A7F94FF480710120FFF781
:10189000A2F94FF4E0610220FFF79DF941F2300117
:1018A0000320FFF798F900210420FFF794F940F294
:1018B00002210820FFF78FF900210920FFF78BF99B
:1018C00000210A20FFF787F900210C20FFF783F998
:1018D00000210D20FFF77FF900210F20FFF77BF992
:1018E00000211020FFF777F907211120FFF773F986
:1018F00000211220FFF76FF900211320FFF76BF989
:1019000000210720FFF767F941F290611020FFF7EF
:1019100062F940F227211120FFF75DF99D21122085
:10192000FFF759F94FF4C8511320FFF754F9252157
:101930002920FFF750F90D212B20FFF74CF9072143
:101940003020FFF748F940F203313120FFF743F927
:1019500003213220FFF73FF940F206213520FFF73F
:101960003AF908213620FFF736F940F206413720D0
:10197000FFF731F94FF44171382000E057E0FFF7ED
:101980002AF907213920FFF726F940F202613C20AD
:10199000FFF721F908213D20FFF71DF90021502014
:1019A000FFF719F9EF215120FFF715F90021522017
:1019B000FFF711F940F23F115320FFF70CF94FF4F4
:1019C00027416020FFF707F901216120FFF703F9A4
:1019D00000216A20FFF7FFF800218020FFF7FBF8C5
:1019E00000218120FFF7F7F800218220FFF7F3F8AC
:1019F00000218320FFF7EFF800218420FFF7EBF8A8
:101A000000218520FFF7E7F810219020FFF7E3F889
:101A10004FF4C0619220FFF7DEF840F23311072047
:101A2000FFF7D9F822210020FFF7D5F862E68F48AA
:101A30008088A0F5134128397ED141F28F01EC2036
:101A4000FFF7C9F841F23421EF20FFF7C4F84FF453
:101A500080710120FFF7BFF84FF4E0610220FFF72B
:101A6000BAF841F230010320FFF7B5F80021042055
:101A7000FFF7B1F840F202210820FFF7ACF800218F
:101A80000920FFF7A8F800210A20FFF7A4F8012198
:101A90000C20FFF7A0F800210D20FFF79CF8002193
:101AA0000F20FFF798F800211020FFF794F8072186
:101AB0001120FFF790F800211220FFF78CF8002189
:101AC0001320FFF788F801210720FFF784F8322060
:101AD000FEF7EAFD41F290411020FFF77CF840F25A
:101AE00027211120FFF777F83220FEF7DDFD8A214C
:101AF0001220FFF770F83220FEF7D6FD4FF4D051D8
:101B00001320FFF768F806212920FFF764F80D215C
:101B10002B20FFF760F83220FEF7C6FD00212020C1
:101B2000FFF759F800212120FFF755F83220FEF782
:101B3000BBFD0021302000E074E0FFF74CF840F2DC
:101B400004613120FFF747F840F205313220FFF7FA
:101B500042F800213520FFF73EF840F609413620D3
:101B6000FFF739F84FF401713720FFF734F840F2EE
:101B700001313820FFF72FF840F207713920FFF7C5
:101B80002AF800213C20FFF726F840F60A213D20E4
:101B9000FFF721F83220FEF787FD00215020FFF7E4
:101BA0001AF8EF215120FFF716F800215220FFF715
:101BB00012F840F23F115320FFF70DF84FF4274180
:101BC0006020FFF708F801216120FFF704F80021E9
:101BD0006A20FFF700F800218020FEF7FCFF0021BB
:101BE0008120FEF7F8FF00218220FEF7F4FF00219C
:101BF0008320FEF7F0FF00218420FEF7ECFF002198
:101C00008520FEF7E8FF10219020FEF7E4FF4FF457
:101C1000C0619220FEF7DFFF40F233110720FEF78C
:101C2000DAFF67E511488088A0F5134120397DD19E
:101C30000846FEF7D0FF4FF480710120FEF7CBFF7E
:101C40004FF4E0610220FEF7C6FF41F230010320AD
:101C5000FEF7C1FF00210420FEF7BDFF40F2022184
:101C60000820FEF7B8FF0021092001E0E000002075
:101C7000FEF7B1FF00210A20FEF7ADFF01210C2085
:101C8000FEF7A9FF00210D20FEF7A5FF00210F2080
:101C9000FEF7A1FF3220FEF707FD40F201110720F9
:101CA000FEF799FF3220FEF7FFFC4FF4865110201B
:101CB000FEF791FF07211120FEF78DFF4FF4887189
:101CC0001220FEF788FF4FF430611320FEF783FFE8
:101CD00000212920FEF77FFF44F210012B20FEF7A0
:101CE0007AFF00215020FEF776FFEF215120FEF70A
:101CF00072FF00215220FEF76EFF40F23F11532089
:101D0000FEF769FF4FF41C516020FEF764FF0121CC
:101D10006120FEF760FF00216A20FEF75CFF0021D2
:101D20008020FEF758FF0021812000E030E0FEF720
:101D300052FF00218220FEF74EFF00218320FEF794
:101D40004AFF00218420FEF746FF00218520FEF790
:101D500042FF10219020FEF73EFF00219220FEF767
:101D60003AFF01219320FEF736FF4FF4887195204A
:101D7000FEF731FF00219720FEF72DFF002198206C
:101D8000FEF729FF40F273110720FEF724FFB1E4AC
:101D9000FE488088A0F5134131397DD141F214010C
:101DA000E720FEF718FF4FF480710120FEF713FFC4
:101DB0004FF400710220FEF70EFF41F238010320BC
:101DC000FEF709FF40F202210820FEF704FF002180
:101DD0000920FEF700FF00210A20FEF7FCFE00218B
:101DE0000C20FEF7F8FE00210D20FEF7F4FE002186
:101DF0000F20FEF7F0FE00211020FEF7ECFE072179
:101E00001120FEF7E8FE00211220FEF7E4FE00217B
:101E10001320FEF7E0FEC820FEF746FC41F2906179
:101E20001020FEF7D8FE40F227211120FEF7D3FE46
:101E30003220FEF739FC0C211220FEF7CCFE3220B6
:101E4000FEF732FC4FF400611320FEF7C4FE1121AF
:101E50002920FEF7C0FE0B212B20FEF7BCFE32200E
:101E6000FEF722FC00212020FEF7B5FE40F23F11D4
:101E70002120FEF7B0FE00213020FEF7ACFE4FF42B
:101E800083713120FEF7A7FE00213220FEF7A3FE6A
:101E90004FF40171352000E064E0FEF79CFE41F252
:101EA0000A613620FEF797FE40F207713720FEF7F1
:101EB00092FE4FF483713820FEF78DFE40F20771D9
:101EC0003920FEF788FE40F202413C20FEF783FEF7
:101ED00040F60F413D20FEF77EFE00215020FEF728
:101EE0007AFEEF215120FEF776FE00215220FEF708
:101EF00072FE40F23F115320FEF76DFE4FF41C516D
:101F00006020FEF768FE01216120FEF764FE0021DB
:101F10006A20FEF760FE00218020FEF75CFE0021B3
:101F20008120FEF758FE00218220FEF754FE00219A
:101F30008320FEF750FE00218420FEF74CFE002196
:101F40008520FEF748FE10219020FEF744FE4FF456
:101F5000C0619220FEF73FFE40F233110720FEF7EA
:101F60003AFE85E489488088A0F5A84108397DD1EA
:101F70004FF480710120FEF72EFE4FF4E061022045
:101F8000FEF729FE41F230010320FEF724FE002176
:101F90000420FEF720FE40F207210820FEF71BFE7A
:101FA00000210920FEF717FE00210A20FEF713FE8C
:101FB00000210C20FEF70FFE00210D20FEF70BFE86
:101FC00000210F20FEF707FE1420FEF76DFB41F203
:101FD000B0611020FEF7FFFD01211120FEF7FBFD8F
:101FE00001211720FEF7F7FD4FF49C711220FEF738
:101FF000F2FD4FF400611320FEF7EDFD09212920C9
:10200000FEF7E9FD09212A20FEF7E5FD0021A420C5
:10201000FEF7E1FD00215020FEF7DDFDEF2151200C
:10202000FEF7D9FD00215220FEF7D5FD40F23F1109
:102030005320FEF7D0FD4FF41C516020FEF7CBFD7E
:1020400001216120FEF7C7FD00216A20FEF7C3FDD4
:1020500000218020FEF7BFFD00218120FEF7BBFD9F
:1020600000218220FEF7B7FD002100E024E083205C
:10207000FEF7B1FD00218420FEF7ADFD0021852093
:10208000FEF7A9FD13219020FEF7A5FD0021922067
:10209000FEF7A1FD03219320FEF79DFD4FF488710B
:1020A0009520FEF798FD40F273110720FEF793FD8F
:1020B0003220FEF7F9FAB9E434488088A0F5A85137
:1020C000053965D10720FEF786FD3220FEF7ECFAD0
:1020D0004FF48E711220FEF77EFD0121A420FEF741
:1020E0007AFD0F210820FEF776FD08210A20FEF771
:1020F00072FD08210D20FEF76EFD40F207713020C1
:10210000FEF769FD07213120FEF765FD40F203610E
:102110003220FEF760FD4FF4E0613320FEF75BFDF7
:1021200040F202213420FEF756FD02213520FEF751
:1021300052FD41F60F713620FEF74DFD40F207715A
:102140003720FEF748FD00213820FEF744FD00212E
:102150003920FEF740FD40F207713A20FEF73BFDC3
:1021600000213B20FEF737FD07213C20FEF733FD21
:1021700000213D20FEF72FFD3220FEF795FA0121C8
:102180000720FEF728FD0121172002E0E0000020D3
:10219000AEE0FEF720FD3220FEF786FA4FF4BD5187
:1021A0001020FEF718FD40F217211120FEF713FD55
:1021B0004FF48F711220FEF70EFD4FF47061132063
:1021C000FEF709FD00212A20FEF705FD0A2129203E
:1021D000FEF701FD4FF49F711220FEF7FCFC002179
:1021E0005020FEF7F8FCEF215120FEF7F4FC00210F
:1021F0005220FEF7F0FC40F23F115320FEF7EBFCBB
:102200004FF41C516020FEF7E6FC01216120FEF72F
:10221000E2FC00216A20FEF7DEFC00218020FEF7B0
:10222000DAFC00218120FEF7D6FC00218220FEF797
:10223000D2FC00218320FEF7CEFC00218420FEF793
:10224000CAFC00218520FEF7C6FC13219020FEF772
:10225000C2FC4FF440719220FEF7BDFC0521932093
:10226000FEF7B9FC00219520FEF7B5FC0021972070
:10227000FEF7B1FC00219820FEF7ADFC4FF4807111
:102280000120FEF7A8FC4FF4E0610220FEF7A3FC5A
:1022900041F238010320FEF79EFC00210420FEF7E6
:1022A0009AFC00210C20FEF796FC00210F20FEF77F
:1022B00092FC00212020FEF78EFC00212120FEF759
:1022C0008AFC21210720FEF786FC1420FEF7ECF99A
:1022D00061210720FEF77FFC1420FEF7E5F940F2AC
:1022E00073110720FEF777FC1420FEF7DDF998E460
:1022F000FE488088A0F5354105397DD10846FEF7B6
:102300006AFC00210846FEF766FC00210846FEF73D
:1023100062FC00210846FEF75EFC0121A420FEF7C6
:102320005AFC1420FEF7C0F94FF41C516020FEF750
:1023300052FC40F202210820FEF74DFC4FF40571DB
:102340003020FEF748FC43F215713120FEF743FCC4
:1023500040F204613220FEF73EFC40F61661332065
:10236000FEF739FC42F211213420FEF734FC4FF421
:10237000A8513520FEF72FFC48F207513620FEF712
:102380002AFC41F207413720FEF725FC41F20341C8
:102390003820FEF720FC20213920FEF71CFC1A21F2
:1023A0009020FEF718FC00211020FEF714FC0721F6
:1023B0001120FEF710FC00211220FEF70CFC00217A
:1023C0001320FEF708FC1420FEF76EF94FF4E661C7
:1023D0001020FEF700FC40F237111120FEF7FBFB46
:1023E0001420FEF761F94FF4DC711220FEF7F3FBC5
:1023F0001420FEF759F900E083E04FF470611320D8
:10240000FEF7E9FB80212A20FEF7E5FB4821292081
:10241000FEF7E1FB1420FEF747F94FF4807101202D
:10242000FEF7D9FB4FF4E0610220FEF7D4FB41F246
:1024300038010320FEF7CFFB40F202210820FEF70F
:10244000CAFB00210A20FEF7C6FB00210C20FEF784
:10245000C2FB00210D20FEF7BEFB30210E20FEF74F
:10246000BAFB00215020FEF7B6FBEF215120FEF70A
:10247000B2FB00215220FEF7AEFB40F23F11532089
:10248000FEF7A9FB4FF41C516020FEF7A4FB0121CD
:102490006120FEF7A0FB00216A20FEF79CFB1121C2
:1024A0009020FEF798FB4FF4C0619220FEF793FB5B
:1024B00040F202419320FEF78EFB02219420FEF7AA
:1024C0008AFB1420FEF7F0F801210720FEF783FBBA
:1024D0001420FEF7E9F861210720FEF77CFB40F2AB
:1024E00073110720FEF777FB00212020FEF773FB16
:1024F00000212120FEF76FFB22210020FEF76BFB5D
:1025000012E37A488088A0F5454105397DD1084617
:10251000FEF761FB00210846FEF75DFB1420FEF785
:10252000C3F800210846FEF756FB00210846FEF7D7
:1025300052FB00210846FEF74EFB00210846FEF73D
:102540004AFB0121A420FEF746FB1420FEF7ACF85D
:102550004FF41C516020FEF73EFB40F606010820B8
:10256000FEF739FB40F203713020FEF734FB012106
:102570003120FEF730FB04213220FEF72CFB4FF414
:1025800081713320FEF727FB4FF440713420FEF7B2
:1025900022FB40F203113520FEF71DFB1F213620E0
:1025A000FEF719FB40F203713720FEF714FB0121FF
:1025B0003820FEF710FB04213920FEF70CFB152113
:1025C0009020FEF708FB4FF482611020FEF703FB1A
:1025D00040F247211120FEF7FEFA4FF4DE7112207F
:1025E000FEF7F9FA4FF460611320FEF7F4FA782051
:1025F000FEF75AF84FF480710120FEF7ECFA4FF421
:1026000000710220FEF7E7FA00E050E041F23001ED
:102610000320FEF7E0FA08210A20FEF7DCFA002189
:102620000C20FEF7D8FA20210E20FEF7D4FA002164
:102630000F20FEF7D0FA00212020FEF7CCFA00216F
:102640002120FEF7C8FA3D212A20FEF7C4FA142003
:10265000FEF72AF82D212920FEF7BDFA002150208F
:10266000FEF7B9FA4DF2EF015120FEF7B4FA00215E
:102670005220FEF7B0FA40F23F115320FEF7ABFABA
:1026800000216120FEF7A7FA00216A20FEF7A3FAD5
:102690004FF440719220FEF79EFA05219320FEF739
:1026A0009AFA4FF480710720FEF795FA3CE20F4842
:1026B0008088A0F5094189397ED101210020FEF7EB
:1026C0008AFA4AF6A4010320FEF785FA00210C20BD
:1026D000FEF781FA40F60C010D20FEF77CFA4FF46C
:1026E0002C510E20FEF777FAB02101E0E000002027
:1026F0001E20FEF770FA42F63F310120FEF76BFA1A
:102700004FF4C0610220FEF766FA00211020FEF7A8
:1027100062FA46F278011120FEF75DFA00210520E9
:10272000FEF759FA00210620FEF755FA4EF61C7105
:102730001620FEF750FA03211720FEF74CFA40F25C
:1027400033210720FEF747FA00210B20FEF743FA5A
:1027500000210F20FEF73FFA00214120FEF73BFA4F
:1027600000214220FEF737FA00214820FEF733FA15
:1027700040F23F114920FEF72EFA00214A20FEF7D1
:102780002AFA00214B20FEF726FA4FF46F4144202D
:10279000FEF721FA00214520FEF71DFA40F23F1115
:1027A0004620FEF718FA40F207713020FEF713FAC0
:1027B0004FF40171312000E03FE0FEF70CFA4FF4D6
:1027C00001713220FEF707FA40F202513320FEF782
:1027D00002FA40F207513420FEF7FDF94FF401717F
:1027E0003520FEF7F8F94FF401713620FEF7F3F9C2
:1027F00040F202513720FEF7EEF940F202313A2062
:10280000FEF7E9F940F202313B20FEF7E4F900213E
:102810002320FEF7E0F900212420FEF7DCF94FF435
:1028200000412520FEF7D7F900214F20FEF7D3F90C
:1028300000214E20FEF7CFF976E1F7488088A0F519
:102840008A4131397ED101210020FEF7C4F90A20E6
:10285000FDF72AFF41F228611020FEF7BCF90E2196
:102860001220FEF7B8F940F639211320FEF7B3F92C
:102870000A20FDF719FF40211120FEF7ACF9502185
:102880001520FEF7A8F90A20FDF70EFF1E211220E1
:10289000FEF7A1F90A20FDF707FF4FF4B151102010
:1028A000FEF799F942F639211320FEF794F90A2030
:1028B000FDF7FAFE4FF480710120FEF78CF94FF41A
:1028C00040710220FEF787F941F238010320FEF73C
:1028D00082F940F202210820FEF77DF908210A2042
:1028E000FEF779F900213020FEF775F940F2024138
:1028F0003120FEF770F94FF483713220FEF76BF947
:1029000040F203513320FEF766F94FF48271342010
:10291000FEF761F940F201313520FEF75CF940F233
:1029200007713620FEF757F940F205313720FEF7E0
:1029300052F94FF402713820FEF74DF940F60B7151
:10294000392000E03BE0FEF746F902214120FEF786
:1029500042F94FF41C516020FEF73DF9012161203E
:10296000FEF739F94FF404719020FEF734F94FF473
:1029700085719220FEF72FF904219320FEF72BF9A1
:102980004FF48071A020FEF726F901210720FEF701
:1029900022F921210720FEF71EF923210720FEF747
:1029A0001AF933210720FEF716F940F233110720F8
:1029B000FEF711F90021A020FEF70DF9B4E09648CA
:1029C0008088A0F58A413539F8D130211520FEF7ED
:1029D00002F910219A20FEF7FEF820211120FEF7BF
:1029E000FAF843F228411020FEF7F5F802211220F0
:1029F000FEF7F1F841F238011320FEF7ECF8282039
:102A0000FDF752FE12210846FEF7E5F82820FDF7F3
:102A10004BFE43F220411020FEF7DDF843F238016F
:102A20001320FEF7D8F84620FDF73EFE00213020A7
:102A3000FEF7D1F840F202413120FEF7CCF840F227
:102A400007313220FEF7C7F84FF441713320FEF70B
:102A5000C2F804213420FEF7BEF840F201413520CF
:102A6000FEF7B9F840F207713620FEF7B4F840F2ED
:102A700005313720FEF7AFF84FF4C2613820FEF77A
:102A8000AAF84FF4C2613920FEF7A5F84FF480711F
:102A90000120FEF7A0F84FF440710220FEF79BF8EA
:102AA00041F230010320FEF796F840F608010820B5
:102AB000FEF791F808210A20FEF78DF84FF41C511B
:102AC0006020FEF788F801216120FEF784F84FF4BA
:102AD0009F719020FEF77FF84FF480719220FEF7EF
:102AE0007AF84FF480719320FEF775F84FF4405157
:102AF000A020FEF770F81021A320FEF76CF801214A
:102B00000720FEF768F821210720FEF764F823214B
:102B10000720FEF760F833210720FEF75CF840F24B
:102B200033110720FEF757F80020FEF7E7FA0120DF
:102B30003A4908604FF6FF70FEF765FB10BD2DE9BE
:102B4000FC4F05460E4617469846DDF82C900020AF
:102B5000019031488088A0F5D041043929D12E4810
:102B60008079012825D1AB4635462B480088C01B0B
:102B7000401E86B2474628480088A0EB0B00401E46
:102B80001FFA80F80020244988712A2008722B201F
:102B9000487243463A4631462846CDF80090FFF742
:102BA000CEFF01201C4988712B2008722A20487210
:102BB0001CE0781B401C80B20190344614E0214692
:102BC0002846FEF735F8FEF716F84FF0000A06E043
:102BD0004846FDF7F8FF0AF101001FFA80FA019854
:102BE0008245F5DB601C84B24445E8DDBDE8FC8F1E
:102BF0002DE9F84F07460D4690469946DDF828B076
:102C0000A8EB0700401C80B20090A9EB0500401C17
:102C10001FFA80FA002419E0E000002080812142A0
:102C2000281981B23846FEF703F8FDF7E4FF0026C5
:102C300007E004FB0A603BF81000FE490880701CA6
:102C400086B200988642F4DB601C84B25445E7DB10
:102C5000BDE8F88F2DE9FF4F84B081468A460020F9
:102C6000039002900698A0EB09050798A0EB0A06CE
:102C7000CDF80490CDF800A0002D01DD012705E07E
:102C80000DB9002702E04FF0FF376D42002E02DD44
:102C90004FF0010806E016B94FF0000802E04FF0CF
:102CA000FF387642B54201DD2C4600E034464FF055
:102CB000000B21E0009A91B2019A90B2FEF7B2F9AE
:102CC0000398284403900298304402900398A0424D
:102CD00005DD0398001B0390019838440190029889
:102CE000A04205DD0298001B02900098404400902D
:102CF0000BF101001FFA80FB601C8345DADD08B090
:102D0000BDE8F08FF0B504460D4616461F462B462B
:102D1000324629462046FFF79DFF3B46224629467C
:102D20002046FFF797FF3B46324639462046FFF7DD
:102D300091FF3B46324629463046FFF78BFFF0BDF8
:102D40002DE9F04306460F469046002445460320F1
:102D5000A0EB48093CE07A1B91B2321990B2FEF721
:102D600061F93A1B91B2721990B2FEF75BF93A1908
:102D700091B2721990B2FEF755F97A1991B23219DF
:102D800090B2FEF74FF97A1991B2321B90B2FEF76A
:102D900049F93A1991B2721B90B2FEF743F97A1BC6
:102DA00091B2321B90B2FEF73DF93A1B91B2721B01
:102DB00090B2FEF737F9641CB9F1000F03DAA000F6
:102DC000801D814404E0601B80000A3081446D1E38
:102DD000AC42C0DDBDE8F0832DE9F84F05460F4653
:102DE00090461E4600979448B0F80090A8F1200045
:102DF00000F0FF080A9800284ED1002449E00C2E6C
:102E000007D108EB48008D4901EB800010F804A0C1
:102E100004E08B4800EB081010F804A04FF0000B02
:102E200031E01AF0800F03D08348A0F8009003E04F
:102E3000844800888049088039462846FEF7F2F821
:102E40004FEA4A604FEA106A781C87B27E480088D1
:102E5000A84204DC7848A0F80090BDE8F88F0098FC
:102E6000381AB0420BD1009F681C85B276480088A2
:102E7000A84203DC7048A0F80090EEE706E00BF1F2
:102E8000010000F0FF0BBBF1080FCADB00BF601CA4
:102E9000C4B2B442B3DB44E0002440E00C2E07D1BE
:102EA00008EB4800654901EB800010F804A004E03D
:102EB000634800EB081010F804A04FF0000B28E066
:102EC0001AF0800F03D039462846FEF7ABF84FEAD8
:102ED0004A604FEA106A781C87B25B484088A84273
:102EE00003DC5548A0F80090B7E70098381AB042C4
:102EF0000BD1009F681C85B253480088A84203DCB0
:102F00004D48A0F80090A8E706E00BF1010000F0A2
:102F1000FF0BBBF1080FD3DB00BF601CC4B2B4428F
:102F2000BCDB4548A0F8009000BF96E710B502460C
:102F3000012000E050430B00A1F10104E1B2F9D1FE
:102F400010BD2DE9FF4F81B0074691461E460E9DEC
:102F50004FF0000A002439E0301B401EC1B20A20A5
:102F6000FFF7E4FFB9FBF0F00A21B0FBF1F201FB3F
:102F70001208BAF1000F16D1701EA04213DDB8F18D
:102F8000000F0ED10020AB4605EBDB71491001FBB1
:102F90000471009088B22B4620220299FFF71CFF93
:102FA00012E04FF0010A0020AB4605EBDB7149103F
:102FB00001FB0471009088B208F13001CAB22B46BF
:102FC0000299FFF709FF00BF601CC4B2B442C3DB23
:102FD00005B0BDE8F08F2DE9FF4F82B0064692465E
:102FE0001F46DDE90F480020019000255BE0781BBB
:102FF000401EC1B20A20FFF799FFBAFBF0F00A2188
:10300000B0FBF1F201FB12090198A8BB781EA8429F
:1030100035DDB9F1000F30D118F0800F1CD008F069
:103020000100A34604EBDB71491001FB0561009030
:1030300088B20BE00008006C1400002096410008E4
:103040000A46000816000020E00000202346302237
:103050000399FFF7C1FE0EE008F00100A34604EB60
:10306000DB71491001FB0561009088B223462022E4
:103070000399FFF7B1FE14E001E00120019008F090
:103080000100A34604EBDB71491001FB05610090D0
:1030900088B209F13001CAB223460399FFF79CFEBA
:1030A00000BF681CC5B2BD42A1DB06B0BDE8F08F11
:1030B0002DE9F84704460D4690469946DDE9096733
:1030C00004F0FF0A08EB04001FFA80F809EB050082
:1030D0001FFA80F916E0444502DB5446A81985B270
:1030E0004D4500DB14E0002000903A783346294635
:1030F0002046FFF771FE304606EBD07104EB61010C
:103100008CB27F1C38787E2802DC38782028E2DAFE
:1031100000BFBDE8F88700009748806940F00800CC
:103120009549886195480068954908409349086029
:103130000846006893490843904908608F48083062
:10314000006840F440608D4908310860704710B550
:103150008A48006820F47040884908600846006882
:1031600040F4405008600120874908608749C1F851
:10317000A8014FF00400FDF77CFA002082490860A6
:103180004FF00400FDF775FA00208049C1F8A8014E
:1031900010BD10B57948006820F470407749086088
:1031A0000846006840F440500860002078490860F4
:1031B0007649C1F8AC014FF00400FDF75AFA01203E
:1031C000734908607149C1F8AC014FF00400FDF784
:1031D00050FA10BD10B500246848006820F4704013
:1031E000664908600846006840F400400860012015
:1031F00065490860FDF73DFA01206449C1F8A8015E
:10320000FDF737FA07E0601CC4B2FA2C03DDFFF7C4
:10321000C0FF012010BD5F4800680028F3D15C4961
:10322000086000BFF6E710B5002059490860534810
:10323000006820F47040514908600846006840F476
:10324000405008604FF000005049C1F8AC014FF009
:103250000200FDF70EFA01204D4908604FF0020010
:10326000FDF707FA00204949C1F8A80110BD10B5C3
:103270000020474908604148006820F470403F49F9
:1032800008600846006840F4405008604FF00100B4
:103290003E49C1F8AC014FF00200FDF7EAF9012008
:1032A0003B4908604FF00200FDF7E3F90020374981
:1032B000C1F8A80110BD70B504463048006820F47C
:1032C00070402E4908600846006840F4405008608D
:1032D00000202F49086005461AE0E0092A490860E5
:1032E0004FEA44604FEA10644FF00200FDF7C1F965
:1032F00001202649C1F8A8010220FDF7BAF90020F3
:10330000234908604FF00200FDF7B3F9681CC5B20D
:10331000082DE2DB70BD70B5054600241748006833
:1033200020F47040154908600846006840F40040E9
:103330000860002616E00020154908604FF00200E2
:10334000FDF797F901201149C1F8A8016006040EA4
:103350001048006808B1601CC4B20120FDF789F96B
:10336000701CC6B2082EE6DB15B9FFF780FF01E03E
:10337000FFF759FF204670BD00100240040C0140C9
:10338000FF00F0FF00330300AC81214200802142A6
:10339000A88121422C81214270B506460C46154673
:1033A000FFF7D5FE3046FFF786FFFFF713FF2046F5
:1033B000FFF781FFFFF70EFF2846FFF77CFFFFF7BF
:1033C00009FFFFF7E6FE70BD70B504460D462A46BC
:1033D00021465020FFF7E0FF70BD70B504460D4652
:1033E0000026FFF7B4FE2046FFF765FFFFF7F2FE69
:1033F00006462846FFF75FFFFFF7ECFE0646FFF79D
:10340000A6FE611CC8B2FFF756FFFFF7E3FE0646B3
:103410000020FFF780FF0646FFF7BBFE304670BD79
:1034200070B50446002521465020FFF7D6FF05461B
:10343000284670BD70B505460C4600262846FFF7A5
:10344000EFFF064646EA04012846FFF7BDFF70BDC0
:1034500010B51420FFF7E4FF044614F0030F03D166
:1034600003211420FFF7E6FF10BD70B505460C469A
:1034700000262846FFF7D4FF064626EA0401284620
:10348000FFF7A2FF70BD10B50446412C26D10821DC
:103490000846FFF7EAFF3D211120FFF795FF86213F
:1034A0001720FFF791FF7F212620FFF78DFF1E21B8
:1034B0002D20FFF789FF00212C20FFF785FF8D21AC
:1034C0002A20FFF781FF3E212B20FFF77DFF4FF4DD
:1034D0007A70FDF7CEF8FFF7BBFF01E0012010BDC9
:1034E0000020FCE710B503211420FFF7BEFF10BD3C
:1034F00010B50120FE4908604FF00A00FDF7D4F82E
:103500000020FC49C1F884010A20FDF7CDF8012014
:10351000F74908604FF00A00FDF7ABF80F210120D2
:10352000FFF752FF0F210120FFF74EFF0A20FDF7A2
:10353000A0F83D211120FFF747FF1E212D20FFF7A6
:1035400043FF00212C20FFF73FFF8D212A20FFF7AA
:103550003BFF3E212B20FFF737FF40211520FFF7CF
:1035600033FF002010BD10B5FFF7C2FFFFF7BAFF11
:103570000220FDF799F8FFF76BFF4120FFF783FF6B
:1035800010BD10B5FFF7B4FFFFF7ACFF0220FDF749
:103590008BF8FFF75DFF10BD2DE9FE4F064688460C
:1035A00091469A46DDF830B002200290002001904A
:1035B00000900C2E06D00E2E09D112200190102062
:1035C000009005E0772001903020009000E000BFDF
:1035D00000BF019840F080010220FFF7F5FE802136
:1035E0000420FFF742FF00210120FFF7EDFE8021BC
:1035F0000A20FFF71FFF002506E018F80510092034
:10360000FFF7E2FE681C85B24D45F6DB314601202E
:10361000FFF7DAFE0C2E03D180210D20FFF70AFF01
:103620004FF4FA6500BF0420FFF7FAFE0446681E57
:1036300085B22DB114F0010F02D100980442F2D0EE
:1036400080210D20FFF711FF002D37D00620FFF756
:10365000E7FE10F01B0F2FD10020029001982040B0
:1036600010F0010F01D0012002900C2E26D10A206B
:10367000FFF7D6FE04460C20FFF7D2FE00F0070746
:103680002FB1601E07EBC0008BF8000003E0E006DE
:10369000000E8BF8000004B90124122C00DD122466
:1036A000002506E00920FFF7BBFE0AF80500681CAC
:1036B00085B2A542F6DB01E00220029080210C20B9
:1036C000FFF7B8FE00210120FFF77EFE0298BDE85B
:1036D000FE8F70B588B005460C4608210846FFF7F6
:1036E000C4FE07210D20FFF76FFE03211420FFF712
:1036F000A1FE8DF8085007A802AB012202A9009094
:103700000C20FFF749FF064656B99DF81C0010280B
:1037100006D19DF8080020709DF80900607000E057
:103720000226304608B070BDF0B587B005460027C8
:1037300008210846FFF799FE00210D20FFF744FEFF
:1037400080210E20FFF791FE93208DF804002020A9
:103750008DF8050006A801AB022201A900900C20FB
:10376000FFF71AFF064686B9002407E001A8005DAE
:10377000285501A8005D4740601CC4B2042CF5DB4D
:1037800001A8005DB84200D0022680210E20FFF77C
:1037900051FE304607B0F0BD2DE9F041074688469E
:1037A000154604210520FFF760FE00210120FFF7E8
:1037B0000BFE80210A20FFF73DFE002405E0395D65
:1037C0000920FFF701FE601CC4B24445F7DB03216A
:1037D0000120FFF7F9FDFF2400BF0520FFF720FEC1
:1037E0000646601EC4B214B116F0040FF5D02220B4
:1037F000FFF716FE28702120FFF712FE6870BDE863
:10380000F08170B588B0054693208DF808007020CF
:103810008DF8090000208DF80E0000240BE0295DD2
:1038200002AAA01C11549DF80E00295D48408DF895
:103830000E00601CC4B2042CF1DB0DF10F02072155
:1038400002A8FFF7A9FF08210846FFF70EFE07A808
:1038500002AB092202A900900C20FFF79DFE06464C
:103860002EB99DF81C00182801D1002600E0022680
:10387000304608B070BD2DE9F04188B004460D46D1
:1038800016461F468DF808408DF809503068CDF86F
:103890000A00B088ADF80E003868049007A802ABA3
:1038A0000C2202A900900E20FFF776FE8046B8F1A8
:1038B000000F05D10820FFF7B3FD10F0080F01D16C
:1038C0004FF00208404608B0BDE8F081F0B587B07F
:1038D00005460E4630208DF804008DF805500DF198
:1038E0000602022101A8FFF757FF06A801AB03E07B
:1038F0008481214200802142042201A900900C20F1
:10390000FFF74AFE07466FB99DF81800902809D1C5
:10391000002404E001A8005D3055601CC4B2102CE6
:10392000F8DB00E00227384607B0F0BDF0B587B0FD
:1039300006460F46A0208DF804008DF805600DF1B5
:103940000602022101A8FFF727FF06A801AB042207
:1039500001A900900C20FFF71FFE05464DB99DF808
:103960001800042805D19DF8040000F00F000A2873
:1039700000D0022515BB002404E0385D01A90855DC
:10398000601CC4B2102CF8DB05AA102101A8FFF7B7
:1039900003FF06A801AB122201A900900C20FFF73B
:1039A000FBFD05464DB99DF81800042805D19DF88A
:1039B000040000F00F000A2800D00225284607B0B6
:1039C000F0BD10B588B050208DF8080000208DF8AB
:1039D00009000DF10A02022102A8FFF7DDFE07A887
:1039E00002AB042202A900900C20FFF7D5FD04468B
:1039F000204608B010BD70470FB4044910B503AAA3
:103A0000029800F0C7F810BC5DF814FB100000200D
:103A10002DE9F0410E460446002020622046E16870
:103A2000884730B3252805D0D4E901219047206A82
:103A3000401CF2E7E168204600278847050018D0BF
:103A4000A5F14100192802D820354FF4006732460D
:103A5000294620462760FCF7A5FB40B1012804D089
:103A6000F61D26F007060836D8E7361DD6E72846A5
:103A7000DAE7206ABDE8F08170B504460D462146BC
:103A80001068AFF300802188090502D5104A7A44F6
:103A900002E00F4A7A440E32002104F1240307E0C9
:103AA00000F00F064FEA1010965D5E5401F101011F
:103AB0000028F5D103462078000704D5702D02D0E8
:103AC00009B1113202232046BDE8704000F006B86B
:103AD0006811000070477047704770472DE9F04744
:103AE0000D4699469246044600F12408016888066E
:103AF00004D5E06921F01001216000E00120A84216
:103B000002DDA0EB050700E00027A16907EB050235
:103B100002EB0900A1EB0000A0612078C00602D4EE
:103B20002046AFF30080002608E0D4E901211AF80E
:103B300006009047206A401C761C20624E45F4DB4C
:103B40002078C0060AD52046AFF3008006E0D4E90D
:103B5000012130209047206A401C2062381EA7F1C6
:103B60000107F4DC07E0D4E9012118F805009047CB
:103B7000206A401C2062281EA5F10105F3DC2046C6
:103B8000AFF300802078000602D50220BDE8F08760
:103B90000120FBE7074B70B50D467B4400F011F8A0
:103BA0000446284600F020F810B14FF0FF3070BDF9
:103BB000204670BD39CEFFFF01694A1C02610878BA
:103BC000704700B58FB0CDE901310021059105495D
:103BD0007944CDE9031011466846FFF719FF0FB08D
:103BE00000BD0000E5FFFFFF007B00F08000704794
:103BF000754600F029F8AE4605006946534620F0A8
:103C00000700854618B020B5FCF7FCFABDE8204057
:103C10004FF000064FF000074FF000084FF0000B88
:103C200021F00701AC46ACE8C009ACE8C009ACE83B
:103C3000C009ACE8C0098D4670470446AFF3008068
:103C40002046FCF7C1FA000000487047EC00002055
:103C500090EA010F48BF81F0004100F12E82421A24
:103C60003CBF801A89184FEAD0524FF07F4C1CEAB3
:103C7000410FA2EBD15318BF9CEA026F00F03B80CA
:103C80004FF0004C4CEA00204CEA012121FA03FCE1
:103C900010EB0C0C1ED202F1FF325FEA1C2040EB4D
:103CA000C25038BF70471CF07F0F4FEA400C18BF5E
:103CB000BCF17F4F38BF7047C3F12003994008BF64
:103CC00020F00100BCF17F4F38BF7047A0F1C04029
:103CD00000F0DDB94FEA3C00000A40EBC25028BFBB
:103CE0001CF0FF0F4FEA400CE6D018BFBCF17F4F2D
:103CF00038BF7047EAE79CEA026F05D010EA5C0F14
:103D000008BF00F00040704710B500F07AF900BF1E
:103D100064FBBE3E4FF47F0C1CEAD0121EBF1CEAAF
:103D2000D11392EA0C0F93EA0C0F00F0858090EA11
:103D3000010F48BF42F4807240F4000C41F40000CF
:103D40002CF07F4120F07F4000B58142A2EB0302BE
:103D50000FF2081CACEB504EC0F100009EF800E0E2
:103D60004FEA4E0E00FB0EFC38BF49004FEA2C1CF8
:103D700002F5FA020CFB0EF34FEACE1E4FEA112CAD
:103D80004FEAC1210EEB635E42EB22420EFB0CFCBC
:103D90004FEA1C5300FB03114FEA112C4FEA01318B
:103DA0000EFB0CFC4FEADC4C00FB0C11C14228BF9F
:103DB00009184CEB03335DF804EB10EB410143EBC6
:103DC000C250B2F57C0F38BF704729D512F0F00F02
:103DD0001CBF00F1C04000F00040704700818283AA
:103DE0008485868788898B8C8D8E8F91929395960A
:103DF00097999A9C9D9FA0A2A3A5A7A8AAACAEB094
:103E0000B2B3B5B7B9BCBEC0C2C5C7C9CCCED1D498
:103E1000D7D9DCDFE2E6E9ECF0F3F7FAFE000000C8
:103E20004FEA400C0CF1807CBCF17E4F28BF7047FC
:103E3000B0F1C04000F02BB990EA010F0CEAD113A9
:103E400048BF42F48072624538BF634507D213F41D
:103E50007F0F16D080EA010000F00040704710B5D7
:103E600000F0CFF8097EFC3E00F005B880EA0100C2
:103E700000F00040704780EA010000F0004000F0D0
:103E800006B912F47F0F04BF0248704780EA0100B0
:103E900000F0FDB80000C07FC10DD1F19E0206DB2D
:103EA0004FEA002343F0004323FA02F07047004238
:103EB00007D54FEA4001B1F1FE4F02D24FF00000AA
:103EC000704710B500F09DF849922480002070479B
:103ED0006FEA200070470000B0FA80F310FA03F296
:103EE000C3F19D030AD0D90501EB1220530638BF58
:103EF000704700F1010008BF20F00100704700008A
:103F00004FF47F0C1CEAD0121EBF1CEAD11392EAB8
:103F10000C0F93EA0C0F00F0478090EA010F48BFA6
:103F200042F480724FF0004C4CEA00204CEA012130
:103F300002EB0302A0FB0113A2F50002002918BF47
:103F400043F001035B0028BF4FEA330342EB2242F8
:103F50005FEA132C4CEBC2502EBFBCEB436FB2F5A3
:103F60007C0F70474FEA036CBCF1004F08BF20F094
:103F70000100B2F57C0F38BF70470BD582F0FF020D
:103F800012F5803FC8BF704700F1C040D8BF00F0B5
:103F90000040704700F5000C5FEA4C0C48BF7047CA
:103FA000B0F1C04000F073B890EA010F0CEAD113F1
:103FB00048BF42F48072624538BF634504D280EA4C
:103FC000010000F00040704710B500F01AF800BF83
:103FD0008900013E00F007B800F009B85FEA410C23
:103FE0005FEA1C6C08D080EA010000F050B85FEA7C
:103FF000400C5FEA1C6CF6D14FF00040A0F5800049
:1040000070470EF1020E2EF0030E5EF8044B2442B0
:1040100004D44FEA4102B2F17F4F11D84FEA400376
:10402000B3F17F4F0CD80ED14FEAD07CB2F17F4F65
:104030000CEB4C0C0CF1020C08BF4CEBD17C04E0F7
:104040004FF0080C01E04FEAD17C0CEB4C0324FA52
:1040500003F404F00704B4F1040C06D20EEB840C54
:10406000BDE810404CF0010C6047DFE80CF0070899
:1040700002024FF00040A0F5800010BD084642004B
:1040800018BFD2F1807288BF00F0004010BDFF2140
:1040900041EAD050C005704780F0004090EA010F1F
:1040A0007FF5DDAD81F0004100F007B890EA010F27
:1040B00048BF81F000413FF5D2AD421A04D882F0EA
:1040C0000042A0EB020011444FEAD0524FF07F4C67
:1040D0001CEA410FA2EBD15318BF9CEA026F4AD0F1
:1040E0004FF0004C4CEA00204CEA012121FA03FC7D
:1040F000B0EB0C0C0FD412F0FE0F36D05FEA4C0080
:104100001DD5001240EBC25038BF70471CF03F0F66
:1041100018BF70470BE0A2F101025FEA1C2040EBE0
:10412000C25038BF70471CF07F0F18BF7047C3F1F3
:104130002003994014BF401E20F001007047800802
:104140004FEA122308BF7047B0FA80FCA2EB0C02C2
:10415000CCF1280C60FA0CF093EA122F04BF00EBAC
:10416000C25070474FEAC3707047130A5FEADC1011
:1041700008BF7047F6E79CEA026F04D010EA5C0FB4
:1041800008BF0020704710B5FFF73BFF40DFF63E49
:1041900081F00040704700000000000000000000B7
:1041A0000000000000003F40000000000000000090
:1041B0003000400030004000000009000BC03D000E
:1041C0000BC03D00090018C024407FE02240318030
:1041D0000000180024C01B000D80324001800380C5
:1041E0001C4027401C800740004010006000000079
:1041F0000000000000000000000000001F802040C0
:1042000040200000402020401F80000000000900E6
:1042100006001F80060009000000040004003F8023
:104220000400040000000010006000000000000016
:10423000000004000400040004000400000000006A
:1042400000400000000000000000002001C0060047
:104250003800400000001F802040204020401F8088
:104260000000000010403FC000400000000018C0E7
:10427000214022402440184000001080204024406B
:1042800024401B80000002000D0011003FC00140CF
:1042900000003C80244024402440238000001F80F4
:1042A000244024403440038000003000200027C018
:1042B0003800200000001B802440244024401B8044
:1042C00000001C0022C0224022401F80000000008D
:1042D0000000084000000000000000000000046032
:1042E000000000000000000004000A00110020800F
:1042F0004040090009000900090009000000000011
:104300004040208011000A000400180020002340D3
:104310002400180000001F802040274029401F4033
:104320000000004007C039000F0001C000402040DD
:104330003FC0244024401B8000001F8020402040BC
:1043400020403080000020403FC0204020401F809F
:10435000000020403FC024402E4030C000002040DC
:104360003FC024402E00300000000F00108020408D
:1043700022403380020020403FC0040004003FC0C0
:104380002040204020403FC02040204000000060EE
:10439000202020203FC02000200020403FC024409B
:1043A0000B0030C0204020403FC020400040004073
:1043B00000C03FC03C0003C03C003FC000002040A4
:1043C0003FC00C4023003FC020001F802040204001
:1043D00020401F80000020403FC0244024001800DF
:1043E00000001F802140214020E01FA0000020404D
:1043F0003FC02440260019C0004018C0244024407B
:10440000224031800000300020403FC0204030007A
:10441000000020003F80004000403F80200020003E
:104420003E0001C0070038002000380007C03C00F3
:1044300007C038000000204039C0060039C02040C5
:1044400000002000384007C0384020000000304005
:1044500021C02640384020C00000000000007FE05E
:10446000402040200000000070000C00038000404D
:1044700000000000402040207FE00000000000001D
:10448000200040002000000000000010001000107C
:1044900000100010001000000000400000000000AC
:1044A0000000000002800540054003C000402000DD
:1044B0003FC004400440038000000000038004402B
:1044C00004400640000000000380044024403FC038
:1044D000004000000380054005400340000000004C
:1044E00004401FC0244024402000000002E005508A
:1044F00005500650042020403FC00440040003C083
:1045000000400000044027C00040000000000010F0
:104510000010041027E00000000020403FC00140D0
:10452000070004C00440204020403FC0004000403D
:10453000000007C0040007C0040003C000000440DE
:1045400007C00440040003C0004000000380044092
:10455000044003800000041007F00450044003806E
:104560000000000003800440045007F000100440E5
:1045700007C002400400040000000000064005409F
:10458000054004C00000000004001F8004400040FB
:104590000000040007800040044007C00040040001
:1045A000070004C0018006000400060001C00700E7
:1045B00001C006000000044006C0010006C004401F
:1045C00000000410071004E0018006000400000051
:1045D000044005C006400440000000000000040044
:1045E0007BE040200000000000000000FFF0000021
:1045F0000000000040207BE00400000000004000BC
:10460000800040002000200040000000000000006A
:10461000000000000000000000000000000000009A
:104620001FCC000C0000000000000000080030005B
:1046300060000800300060000000022003FC1E2023
:10464000022003FC1E200220000000000E181104AE
:104650003FFF10840C78000000000F0010840F381A
:1046600000C0077818840078000000780F8410C418
:1046700011240E9800E4008400080800680070000F
:10468000000000000000000000000000000000002A
:1046900007E0181820044002000000004002200437
:1046A000181807E0000000000000024002400180EE
:1046B0000FF0018002400240000000800080008076
:1046C0000FF800800080008000000001000D000E47
:1046D00000000000000000000000000000800080DA
:1046E000008000800080008000800000000C000C32
:1046F000000000000000000000000000000600189C
:1047000000600180060018002000000007F0080883
:1047100010041004080807F0000000000804080452
:104720001FFC000400040000000000000E0C101428
:104730001024104411840E0C000000000C1810040A
:104740001104110412880C700000000000E0032026
:10475000042408241FFC0024000000001F9810847B
:1047600011041104108810700000000007F0088880
:104770001104110418880070000000001C001000D3
:1047800010FC13001C001000000000000E38114443
:104790001084108411440E38000000000700088CBB
:1047A00010441044088807F00000000000000000DA
:1047B000030C030C000000000000000000000001DA
:1047C0000106000000000000000000000080014021
:1047D0000220041008081004000002200220022019
:1047E000022002200220022000000000100408081D
:1047F0000410022001400080000000000E001200A2
:10480000100C106C10800F00000003E00C1813E473
:10481000142417C4082807D000000004003C03C477
:104820001C40074000E4001C000410041FFC11049D
:10483000110411040E880070000003E00C1810042D
:104840001004100410081C10000010041FFC1004B9
:1048500010041004080807F0000010041FFC1104E5
:10486000110417C410040818000010041FFC1104E0
:10487000110017C010000800000003E00C1810041D
:10488000100410441C780040000010041FFC108429
:104890000080008010841FFC10040000100410042D
:1048A0001FFC1004100400000000000300011001B0
:1048B00010011FFE10001000000010041FFC110466
:1048C00003801464181C1004000010041FFC100462
:1048D000000400040004000C000010041FFC1F0072
:1048E00000FC1F001FFC1004000010041FFC0C043F
:1048F000030000E010181FFC100007F00808100467
:1049000010041004080807F0000010041FFC1084B5
:104910001080108010800F00000007F0081810248D
:104920001024101C080A07F2000010041FFC1104D8
:10493000110011C011300E0C000400000E1C1104F7
:104940001084108410441C3800001800100010045B
:104950001FFC100410001800000010001FF81004C5
:104960000004000410041FF8100010001E0011E0E5
:10497000001C007013801C0010001FC0103C00E0E1
:104980001F0000E0103C1FC000001004180C16347B
:1049900001C001C01634180C100410001C001304D0
:1049A00000FC13041C00100000000804101C10641C
:1049B000108413041C041018000000000000000004
:1049C0007FFE4002400240020000000030000C0068
:1049D00003800060001C0003000000004002400251
:1049E00040027FFE000000000000000000002000E8
:1049F00040004000400020000000000100010001D4
:104A00000001000100010001000100004000400021
:104A100020000000000000000000000000980124B9
:104A200001440144014400FC000410001FFC008804
:104A3000010401040088007000000000007000887C
:104A400001040104010400880000000000700088D7
:104A50000104010411081FFC0004000000F80144D7
:104A600001440144014400C80000000001040104A5
:104A70000FFC1104110411001800000000D60129D8
:104A80000129012901C90106000010041FFC00844E
:104A900001000100010400FC0004000001041904ED
:104AA00019FC0004000400000000000000030001E5
:104AB0000101190119FE0000000010041FFC002470
:104AC000004001B4010C01040000000010041004B7
:104AD0001FFC0004000400000000010401FC0104AC
:104AE000010001FC0104010000FC010401FC008440
:104AF00001000100010400FC0004000000F80104B2
:104B000001040104010400F80000010101FF008517
:104B1000010401040088007000000000007000889B
:104B200001040104010501FF00010104010401FC6D
:104B300000840104010001800000000000CC012479
:104B4000012401240124019800000000010001005B
:104B500007F80104010400000000010001F800044E
:104B600000040004010801FC000401000180017040
:104B7000000C001001600180010001F0010C003008
:104B800001C00030010C01F0010000000104018CA3
:104B900000740170018C01040000010101810171A8
:104BA000000E001801600180010000000184010C6A
:104BB000013401440184010C0000000000000000E9
:104BC000000001003EFC4002400200000000000026
:104BD0000000FFFF00000000000000004002400253
:104BE0003EFC0100000000000000000060008000AA
:104BF0008000400040002000200030313233343546
:104C00003637383941424344454640305800303108
:104C10003233343536373839616263646566403023
:104C200078000000444C000800000020180000003C
:104C30006C0100085C4C00081800002038090000D6
:104C400088010008FFFFFFFFFFFF000000000000D9
:0C4C500000000000000000000000FFFF5A
:0400000508000131BD
:00000001FF
