:020000040800F2
:1000000078150020490F0008B9030008BB03000859
:10001000C9030008D7030008E5030008000000003A
:10002000000000000000000000000000F3030008D2
:10003000F503000800000000F7030008F9030008BA
:10004000630F0008630F0008630F0008630F0008C8
:10005000630F0008630F0008630F0008630F0008B8
:10006000630F0008630F000865380008630F00087D
:10007000630F0008630F0008630F0008630F000898
:10008000630F0008630F0008630F0008630F000888
:10009000630F0008630F0008630F0008873600082D
:1000A000630F0008630F0008630F0008630F000868
:1000B000630F0008053A0008AB3C0008630F000816
:1000C000630F0008630F0008630F0008630F000848
:1000D000630F0008A90E0008630F0008630F0008F3
:1000E000630F0008630F0008630F0008630F000828
:1000F000630F0008630F0008630F0008630F000818
:10010000630F0008630F0008630F0008630F000807
:10011000630F0008630F0008630F0008630F0008F7
:10012000630F0008630F0008630F0008630F0008E7
:1001300000F002F800F03AF80AA090E8000C8244BF
:100140008344AAF10107DA4501D100F02FF8AFF29C
:10015000090EBAE80F0013F0010F18BFFB1A43F0A5
:100160000103184714F1000034F10000103A24BFD5
:1001700078C878C1FAD8520724BF30C830C144BF0C
:1001800004680C607047000000230024002500264E
:10019000103A28BF78C1FBD8520728BF30C148BFEA
:1001A0000B6070471FB51FBD10B510BD0DF02DFBC6
:1001B0001146FFF7F7FF00F09FF80DF04BFB03B47B
:1001C000FFF7F2FF03BC00F003FE000010B54FF490
:1001D000A06001F05DFC00F0E1FC6748806940F040
:1001E0000100654988616548406840F000706349D6
:1001F000486005F027FA04F0D3FD03F016FA03F087
:10020000A4FE05F0B9FE4FF4165000F001FE00F018
:100210009DFA4FF47A7000F0FEFC00F097FA4FF46C
:1002200034714FF47A7003F0BBFB10BD10B500F0D1
:1002300069FC03F025FF04F0B4F803F06EFD39E02B
:100240004F48407B10B300204E4908604E4908607B
:100250004E4805F04FFB05F0ABFC4D48C0784849CF
:100260000978884212D14A4800794549497888423C
:100270000CD14848006840F008004649086000205A
:100280004549086001204549087014E04448407819
:1002900001280FD14148007860B93E48006840F01D
:1002A00008003C49086000203B49086001203B49A8
:1002B000087000E0C4E700BF002005F09AFE39484E
:1002C00004F0E0FD04F0F5FC4FF47A7000F0A3FCBC
:1002D0004FF47A7000F09FFC4FF47A7000F09BFCB2
:1002E00004F0F5FC04F054FE04F0E3FC00F00AFC1A
:1002F00001202D49087010BD0024FFF767FFFFF7AC
:1003000095FF38E02848007828B12248006840F07E
:1003100008002049086004F0EEFB0DF056F8641C5C
:100320002248844227D100241548407B18B317483F
:1003300005F0E0FA05F03CFC1548C07810498978D2
:10034000884218D1124801790D48C078814212D1F3
:10035000012080F3138800BF00BF1548006800F437
:10036000E06014490843001D11490860BFF34F8F36
:1003700000BF00BFFEE7C5E70010024000000140DB
:10038000900E00206C0000207400002081000020EE
:1003900089000020100801409C012142000000203B
:1003A000500000201DEE000870000020FFFF0F002D
:1003B0000CED00E00000FA05704704E0012000F0B9
:1003C0001CF800F01FF8F9E704E0012000F015F830
:1003D00000F018F8F9E704E0012000F00EF800F052
:1003E00011F8F9E704E0012000F007F800F00AF83E
:1003F000F9E7704770477047704700F0010181F3DB
:10040000138870470648006800F4E0600549084317
:10041000001D03490860BFF34F8F00BFFEE70000D7
:100420000CED00E00000FA050CB5002001900090F2
:100430006C48006840F480306A49086000BF694831
:10044000006800F4003000900198401C0190009872
:1004500018B90198B0F5A06FF1D16248006800F4B6
:10046000003010B10120009001E0002000900098C1
:10047000012843D15C48006840F010005A490860E8
:100480000846006820F0030008600846006840F055
:100490000200086053484068524948600846406876
:1004A00048600846406840F48060486008464068FC
:1004B00020F47C1048600846406840F4E81048602A
:1004C0000846006840F08070086000BF454800683A
:1004D00000F000700028F9D04248406820F0030086
:1004E000404948600846406840F00200486000BF4C
:1004F0003C48406800F00C000828F9D10CBD10B54C
:10050000FFF792FF10BD10B53648006840F00100BB
:100510003449086008464068344908403149486019
:1005200008460068324908402E49086008460068BD
:1005300020F4802008600846406820F4FE004860EF
:100540004FF41F008860FFF7DAFF4FF00060294981
:10055000086010BD10B5002100200022214B5B680F
:1005600003F00C0121B1042906D0082928D107E0A5
:10057000214B224C236027E01F4B204C236023E0BB
:10058000184B5B6803F47010164B5B6803F4803201
:10059000022303EB904022B9194B4343174C2360CD
:1005A0000DE0104B5B6803F4003323B1144B43435D
:1005B000124C236003E0104B4343104C236003E0D4
:1005C0000D4B0E4C236000BF00BF064B5B68C3F3AE
:1005D00003130C4CE15C094B1B68CB40074C2360B8
:1005E00010BD000000100240002002400000FFF893
:1005F000FFFFF6FE08ED00E000127A000400002084
:1006000000093D00080000200146088870472DE9D8
:10061000F04105460E461746002407E036F8141050
:10062000284601F00AFCAD1C601C84B2BC42F5DB1C
:10063000BDE8F08130B503460C461546002207E0C0
:100640001846FFF7E1FF24F812009B1C501C82B2F1
:10065000AA42F5DB30BD2DE9F05F80468A46174699
:10066000B8F1006F02D33748804501D3BDE8F09F51
:1006700001F09BFAA8F1006B4FEADB25CBF34909A7
:10068000C9F58064A74200DC3C464DE04FF00061B4
:1006900001EBC5204A142C49FFF7CCFF00260BE0E4
:1006A00009EB0600284931F810004FF6FF71884227
:1006B00000D003E0701C86B2A642F1DB00BFA64268
:1006C0001BDA4FF0006101EBC52001F0B3FA002600
:1006D00008E03AF8160006EB09011B4A22F811005F
:1006E000701C86B2A642F4DB4FF0006101EBC5201E
:1006F0004A141549FFF78BFF04E022465146404655
:10070000FFF785FFA74200D10FE06D1C4FF00009F5
:100710000AEB440AA044381B87B2B7F5806F02DDAC
:100720004FF4806400E03C46B0E700BF01F049FAB6
:1007300000BF9BE713B50446012201A92046FFF73D
:100740008AFF1CBD000004089400002000B591B091
:100750000121084600F027FF01214FF4047000F04A
:100760002FFF4FF4004000F08FFE0120ADF82C0069
:1007700000208DF82F000BA9F74800F065FC04203D
:10078000ADF82C0000208DF82F000BA9F24800F0E6
:100790005BFC0220ADF82C0000208DF82F000BA987
:1007A000ED4800F051FC0820ADF82C0000208DF839
:1007B0002F000BA9E84800F047FCE84802F0ECFCE9
:1007C000E74802F0BFFBE5484C300090E548019057
:1007D00000200290282003900020049080200590A3
:1007E00040000690800007902020089000020990A9
:1007F00000200A906946DA4802F046FC00200C907E
:1008000001208DF834008DF835004FF460200E90F3
:1008100000200F9004208DF84000072301220A21B8
:10082000CE4802F078FD072302220B21CB4802F0CC
:1008300072FD072303220C21C84802F06CFD072338
:1008400004220D21C54802F066FD0CA9C34802F040
:10085000CAFC0121C14802F0F2FC0121BF4802F0AC
:10086000F9FCBE4802F00DFD00BFBC4802F00EFDD1
:100870000028FAD1B94802F013FD00BFB74802F0D2
:1008800014FD0028FAD10121B54802F028FC01210D
:10089000B24802F014FD11B000BD2DE9F05F4FF039
:1008A0000009CB46002405E0AE4830F8340081440E
:1008B000601CC4B2AC4800788442F5DB0A2099FB86
:1008C000F0F01FFA80FBABF538700DF0E4F8074646
:1008D000A64AA74B0DF032F905460CF0C9FF824637
:1008E000A44950460DF0E2FB8246A349B1F9080045
:1008F0000DF0BEFC054651460DF06AFB824650469F
:100900000DF03AFB054600229C4B0DF015FA01D282
:10091000DFF86CA25046BDE8F09F2DE9FC470026A9
:10092000002406E08F4800EBC40040880644601CA9
:10093000C4B28D4800788442F4DB0A20B6FBF0F0A4
:100940001FFA80F98C48808A10B9642401250CE0D4
:100950008948808A012802D10A240A2505E08648B0
:10096000808A022801D101246425A9F2EA200DF031
:1009700092F80746834A844B0DF0E0F8CDE9000178
:100980000CF076FF824620460DF08AFC0746394679
:1009900050460DF08BFB82467748B0F90A0064217F
:1009A00090FBF1F000FB05F840460DF061FC0746B6
:1009B00051460DF00DFB8246002150460DF084FC9F
:1009C00001D24FF0000A5046BDE8FC872DE9F84FF0
:1009D0004FF0000A002000908346002406E06148A2
:1009E00000EBC40080888244601CC4B25E4800787A
:1009F0008442F4DB0A209AFBF0F080B200905E485B
:100A0000C08A18B964244FF001090DE05A48C08A21
:100A1000012802D10A24A14606E05748C08A0228CC
:100A200002D101244FF064090099A1F2EA200DF0EF
:100A300032F80746534A544B0DF080F805460CF047
:100A400017FF834620460DF02BFC054629465846E5
:100A50000DF02CFB83464848B0F90C00642190FB54
:100A6000F1F000FB09F630460DF002FC0546594650
:100A70000DF0AEFA8346002158460DF025FC01D258
:100A80004FF0000B5846BDE8F88F2DE9F05F4FF0AE
:100A90000009CA46002406E0324800EBC400C088C2
:100AA0008144601CC4B2304800788442F4DB0A20E0
:100AB00099FBF0F01FFA80FAAAF538700CF0EBFF02
:100AC00007462A4A2A4B0DF039F805460CF0D0FEAD
:100AD0008346284958460DF0E9FA83462649B1F97C
:100AE00008000DF0C5FB834658460DF045FA054653
:100AF0000022224B0DF020F901D2DFF884B05846D5
:100B0000BDE8F09F17480088642803DA00201F49D9
:100B1000087402E001201D490874124840886428C6
:100B200003DA00201949487402E00120174948748B
:100B30000C488088642803DA00201449887402E095
:100B40000120124988740748C088642820DA0020F0
:100B50000E49C8741FE0000000100140002401404D
:100B6000080002409408002018000020BF3749C543
:100B7000CFB3E33F0000C8429E0E00200040324049
:100B8000000092419F85E959989EE53F1C00002096
:100B900001200149C87470471C00002010B56FF097
:100BA000040000F0C4FF2E4800682E49B0FBF1F0AD
:100BB0002D4908700846007800EB4001C1EBC010D9
:100BC0004FF6FF7101EAC0002849088010BD0146B8
:100BD000254A12784A434FF0E0235A6100229A6175
:100BE0001A46126942F001021A6100BF4FF0E0227A
:100BF000106900F001021AB100F48032002AF5D029
:100C00004FF0E022126922F001024FF0E0231A6156
:100C100000229A6170470146144A12884A434FF0F5
:100C2000E0235A6100229A611A46126942F00102D9
:100C30001A6100BF4FF0E022106900F001021AB102
:100C400000F48032002AF5D04FF0E022126922F041
:100C500001024FF0E0231A6100229A617047000000
:100C60000400002000127A00300000203200002032
:100C700070B504460B46CE1701EB9676C6F3870097
:100C8000CE1701EB9676B610A1EB8606B606350EAA
:100C9000484B9B6943F00103464EB3614FEAB633BC
:100CA00053F820300F26AE40B343434E46F8203071
:100CB000334653F8203004FA05F61E433E4B43F802
:100CC00020603E4B1B6801268E4033433B4E336011
:100CD00002F0010343B1394B0C331B6801268E40EF
:100CE0003343364E0C36336002F0020343B1334BCC
:100CF00008331E6801238B401E43304B08331E60AF
:100D000070BD2F4A0A4002432E4B1A6070470146BD
:100D1000072323EA010212022A4B1B1D18684FF613
:100D2000FF031840284B18431043264B1B1D186027
:100D300070472DE9F0410746884614461D4628466F
:100D4000FFF7E5FFC5F1040007FA00F60F20284180
:100D500000EA0800064306F00F06E21704EBD26231
:100D60005211920002F1E022D2F800212146E3174D
:100D700004EBD3635B11A4EB431C012303FA0CF3D4
:100D80001A432046E31704EBD3635B119B0003F186
:100D9000E023C3F800210D48005D40EA06100B492E
:100DA0000855BDE8F08130BF704772B6704762B633
:100DB000704700000010024008000140000401409C
:100DC00080FFFF1F08ED00E00000FA0500E400E0EE
:100DD000014600BF704700BF574A128802F0400228
:100DE000002AF9D0C2B2544B1B1D1A8070470BE089
:100DF00000BF5149098801F040010029F9D001786C
:100E00004D4A121D1180401C01780029F0D1704715
:100E100010B586B00446012144F2040000F0D0FB76
:100E20004FF40070ADF8140003208DF81600182060
:100E30008DF8170005A9414800F006F94FF48060CD
:100E4000ADF8140004208DF8170005A93B4800F008
:100E5000FBF825208DF8000003208DF801008DF8A7
:100E6000020001208DF80300684600F016FE019490
:100E70000020ADF80800ADF80A00ADF80C00ADF8A0
:100E800010000C20ADF80E0001A92B4800F03FFC2B
:100E9000012240F22551284800F0D1FC01212648CA
:100EA00000F0C1FC06B010BD10B540F2255122483B
:100EB00000F0AAFD00283ED01F4800F025FDC4B276
:100EC00000BF1D48008800F040000028F9D01A48F3
:100ED000001D04801A48008800F4004058BB1848E0
:100EE000008800F4804060B10A2C03D0002014492F
:100EF000088020E01248008840F400401049088033
:100F000019E00D2C06D10E48008840F480400C49B1
:100F1000088010E00A480088C0F30D0009490C540D
:100F200007480088401C0649088008460088C728F2
:100F300001DD0020088010BD00380140000801409C
:100F400038000020E408002009488047094800478D
:100F5000FEE7FEE7FEE7FEE7FEE7FEE7FEE7FEE769
:100F6000FEE7FEE704480549054A064B70470000C6
:100F70000705000831010008780F002078150020CF
:100F8000781100207811002010B50446CC48844226
:100F900008D10121042000F02DFB0021042000F0E5
:100FA00029FB46E0C748844208D10121082000F00F
:100FB00021FB0021082000F01DFB3AE0C2488442DA
:100FC00008D10121102000F015FB0021102000F0B5
:100FD00011FB2EE0BD48844208D10121202000F001
:100FE00009FB0021202000F005FB22E0B8488442E4
:100FF00008D10121402000F0FDFA0021402000F03E
:10100000F9FA16E0B348844208D10121802000F0AB
:10101000F1FA0021802000F0EDFA0AE0AE488442A7
:1010200007D10121801500F0E5FA0021A01500F09C
:10103000E1FA10BD10B50121084600F0DBFA0021ED
:10104000012000F0D7FA10BD2DE9F041024600253D
:101050000026002000230024002791F803C00CF094
:101060000F0591F803C00CF0100CBCF1000F03D079
:1010700091F802C04CEA050591F800C0BCF1000FE0
:1010800031D0146800202BE04FF0010C0CFA00F373
:10109000B1F800C00CEA03069E4220D183004FF055
:1010A0000F0C0CFA03F7BC4305FA03FC4CEA0404EA
:1010B00091F803C0BCF1280F06D14FF0010C0CFAD7
:1010C00000FCC2F814C00AE091F803C0BCF1480F5C
:1010D00005D14FF0010C0CFA00FCC2F810C0401C06
:1010E0000828D1D31460B1F800C0BCF1FF0F34DD83
:1010F000546800202EE000F1080C4FF0010808FAB7
:101100000CF3B1F800C00CEA03069E4221D1830023
:101110004FF00F0C0CFA03F7BC4305FA03FC4CEA42
:10112000040491F803C0BCF1280F05D100F1080CAC
:1011300008FA0CF8C2F8148091F803C0BCF1480F0B
:1011400007D100F1080C4FF0010808FA0CF8C2F8BA
:101150001080401C0828CED35460BDE8F0814FF6C3
:10116000FF710180022181700421C1707047024625
:10117000002093680B400BB1012000E00020704775
:101180000146886880B2704702460020D3680B4051
:101190000BB1012000E0002070470146C86880B212
:1011A000704701617047416170470AB1016100E019
:1011B00041617047C16070474FF480320A438261D9
:1011C0008161826182698269704702460020434BD7
:1011D00018684FF68073184040EA021008433F4BEE
:1011E000186070473E49C8617047F0B50A46002351
:1011F00000240021002500F00046B6F1004F02D186
:10120000364EF16901E0354E7168C0F3034583B293
:1012100000F44016B6F5401F08D121F070612F4E42
:10122000766826F070662D4F7E6012E000F480161E
:10123000B6F5801F06D1032606FA05F4A14341F056
:10124000706106E0460D360103FA06F6B14341F03F
:10125000706122B1460D360103FA06F6314300F003
:101260000046B6F1004F02D11C4EF16101E01B4E69
:101270007160F0BD30B500228B071C0F0F2303FAFD
:1012800004F2164B08338C1053F824309343134C5C
:1012900008348D1044F8253023468C1053F8243040
:1012A0008C07240F00FA04F423430C4C08348D10EF
:1012B00044F8253030BD0A49DC3108607047000031
:1012C00000080140000C01400010014000140140E2
:1012D00000180140001C01400020014000000140B6
:1012E00000002042DF48006840F00100DD4908604E
:1012F00008464068DC490840DA494860084600680A
:10130000DA490840D74908600846006820F4802080
:1013100008600846406820F4FE0048604FF41F0053
:1013200088607047CF49096821F48031CD4A116047
:101330001146096821F480211160B0F5803F03D087
:10134000B0F5802F0ED106E0C649096841F480311E
:10135000C44A116007E0C349096841F4A021C14AA9
:10136000116000E000BF00BF704710B501460022C9
:10137000002300204A11012A02D1BA4C236806E05A
:10138000022A02D1B74C236A01E0B64C636A01F02D
:101390001F02012494401C400CB1012000E00020F9
:1013A00010BD38B5002000900024002500BF31207A
:1013B000FFF7DBFF05460098401C00900098B0F551
:1013C000A06F01D0002DF2D03120FFF7CEFF08B181
:1013D000012400E00024204638BD01460020A14A37
:1013E000106820F0F80040EAC10010607047A04982
:1013F00008607047024600209A4B586820F47C1021
:1014000042EA01031843974B5860704798490866B1
:10141000704701460020934A506820F003000843BB
:10142000506070478F48406800F00C0070470146DC
:1014300000208C4A506820F0F0000843506070474C
:1014400001460020874A506820F4E060084350605D
:10145000704701460020834A506820F4605040EAFB
:10146000C1005060704729B17E4A527A02437D4BD9
:101470005A7204E07B4A527A82437A4B5A7270471E
:101480007B49D8310860704701460020754A506892
:1014900020F440400843506070470021714A2032D8
:1014A0001170704A82F82010012802D004280AD155
:1014B00004E001216B4A2032117005E00521694AE0
:1014C0002032117000E000BF00BF7047694908601A
:1014D00070476449096A0143624A1162704765496D
:1014E00044390860704730B50021002200240023F1
:1014F0005C4D6D6805F00C0121B1042905D0082967
:1015000023D105E05C4D056022E05B4D05601FE0E6
:10151000544D6D6805F47012524D6D6805F48034B9
:10152000022505EB92421CB9544D554305600BE072
:101530004C4D6D6805F400351DB1504D55430560A7
:1015400002E04D4D5543056002E04B4D056000BF84
:1015500000BF444D6D6805F0F0010909484D6B5C12
:101560000568DD4045603F4D6D6805F4E061090A9E
:10157000434D6B5C4568DD4085603A4D6D6805F410
:101580006051C90A3E4D6B5C4568DD40C560354D14
:101590006D6805F44041890B3A4D6B5CC568B5FB3D
:1015A000F3F5056130BD29B12E4A526902432D4B36
:1015B0005A6104E02B4A526982432A4B5A617047B0
:1015C00029B1284A92690243264B9A6104E0254AD0
:1015D00092698243234B9A61704729B1214AD269AB
:1015E0000243204BDA6104E01E4AD26982431D4B5C
:1015F000DA61704729B11B4AD2680243194BDA609D
:1016000004E0184AD2688243164BDA60704729B169
:10161000144A12690243134B1A6104E0114A126919
:101620008243104B1A617047124940390860704775
:101630000F49C86470470B49C87170470948406A30
:1016400040F0807007494862704701460020054A13
:1016500092680A400AB1012000E000207047014969
:1016600088727047001002400000FFF8FFFFF6FE8E
:10167000000042428004424200127A0000093D000C
:101680003A0000204A00002010B50446FB4884427E
:1016900009D101218803FFF7ADFF00214FF48040FD
:1016A000FFF7A8FF32E0F648844209D1012148043F
:1016B000FFF7ADFF00214FF40030FFF7A8FF25E052
:1016C000F048844209D101218804FFF7A0FF0021DE
:1016D0004FF48020FFF79BFF18E0EB48844209D1CC
:1016E0000121C804FFF793FF00214FF40020FFF70A
:1016F0008EFF0BE0E548844208D101210805FFF781
:1017000086FF00214FF48010FFF781FF10BD2DE907
:10171000F04786B005460E460024A24600BFA1460B
:101720000027B08900B100BF2F462C8A4CF6FF700D
:101730000440F08804432C82AC894EF6F310044038
:10174000B08831890843718908430443AC81AC8A6D
:101750004FF6FF400440B0890443AC8201A8FFF774
:10176000C2FEC648874202D1DDF810A001E0DDF8D4
:101770000CA0A88900F4004040B10AEBCA0000EBBD
:101780000A1031684900B0FBF1F807E00AEBCA0023
:1017900000EB0A1031688900B0FBF1F86420B8FB57
:1017A000F0F004012009642101FB1089A88900F4EC
:1017B000004040B1322000EBC900B0FBF1F000F076
:1017C0000700044308E0322000EB09106421B0FB5D
:1017D000F1F000F00F0004432C8106B0BDE8F08763
:1017E0004FF41651016000218180C18001810C21DC
:1017F000418100218181704710B502460020108A86
:101800004FF2FF0318400B884C8823438C882343F6
:10181000CC8823431843108210BD002101804180F1
:101820008180C180704721B1828942F40052828157
:1018300004E082894DF6FF731A4082817047F0B54B
:101840000346002400260025002040F66A17B9420E
:1018500000D100BF1846C1F3421401F01F06012752
:1018600007FA06F5012C01D10C3004E0022C01D15D
:10187000103000E014301AB107682F43076002E00F
:101880000768AF430760F0BD1AB1838A0B438382B8
:1018900002E0838A8B4383827047028A4FF6F0739B
:1018A0001A400282028A0A430282704782894FF2FA
:1018B000FF731A40828182890A438281704721B175
:1018C000828942F00202828104E082894FF6FD7330
:1018D0001A4082817047028A4FF6DF731A400282F3
:1018E000028A0A430282704721B1028A42F480428E
:1018F000028204E0028A4BF6FF731A4002827047AC
:10190000C1F308028280704701468888C0F308004E
:101910007047818941F0010181817047028BD2B209
:101920000283028B42EA012202837047028B02F497
:101930007F420283028B0A430283704721B1828A6D
:1019400042F02002828204E0828A4FF6DF731A405E
:101950008282704721B1828A42F01002828204E0C2
:10196000828A4FF6EF731A408282704721B1828AD1
:1019700042F00802828204E0828A4FF6F7731A402E
:101980008282704721B1828942F40042828103E061
:101990008289C2F30E028281704721B1828A42F4A9
:1019A0000062828204E0828A4FF2FF731A408282D0
:1019B0007047828A4FF6FB731A408282828A0A43FA
:1019C0008282704721B1828A42F00202828204E060
:1019D000828A4FF6FD731A408282704702460020C9
:1019E000B1F5007F00D100BF13880B400BB101207F
:1019F00000E00020704701F40072B2F5007F00D1D2
:101A000000BFCA430280704770B50246002400231D
:101A10000025002040F66A16B14200D100BFC1F394
:101A2000421501F01F03012606FA03F3012D02D12E
:101A30009689334006E0022D02D1168A334001E038
:101A4000968A33400C12012606FA04F416883440B4
:101A500013B10CB1012000E0002070BD10B50022D0
:101A6000002340F66A14A14200D100BF0A120124EB
:101A70009440A3B2DC43048010BD00000038014054
:101A80000044004000480040004C0040005000402E
:101A900031490143314A1160704770B5002100237C
:101AA0000F22C47804B32D4C246804F4E064C4F518
:101AB000E064210AC1F10403CA40447804FA03F146
:101AC0008478144021430901254C0678A1550478F7
:101AD00004F01F050124AC4005786D11AD0005F13F
:101AE000E025C5F8004109E0047804F01F05012451
:101AF000AC401C4D0678761145F8264070BD1A4A58
:101B00000A400243154B1B1F1A60704739B1134A34
:101B1000121D12680243114B1B1D1A6006E00F4A8A
:101B2000121D126882430D4B1B1D1A60704704285A
:101B300008D14FF0E021096941F004014FF0E022A3
:101B4000116107E04FF0E021096921F004014FF035
:101B5000E0221161704700000000FA050CED00E082
:101B600000E400E080E100E080FFFF1F014600206C
:101B7000FE4A106800F03800084310607047FB49C7
:101B8000096821F00801F94A11601146096801430A
:101B900011607047F549096821F01001F34A11609E
:101BA00011460968014311607047F148EF494860E8
:101BB000F04848607047EE48EC494860ED4848609E
:101BC0007047EA48006940F08000E84908617047C2
:101BD000E648006940F08000E4490861704704204D
:101BE000E249C96801F0010109B101200EE0DF49B5
:101BF000C96801F0040109B1022007E0DB49C968A6
:101C000001F0100109B1032000E00420704700B585
:101C100002460423FFF7E3FF034603E0FFF7DFFF7D
:101C20000346521E012B01D1002AF7D102B9052328
:101C3000184600BD30B5044604254FF43020FFF7A8
:101C4000E6FF0546042D17D1C848006940F00200A0
:101C5000C649086108464461006940F040000861D7
:101C60004FF43020FFF7D3FF0546C048006941F626
:101C7000FD710840BD490861284630BD10B50424F7
:101C80004FF43020FFF7C3FF0446042C16D1B748A9
:101C9000006940F00400B54908610846006940F059
:101CA000400008614FF43020FFF7B1FF0446AF4811
:101CB000006941F6FB710840AC490861204610BD3F
:101CC00000B502460423FFF78AFF034603E0FFF74F
:101CD00086FF0346521E012B01D1002AF7D102B91B
:101CE0000523184600BD10B504244FF43020FFF73B
:101CF000E7FF0446042C16D19C48006940F004001C
:101D00009A4908610846006940F0400008614FF4B4
:101D10003020FFF7D5FF04469448006941F6FB7177
:101D2000084092490861204610BD00208F49C969CA
:101D300001F0020109B1012000E00020704730B538
:101D4000A5250424FFF7F1FF00B100254FF4302052
:101D5000FFF75DFF0446042C3AD18548834988602B
:101D6000844888600846006940F020000861084601
:101D7000006940F0400008614FF43020FFF747FF52
:101D80000446042C1BD17948006941F6DF710840F4
:101D9000764908610846006940F0100008617648FD
:101DA0000580E002FFF733FF0446052C10D06F4892
:101DB000006941F6EF7108406C49086108E0052CA4
:101DC00006D06A48006941F6EF710840674908612A
:101DD000204630BD78B506460C460425002000900C
:101DE000E802FFF714FF0546042D24D15F4800697F
:101DF00040F001005D4908613480E802FFF707FF09
:101E00000546042D10D1B01C0090200C00990880CC
:101E1000E802FFF7FCFE05465448006941F6FE71F2
:101E200008405249086106E05048006941F6FE71D9
:101E300008404E490861284678BD70B504460D46F5
:101E40000426F002FFF7E3FE0646042E11D14748B0
:101E5000006940F00100454908612580F002FFF764
:101E6000D6FE06464148006941F6FE7108403F49EA
:101E70000861304670BD70B505460E460424E00288
:101E8000FFF7C5FE0446042C17D13948374988604E
:101E9000384888600846006940F0100008612E80CC
:101EA000E002FFF7B4FE0446052C06D02F48006977
:101EB00041F6EF7108402D490861204670BD2DE9BB
:101EC000F04304464FF6FF763746B046B146042548
:101ED000E443E6B2C4F30727C4F307484FEA1469A2
:101EE000E802FFF794FE0546042D49D120481F491A
:101EF0008860204888600846006940F0100008614A
:101F0000FF2E06D01C4808300680E802FFF77FFE4F
:101F10000546042D08D1FF2F06D017480A30078048
:101F2000E802FFF774FE0546042D0AD1B8F1FF0F51
:101F300007D011480C30A0F80080E802FFF767FED8
:101F40000546042D0AD1B9F1FF0F07D00A480E301B
:101F5000A0F80090E802FFF75AFE0546052D0FD0C5
:101F60000248006941F6EF71084007E00020024096
:101F700023016745AB89EFCD00F8FF1F6649086173
:101F80002846BDE8F08330B5054604244FF43020E0
:101F9000FFF73DFE0446042C41D160485E4988604D
:101FA0005F4888600846006940F0200008610846E4
:101FB000006940F0400008614FF43020FFF727FE31
:101FC0000446042C22D15448006941F6DF710840D0
:101FD000514908610846006940F0100008611DB1D0
:101FE00000205049088002E0A5204E4908804FF4A7
:101FF0003020FFF70CFE0446052C10D0464800693F
:1020000041F6EF7108404449086108E0052C06D00C
:102010004148006941F6DF7108403F4908612046A8
:1020200030BDF0B505460E46174604243B483A49F4
:1020300088603B488860E002FFF7E9FD0446042C15
:1020400019D13548006940F010003349086147F064
:10205000F800304328433349891C0880E002FFF729
:10206000D6FD0446052C06D02B48006941F6EF71D9
:102070000840294908612046F0BD2748C06980080A
:1020800070472548006A704700202349096801F01D
:10209000200109B1012000E00020704729B11E4A4B
:1020A000126902431C4B1A6104E01B4A1269824305
:1020B000194B1A61704701460020012908D1164AC0
:1020C000D26902F001020AB1012008E0002006E016
:1020D000114AD2680A400AB1012000E0002070478E
:1020E0000D49C860704704200B49C96801F001011F
:1020F00009B101200EE00849C96801F0040109B1E5
:10210000022007E00449C96801F0100109B1032069
:1021100000E00420704700000020024023016745D2
:10212000AB89EFCD00F8FF1F10B50446FE4884428E
:1021300008D10121C014FFF75DFA0021E014FFF778
:1021400059FAC4E0B4F1804F08D101210846FFF7E5
:102150005EFA00210120FFF75AFAB8E0F348844202
:1021600008D101210220FFF752FA00210220FFF7D7
:102170004EFAACE0EE48844208D101210420FFF77A
:1021800046FA00210420FFF742FAA0E0E948844221
:1021900008D101210820FFF73AFA00210820FFF7B3
:1021A00036FA94E0E448844208D101211020FFF778
:1021B0002EFA00211020FFF72AFA88E0DF48844237
:1021C00008D101212020FFF722FA00212020FFF76B
:1021D0001EFA7CE0DA48844208D101214014FFF75E
:1021E00009FA00216014FFF705FA70E0D54884422F
:1021F00009D10121C804FFF7FDF900214FF40020A7
:10220000FFF7F8F963E0D048844209D101210805BD
:10221000FFF7F0F900214FF48010FFF7EBF956E0DB
:10222000CA48844209D101214805FFF7E3F900219A
:102230004FF40010FFF7DEF949E0C548844208D1A9
:1022400001214020FFF7E3F900214020FFF7DFF9EB
:102250003DE0C048844208D101218020FFF7D7F932
:1022600000218020FFF7D3F931E0BB48844208D138
:1022700001218015FFF7CBF90021A015FFF7C7F961
:1022800025E0B648844209D101210804FFF7B2F9DC
:1022900000214FF48030FFF7ADF918E0B0488442D8
:1022A00009D101214804FFF7A5F900214FF40030BE
:1022B000FFF7A0F90BE0AB48844208D10121880464
:1022C000FFF798F900214FF48020FFF793F910BD34
:1022D00000220288944B98420ED0994B98420BD022
:1022E000B0F1804F08D0914B984205D0904B984266
:1022F00002D0904B984204D14FF68F731A404B880E
:102300001A438D4B984207D08C4B984204D04FF61D
:10231000FF431A40CB881A4302808B8883850B8841
:102320000385814B98420BD0854B984208D08B4B4C
:10233000984205D08A4B984202D08A4B984201D1EC
:102340000B7A038601238382704770B50024002234
:102350000023058C4FF6FE7635400584028C838879
:10236000048B4FF68F752C40B51E2C400D882C43E6
:10237000751E2A400D892A434D882A436A4DA8427A
:102380000BD06F4DA84208D0744DA84205D0744DB3
:10239000A84202D0734DA84213D14FF6F7752A40D8
:1023A0004D892A434FF6FB752A408D882A434FF604
:1023B000FF652B404FF6FF552B408D892B43CD8970
:1023C0002B4383800483CD888586028470BD70B5DD
:1023D000002400220023058C4FF6EF76354005845B
:1023E000028C8388048B48F6FF752C404FF6FF451E
:1023F0002C400D884FF6FF7606EA05252C434FF654
:10240000DF752A400D8906EA05152A434D8806EA3C
:1024100005152A43444DA84202D0494DA8421DD17A
:102420004FF67F752A404D894FF6FF7606EA05156F
:102430002A434FF6BF752A408D8806EA05152A43C0
:102440004FF6FF352B404FF2FF752B408D8906EA82
:1024500085052B43CD8906EA85052B4383800483BC
:10246000CD880587028470BD70B50024002200234A
:10247000058C4FF6FF6635400584028C8388848B7B
:102480004FF68F752C404FF6FC752C400D882C4371
:102490004FF6FF552A400D894FF6FF7606EA0525CF
:1024A0002A434D8806EA05252A431F4DA84202D03B
:1024B000234DA8421DD14FF2FF752A404D894FF69A
:1024C000FF7606EA05252A434FF6FF352A408D8818
:1024D00006EA05252A434EF6FF752B404DF6FF759B
:1024E0002B408D8906EA05152B43CD8906EA051593
:1024F0002B4383808483CD888587028470BD70B52B
:10250000002200230024058C4EF6FF76354005841A
:10251000038C8488828B48F6FF752A404FF6FF456E
:102520002A400D8820E00000002C014000040040FB
:1025300000080040000C0040001000400014004063
:1025400000340140004C0140005001400054014063
:1025500000180040001C00400020004000400140E6
:1025600000440140004801404FF6FF7606EA052589
:102570002A434DF6FF752B400D8906EA05352B439E
:102580004D8806EA05352B43FA4DA84202D0FA4D94
:10259000A84208D14BF6FF752C408D894FF6FF7687
:1025A00006EA85152C4384808283CD88A0F84050AC
:1025B000038470BD828B4FF2FF331A408283828B7B
:1025C0004FF6FF7303EA01231A4382837047F0B585
:1025D0000C461546002200210026078C4EF6FF7C93
:1025E00007EA0C070784828B018C4FF6FF7707EA16
:1025F000043640F6FF473A404FF6FF7707EA0527D3
:102600003A434FF6FF7707EA03373A43D94FB842C8
:102610000ED0D94FB8420BD0B0F1804F08D0D74F71
:10262000B84205D0D64FB84202D0D64FB84206D1F4
:102630004DF6FF77394046F48057394305E047F6B9
:10264000FF57394044F48057394382830184F0BDF9
:10265000828B4FF6F3731A408283828B0A43828304
:102660007047F0B50C461546002200210026078C65
:102670004FF6FF6C07EA0C070784828B018C4FF63C
:10268000FF7707EA04264FF60C773A404FF6FF77BC
:1026900007EA03172F433A43B64FB8420ED0B64F5E
:1026A000B8420BD0B0F1804F08D0B44FB84205D03B
:1026B000B34FB84202D0B34FB84206D14FF6FF57DE
:1026C000394046F48077394305E04FF2FF573940EF
:1026D00044F48077394382830184F0BD028B4FF24A
:1026E000FF331A400283028B4FF6FF7303EA012384
:1026F0001A4302837047F0B50C46154600220021AC
:102700000026078C4FF6EF7C07EA0C070784028B44
:10271000018C4FF6FF7707EA041640F6FF473A4070
:102720004FF6FF7707EA03373A434FF6FF7707EA9A
:1027300005273A438F4FB8420ED08F4FB8420BD087
:10274000B0F1804F08D08D4FB84205D08C4FB842C1
:1027500002D08C4FB84206D14FF6DF77394046F0B1
:102760001007394305E04FF65F77394044F0100712
:10277000394302830184F0BD028B4FF6F3731A4094
:102780000283028B0A4302837047F0B50C4615465C
:1027900000220021068C4FF6FE773E400684028B15
:1027A000018C4FF60C7632407E1C06EA03162E434F
:1027B0003243704EB0420ED06F4EB0420BD0B0F1EB
:1027C000804F08D06D4EB04205D06D4EB04202D061
:1027D0006C4EB04206D14FF6FD76314044F0010612
:1027E000314305E04FF6F576314044F001063143C0
:1027F00002830184F0BD70B505460C465D488542F4
:102800000ED05D4885420BD0B5F1804F08D05B48B3
:10281000854205D05A48854202D05A48854200D1A7
:1028200000E000BF208850B92389A288618828462B
:10283000FFF7ABFFE1882846FFF79EFF25E02088E1
:1028400004280AD12389A28861882846FFF753FF0C
:10285000E1882846FFF742FF17E0208808280AD1C0
:102860002389A28861882846FFF7FBFEE188284675
:10287000FFF7EEFE09E02389A28861882846FFF76A
:10288000A6FEE1882846FFF795FE70BD2DE9F041D0
:1028900005460C4600260127608808B9022600E09C
:1028A0000026A088012801D1022700E00127208806
:1028B000A0B92389A28861882846FFF766FFE188CE
:1028C0002846FFF759FF23893A4631462846FFF745
:1028D00012FFE1882846FFF701FF13E02389A28851
:1028E00061882846FFF707FFE1882846FFF7F6FED4
:1028F00023893A4631462846FFF747FFE1882846B4
:10290000FFF73AFFBDE8F0810A884B881A438B88AD
:102910001A43CB881A430B891A434B891A438B8974
:102920001A43A0F8442070474FF6FF7181800021C0
:102930000180C18041800172704700210180418087
:102940008180C180018141818181C18170470021E5
:1029500001804180012181800021C1800181704777
:102960000021018041808180C1800181418181817C
:1029700070470000002C014000340140000400407A
:1029800000080040000C004021B1028842F0010222
:10299000028004E002884FF6FE731A4002807047FE
:1029A00031B1B0F8442042F40042A0F8442005E0E0
:1029B000B0F84420C2F30E02A0F8442070471AB1C8
:1029C00083890B43838102E083898B438381704732
:1029D0008182704741EA0203A0F8483070471AB17B
:1029E00083890B43838102E083898B438381704712
:1029F00001894FF6F8721140018170470A460021A3
:102A000001894FF68F73194011430181704730B52A
:102A100004460D4629462046FFF7F0FF208940F086
:102A20000700208130BD2DE9F04104460D461646D1
:102A30001F46602D06D13B46012231462046FFF756
:102A40005AFE05E03B46012231462046FFF79DFE37
:102A500029462046FFF7D2FF208940F00700208159
:102A6000BDE8F08130B50C4600210189C9B24FF6AE
:102A7000FF7505EA0325154325432943018130BD30
:102A80002DE9F04105460E46174698460024434678
:102A90003A4631462846FFF7E5FF2C894FF6F87095
:102AA000044044F007044FF68F70044044F0700473
:102AB0002C81BDE8F081F0B504460D4616461F4650
:102AC0003B46324629462046FFF7CCFF208940F49A
:102AD00080402081F0BD0185828270470A46002136
:102AE00001884FF68F731940114301807047F0B58C
:102AF0000C4615461E460021002200230189028B48
:102B0000038C4FF6F877394021434FF6FC473A40A3
:102B100040F201173A434FF6DD773B404FF6FF771F
:102B200007EA06172F433B43018102830384F0BD6C
:102B30000A460021018B4FF68F7319401143018320
:102B400070470A460021018B48F6FF7319404FF683
:102B5000FF7303EA02231943018370470A460021E9
:102B6000818B4FF68F7319401143818370470A465A
:102B70000021818B48F6FF7319404FF6FF7303EA7B
:102B8000022319438183704721B1028842F08002F9
:102B9000028004E002884FF67F731A40028070477B
:102BA00021B1828842F00402828004E082884FF6DC
:102BB000FB731A408280704721B1828842F008027C
:102BC000828004E082884FF6F7731A408280704753
:102BD00021B1828842F00102828004E082884FF6AF
:102BE000FE731A40828070470A460021018B4FF61F
:102BF000F77319401143018370470A460021018B86
:102C00004FF2FF7319404FF6FF7303EA0223194393
:102C1000018370470A460021818B4FF6F7731940F4
:102C20001143818370470A460021818B4FF2FF7365
:102C300019404FF6FF7303EA02231943818370475B
:102C40000A460021018B4FF6FB73194011430183A3
:102C500070470A460021018B4FF6FF3319404FF6AB
:102C6000FF7303EA02231943018370470A460021D8
:102C7000818B4FF6FB7319401143818370470A46DD
:102C80000021818B4FF6FF3319404FF6FF7303EAA3
:102C900002231943818370470A460021018B4FF6B6
:102CA0007F7319401143018370470A460021018B4D
:102CB000C1F30E014FF6FF7303EA022319430183A8
:102CC00070470A460021818B4FF67F7319401143EC
:102CD000818370470A460021818BC1F30E014FF6B4
:102CE000FF7303EA02231943818370470A460021D8
:102CF000018C4FF6FD7319401143018470470A4659
:102D00000021018C4FF6F77319401143018470477D
:102D10000A460021018C4FF6DF7319404FF6FF730E
:102D200003EA02131943018470470A460021018C0B
:102D30004FF67F7319404FF6FF7303EA02131943EE
:102D4000018470470A460021018C4FF6FF53194059
:102D50004FF6FF7303EA02231943018470470A46C2
:102D60000021018C4FF2FF7319404FF6FF7303EA05
:102D700002231943018470470A460021018C4DF655
:102D8000FF7319404FF6FF7303EA023319430184BE
:102D9000704730B5002301248C40A3B2048C9C43BF
:102DA0000484048C02FA01F5ADB22C43048430BDD6
:102DB00030B5002304248C40A3B2048C9C430484CB
:102DC000048C02FA01F5ADB22C43048430BD70B519
:102DD0000346002000241846183001258D40ACB26F
:102DE0001D8CA5431D8409B1082909D100EB6100A0
:102DF000056825F0700505600568154305600EE05F
:102E00000D1FC5F34E052844056825F4E04505600F
:102E100005684FF6FF7606EA02263543056070BD69
:102E200021B1028842F00202028004E002884FF6DB
:102E3000FD731A400280704721B1028842F00402FB
:102E4000028004E002884FF6FB731A40028070474C
:102E500021B1828842F08002828004E082884FF6AD
:102E60007F731A408280704702884FF6F7731A40CA
:102E7000028002880A430280704782884FF68F736F
:102E80001A40828082880A438280704702894FF606
:102E9000F8731A40028102890A430281704702894D
:102EA0004FF67F731A40028102890A4302817047FC
:102EB000818470478185704781867047018770479C
:102EC00081877047A0F84010704702884FF6FF4393
:102ED0001A40028002880A43028070470146888EA9
:102EE00070470146088F70470146888F704701463A
:102EF000B1F8400070470146888C70470146088D44
:102F0000704702460020138A0B400BB1012000E0FD
:102F100000207047CA430282704730B50246002045
:102F200000230024158A05EA0103958905EA0104B6
:102F300013B10CB1012000E0002030BDCA43028271
:102F40007047000001684FF6FE72114001600021D9
:102F5000016041608160C1608D49884208D18C491F
:102F60000839496841F00F01894A083A51608AE0FE
:102F700087491431884208D185490839496841F0A8
:102F8000F001834A083A51607DE081492831884246
:102F900008D17F490839496841F470617C4A083A90
:102FA000516070E07A493C31884208D1784908394B
:102FB000496841F47041764A083A516063E07449C7
:102FC0005031884208D172490839496841F470216A
:102FD0006F4A083A516056E06D496431884208D121
:102FE0006B490839496841F47001694A083A5160EF
:102FF00049E067497831884208D16549083949680C
:1030000041F07061624A083A51603CE0614988428F
:1030100006D1011F096841F00F01021F116032E063
:103020005C491431884208D15A49091F096841F0A6
:10303000F001584A121F116025E056492831884294
:1030400008D15449091F096841F47061514A121F9F
:10305000116018E04F493C31884208D14D49091FA1
:10306000096841F470414B4A121F11600BE0494955
:103070005031884207D14749091F096841F470213E
:10308000444A121F1160704710B50022026847F6CB
:10309000F0739A430C6A8B6823430C6923434C6991
:1030A00023438C692343CC6923434C6A23438C6AB2
:1030B00023431A430260CB6843600B6883604B680C
:1030C000C36010BD0021016041608160C160016189
:1030D00041618161C161016241628162704721B1D8
:1030E000026842F00102026004E002684FF6FE73DB
:1030F0001A40026070471AB103680B43036002E094
:1031000003688B430360704741607047014648681D
:1031100080B2704701460020002201F080531BB1AD
:103120001C4B083B1A6802E0194B083B1A6802EA7C
:1031300001030BB1012000E00020704700F0805136
:1031400019B11449091F086002E0114908394860A3
:10315000704701460020002201F080531BB10D4B47
:10316000083B1A6802E00A4B083B1A6802EA0103AE
:103170000BB1012000E00020704700F0805119B130
:103180000449091F086002E0014908394860704796
:10319000080002400804024010B50446FA48844280
:1031A00008D101214015FEF725FA00216015FEF730
:1031B00021FA17E0F548844208D101210015FEF7F5
:1031C00019FA00212015FEF715FA0BE0F0488442A9
:1031D00008D10121C803FEF70DFA00214FF4004089
:1031E000FEF708FA10BD30B50246002000235068F3
:1031F000E84C20400D790C6844EA052420435060D7
:103200009068E54C2040D1E902542C434D7944EAC2
:10321000450420439060D06A20F470000C7C641E4A
:10322000E4B2234340EA0350D06230BD0021016084
:10323000017141718160C16001210174704721B148
:10324000826842F00102826003E0826822F001029B
:103250008260704721B1826842F48072826003E02C
:10326000826822F480728260704710B50023CBB26E
:103270001AB144681C43446002E044689C434460C3
:1032800010BD816841F0080181607047014600204F
:103290008A6802F008020AB1012000E000207047AD
:1032A000816841F0040181607047014600208A680E
:1032B00002F004020AB1012000E00020704721B1B1
:1032C000826842F4A002826003E0826822F4A002D5
:1032D00082607047014600208A6802F480020AB1C9
:1032E000012000E00020704710B50A4600210023AD
:1032F000416821F46041531E41EA4331416010BDF1
:1033000021B1426842F40062426003E0426822F464
:10331000006242607047F0B504460D46002000216F
:10332000092D11DDE068A5F10A0606EB4607072620
:1033300006FA07F18843A5F10A0606EB460603FAEA
:1033400006F10843E0600CE0206905EB450707261D
:1033500006FA07F1884305EB450603FA06F1084330
:103360002061072A0FDA606B561E06EB86071F26C0
:1033700006FA07F18843561E06EB860605FA06F1A3
:103380000843606322E00D2A0FDA206BD61F06EB9C
:1033900086071F2606FA07F18843D61F06EB860626
:1033A00005FA06F10843206310E0E06AA2F10D0679
:1033B00006EB86071F2606FA07F18843A2F10D06E1
:1033C00006EB860605FA06F10843E062F0BD21B17E
:1033D000826842F48012826003E0826822F48012E4
:1033E000826070470146C86C80B2704766484C30B6
:1033F0000068704721B1426842F48062426003E095
:10340000426822F480624260704721B1426842F40F
:103410008052426003E0426822F48052426070476A
:103420000A460021816821F4E04111438160704720
:1034300021B1826842F40042826003E0826822F493
:1034400000428260704721B1826842F402128260B9
:1034500003E0826822F40212826070470146002075
:103460008A6802F400120AB1012000E000207047CF
:10347000F0B504461546002000220026092911DD7A
:10348000E068A1F10A0707EB470C072707FA0CF2DF
:103490009043A1F10A0707EB470703FA07F210432D
:1034A000E0600CE0206901EB410C072707FA0CF201
:1034B000904301EB410703FA07F210432061A06B30
:1034C000C0F30156EF1C06F1010CA7EB0C0707EB4C
:1034D000870C1F2707FA0CF29043EF1C06F1010C32
:1034E000A7EB0C0707EB870701FA07F21043A0636D
:1034F000F0BD10B50A4600210023816B21F4401174
:10350000531E41EA0351816310BD08B500230093A7
:103510000090009B0B440093009B1A6008BD08B507
:10352000024600200090009201F12800009B184400
:1035300000900098006880B208BD0A4600214168EA
:10354000164B1940114341607047416282627047D7
:103550000A460021416821F01F0111434160704774
:1035600040B109490831096841F40001064A0832AE
:10357000116007E004490831096821F40001024A9A
:10358000083211607047000000240140002801400B
:10359000003C0140FFFEF0FFFDF7F1FFFFFD3FFFA4
:1035A0000246002013680B400BB1012000E0002010
:1035B0007047CA430260704770B50246002000237E
:1035C00000240B125568CEB205EA060415681D40AA
:1035D00015B10CB1012000E0002070BD00220A12DC
:1035E000D343036070470000C848806940F0100072
:1035F000C6498861C648006880B2C5490860084667
:10360000406820F0FF00486008460068C149084350
:10361000BF4908600846406840F088004860084696
:10362000C06840F47C70C860704710B5FFF7DCFFDD
:10363000012204210220FDF71BFB012205210220AB
:10364000FDF716FB012206210220FDF711FB0122E6
:1036500007210220FDF70CFB012208210220FDF7C3
:1036600007FB012209210220FDF702FB02230A22A7
:1036700003211846FDF75DFB022317221946184661
:10368000FDF757FB10BD10B5A3480068A8B9A348C3
:10369000407990B90A20FDF7BEFAA0480078401C96
:1036A0009E4908700846407840F0020048709C48E7
:1036B000006840F020009A4908609748001D0068A3
:1036C000B8BB96484079A0BB0A20FDF7A4FA9348FE
:1036D0000078401C914908700AE092480068401C3C
:1036E0009049086008460068B0F5102F00D304E048
:1036F0008948001D00680028EFD000BF8948006895
:10370000B0F5102F06D38548407840F0400083493B
:10371000487005E08148407840F004007F494870D7
:103720000020804908607E48006840F040007C49E5
:103730000860794808300068B8BB78484079A0BB79
:103740000A20FDF768FA75480078401C7349087034
:103750000AE074480068401C724908600846006826
:10376000B0F5102F00D304E06B4808300068002843
:10377000EFD000BF6B480068B0F5102F06D3674844
:10378000407840F080006549487005E06348407823
:1037900040F00800614948700020624908606048B4
:1037A000006840F080005E4908605B480C300068AB
:1037B000A8B95A48407990B90A20FDF72CFA574821
:1037C0000078401C554908700846407840F01000C9
:1037D00048705348006840F48070514908604E4872
:1037E0001030006870BB4D48407958BB0A20FDF787
:1037F00012FA4A480078401C484908700846407848
:1038000040F00100487048480078A8B101204749BD
:10381000086000BF80F3138800BF00BF4448006801
:1038200000F4E06043490843001D41490860BFF3CC
:103830004F8F00BF00BFFEE73948006840F40070BA
:103840003749086000203C4908603C48007840B98E
:103850003B48006840F008003949086001203749BA
:10386000087010BD10B50020334908602A48001FB9
:10387000006878B92948407960B90A20FDF7CBF98A
:1038800026480078401C254908700846407840F0DA
:10389000010048702248006840F01000204908608C
:1038A00010BD00201D4948710846407900B170479D
:1038B0002448007800B1FAE71748001D006838B9BD
:1038C00015480830006818B901201E49087002E048
:1038D00000201C49087000BFE9E710484078032821
:1038E00003D000200D494870087000200B498870F3
:1038F00008717047012009494871704710B50020D0
:1039000006494871FFF7E9FF10BD000000100240B2
:10391000001001400000888814012242500000205D
:103920001404014058000020000000209C012142A6
:103930000CED00E00000FA0574000020700000208B
:10394000100801405C00002038B505460C46FE48D2
:10395000C06940F00400FC49C861FC480580001FB4
:103960000480FA482038008840F00100F7492039E7
:103970000880F6482C38008840F00100F3492C39C3
:1039800008801E208DF8000002208DF801008DF8BF
:10399000020001208DF803006846FEF77EF838BD6E
:1039A0007FB505460C4601210220FDF716FEADF855
:1039B0000850ADF804400020ADF80A00ADF806004C
:1039C00001A9E348FEF784FC01221146E048FEF716
:1039D000F6FF1D208DF8000000208DF80100032067
:1039E0008DF8020001208DF803006846FEF755F8B7
:1039F00064214FF4E150FFF7A7FF0121D448FEF7FF
:103A0000C3FF7FBD10B50121D148FFF786FAC8B1C9
:103A1000D0480068401CCF490860CF480068401C6F
:103A2000CD490860CD480068401CCC490860CC48AE
:103A30000068401CCA490860FFF733FF0121C448F1
:103A4000FFF77CFA10BD70B503460C4600212AE052
:103A500001EB4100C0EB4110C24D05EB8000006F4F
:103A6000F8B901EB4100C0EB411045F8203001EB03
:103A70004100C0EB411005EB8000046701EB410001
:103A8000C0EB411005EB8000A0F86A20002001EB9C
:103A90004105C5EB4115B34E06EB8505A5F86C0055
:103AA00070BD481CC1B20A29D2DB0120F8E770B50D
:103AB000054600242CE004EB4401C1EB4411A94A63
:103AC00052F82100294609F0B3FDF8B9002004EBB3
:103AD0004401C1EB4411A34A42F8210004EB440124
:103AE000C1EB441102EB8101086704EB4401C1EB17
:103AF000441102EB8101A1F86A0004EB4401C1EB1F
:103B0000441102EB8101A1F86C0070BD601CC4B2CD
:103B10000A2CD0DB00BFF8E710B5002460E004EB0E
:103B20004400C0EB44108F4901EB8000006F002877
:103B300054D004EB4400C0EB441051F82000E0B333
:103B400004EB4400C0EB441001EB8000B0F86C00C3
:103B5000401C04EB4401C1EB4411824A02EB810199
:103B6000A1F86C0004EB4400C0EB4410114601EBDB
:103B70008000B0F86C0004EB4401C1EB441102EB8F
:103B80008101B1F86A10884228D104EB4401C1EBED
:103B9000441102EB8101086F8047002004EB4401CF
:103BA000C1EB44116F4A42F8210004EB4401C1EB20
:103BB000441102EB8101086700E00FE004EB4401CF
:103BC000C1EB441102EB8101A1F86A0004EB44014E
:103BD000C1EB441102EB8101A1F86C00601CC4B27E
:103BE0000A2C9CDB10BD2DE9F04105460F46164618
:103BF000002423E004EB4401C1EB4411594A52F87C
:103C00002100294609F014FDB0B904EB4401C1EBD1
:103C10004411544A02EB8101081D3246394609F02D
:103C20009AFC04EB4400C0EB44104E4901EB8000C9
:103C300080F86860BDE8F081601CC4B20A2CD9DB52
:103C400000BFF7E770B505460E46002429E004EBF7
:103C50004401C1EB4411434A52F82100294609F0BE
:103C6000E7FCE0B904EB4400C0EB44103D4B03EB30
:103C7000800090F8682004EB4400C0EB441003EB94
:103C80008000011D304609F066FC04EB4400C0EBE7
:103C90004410344901EB800090F8680070BD601C4E
:103CA000C4B20A2CD3DB0020F8E710B527481C3833
:103CB000008800F0010038B372B6FFF72DFF2A48E4
:103CC0000068401C2849086028480078D8B1284876
:103CD0000078C0B108460068B0F5FA6F13D92548DE
:103CE0000078401C234908700320487000201E49BA
:103CF0000860214908701D4908702048006840F09C
:103D000008001E49086062B610481C38008820F080
:103D100001000E491C39088010BD10B518494888AB
:103D20000AF0BEFA044617490AF0C0F916490860BD
:103D3000134988880AF0B4FA044612490AF0B6F921
:103D4000114948600E4921E0001002402C08004053
:103D50000004004060000020680000206C0000208B
:103D600064000020AC0900207400002070000020D6
:103D7000780000205000002093000020140801402B
:103D80009E0E002000001644840E0020C8880AF011
:103D900087FA044633490AF089F93349886010BD2F
:103DA00001203249086070472DE9F04104460025A2
:103DB00000202E49086020460AF072FA07462A4879
:103DC000016838460AF0B4FA06460AF031FA85B2BC
:103DD0002A46AFF2330126A0FFF735FEBDE8F08199
:103DE00001202249091F086070472DE9F04104466F
:103DF000002500201D49086020460AF051FA0746B8
:103E00001948416838460AF093FA06460AF010FA53
:103E100085B22A46AFF2370116A0FFF714FEBDE8BF
:103E2000F081012011491C31086070472DE9F041F3
:103E30000446002500200D49086020460AF030FAAB
:103E400007460948816838460AF072FA06460AF0C1
:103E5000EFF985B22A46AFF2350106A0FFF7F3FD70
:103E6000BDE8F08100001644840E00209401214238
:103E700055504600524F46004948806940F01C00AA
:103E8000474988614748006880B24649086008464B
:103E900000684549084343490860081D00684349D4
:103EA00008404049091D0860084600684049084329
:103EB0003C49091D08603F48006820F0F0003D497A
:103EC00008600846006840F0300008603A484068E2
:103ED000C0B2394948600846406838490843364905
:103EE00048600120364908603649C1F8A0013449CC
:103EF0000C3908603249083108603149091F0860EF
:103F00002F49091D0860304908602F491C39086095
:103F1000091D0860091D0860091D08602849083945
:103F200008602949091D086070472248001F006881
:103F3000264908401F49091F0860084600682449AF
:103F400008431C49091F0860704700B5FFF794FF3C
:103F5000FFF7EBFF00BD0120194908601949C1F8BE
:103F6000A00117490C390860154908310860144947
:103F7000091F08601249091D0860134908601249A9
:103F80001C390860091D0860091D0860091D0860CA
:103F90000B49083908600C49091D0860704700008A
:103FA000001002400008014000003333F00FF0FF22
:103FB00003300300040C0140001001400033333390
:103FC000B401224200002142AC01214200FF0F0057
:103FD0008800808810B586B00024142101A809F05B
:103FE000FFFAFD4802782146641C01A820F8112040
:103FF000F94842782146641C01A820F81120F648AF
:1040000082782146641C01A820F81120F248C27869
:104010002146641C01A820F81120EF48828821461F
:10402000641C01A820F81120EB48C2882146641CBA
:1040300001A820F81120E84802892146641C01A843
:1040400020F81120E44842892046611CCCB201A925
:1040500021F81020E048027B2046611CCCB201A967
:1040600021F81020DC48427B2046611CCCB201A91B
:1040700021F810200A22D948FCF7EDFA06B010BD4D
:1040800010B586B00024142101A809F0A9FA0A226B
:1040900001A9D248FCF7CEFA01A830F814004FF677
:1040A000FF71884205D10020CB490870601CC4B262
:1040B00007E02046611CCCB201A911F81000C649E6
:1040C000087001A830F814004FF6FF71884205D13E
:1040D0000020C1490870601CC4B207E02046611C82
:1040E000CCB201A911F81000BB49487001A830F802
:1040F00014004FF6FF71884205D10020B6490870C0
:10410000601CC4B207E02046611CCCB201A911F8C2
:104110001000B149887001A830F814004FF6FF7103
:10412000884205D10020AC490870601CC4B207E089
:104130002046611CCCB201A911F81010A648C1702C
:1041400001A830F814004FF6FF71884205D1002015
:10415000A1490870601CC4B207E02046611CCCB2C3
:1041600001A931F810009C49888001A830F814009A
:104170004FF6FF71884205D1002097490870601CF6
:10418000C4B207E02046611CCCB201A931F810008E
:104190009149C88001A830F814004FF6FF71884299
:1041A00005D100208C490870601CC4B207E020468D
:1041B000611CCCB201A931F810008749088101A81F
:1041C00030F814004FF6FF71884205D10020824973
:1041D0000870601CC4B207E02046611CCCB201A983
:1041E00031F810007C49488101A830F814004FF6DE
:1041F000FF71884205D1002077490870601CC4B265
:1042000007E02046611CCCB201A911F810007249E8
:10421000087301A830F814004FF6FF71884205D1E9
:1042200000206D490870601CC4B207E02046611C84
:10423000CCB201A911F81000674948736648407B69
:1042400080B1654880786449097888420AD162481B
:10425000C07861494978884204D100205E4948739A
:10426000FFF7B8FE601CC4B206B010BD2DE9F047E0
:104270008CB00746884691469A46182106A809F050
:10428000AFF91821684609F0ABF90025002454481D
:1042900001F030FB2146641C06A820F8117021466D
:1042A000641C20F81180002609E04D48825D2046FC
:1042B000611CCCB206A921F81020701CC6B2082ED1
:1042C000F3DB2046611CCCB206A921F810902046F1
:1042D000611CCCB206A921F810A04248FCF794F961
:1042E0004FF6FF71884203D100213E48FCF722FAC5
:1042F0003D48FCF789F94FF6FF71884203D1002150
:104300003948FCF717FA3748FCF77EF90546B5F54A
:10431000C87F08D101213448FCF70CFA002131484C
:10432000FCF708FA04E0681C81B22E48FCF702FA98
:1043300005EB45012D4A02EBC1000C2206A9FCF752
:104340008AF905EB4501294A02EBC1000C226946B6
:10435000FCF770F90CB0BDE8F08708B500200090BC
:1043600000212048FCF7E6F900211F48FCF7E2F99C
:10437000022269461E48FCF76EF9022269461D4872
:10438000FCF769F9022269461B48FCF764F908BD8D
:1043900010B500241224224618491948FCF75BF98D
:1043A00010BD2DE9F0410026154D1226134F0024B3
:1043B0000DE02846FCF728F94FF6FF71884203D13B
:1043C00000212846FCF7B6F9AD1C601C84B2B4424B
:1043D000EFDB0B4D00241DE0900E002000000308D1
:1043E000810000200050030800600308001003084B
:1043F0000070030800710308007203089E0E00207D
:10440000000803082846FCF7FFF827F8020BAD1C4C
:10441000601C84B2B442F5DBBDE8F08110B5012028
:10442000FE4908600320FE49087008460078FD49EF
:104430000978884202D00C2001F0DBFDF8480078B2
:10444000F849087010BD10B50120F7490860002038
:10445000F649C1F8B401F1490C390860F449C1F8D2
:10446000AC0140F6B832AFF24B01F2A0FFF7EBFA25
:1044700010BD10B50A2001F0BCFD0020EA49083942
:104480000860EA49C1F8B80140F6B832AFF2490114
:10449000E8A0FFF7D8FA10BD10B5E9480068012878
:1044A00076D10020E7490870E7490870DC480078B9
:1044B00018B1DB48007802280AD1E448007838B106
:1044C0000020E24908700120D5490870FFF7D1FFAC
:1044D000D3480078032838D1D948001D0068D0B1EE
:1044E0000120D14908390860D049C1F8B401CB494D
:1044F0000C3908600420CA49087008460078C94988
:104500000978884202D00D2001F073FDC44800787C
:10451000C449087019E00020C34908390860C3493C
:10452000C1F8B401BD490C3908600320BC490870CA
:1045300008460078BB490978884202D00C2001F077
:1045400058FDB7480078B7490870B5480078042886
:104550001DD1BB48001D0068D8B90020B2490839F8
:104560000860B249C1F8B401AC490C3908600320B5
:10457000AB49087008460078AA490978884202D0F9
:104580000C2001F036FDA6480078A649087064E0CA
:104590001AE00120A44908390860A449C1F8B4010F
:1045A0009E490C39086004209D490870084600782F
:1045B0009C490978884202D00D2001F01AFD9848E4
:1045C00000789849087048E095480078042807D09A
:1045D00093480078032803D002209149087022E014
:1045E0009948007840B90B2001F003FD012096495D
:1045F00008709449087016E089480078032807D1AC
:104600009148007801280ED10C2001F0F2FC0AE05C
:1046100083480078042806D18B480078012802D10D
:104620000D2001F0E6FC7F4800787D49097888423A
:1046300002D00B2001F0DDFC01207B490839086025
:104640007A49C1F8B4017A49C1F8A00174480078E8
:104650007449087002207C49087010BD01206F4920
:10466000086005206E490870704710B50A2001F0F7
:10467000C0FC00206C49083908606C49C1F8B401DD
:1046800066490C3908606A49C1F8AC0140F6B83295
:10469000AFF2370167A0FFF7D6F910BD10B5684833
:1046A0000068012872D100206649087066490870C8
:1046B0005B48007818B15A48007802280AD163484C
:1046C000007838B100206149087001205449087011
:1046D000FFF7CBFF5248007805283DD158481830E5
:1046E000006848B900205049083908604F49C1F8AE
:1046F000B4014A490C39086051481430006850B977
:104700004F48001D006830B9002047491039086043
:104710000620434908704A481C30006848B101200F
:104720004149083908604149C1F8B4013B490C3995
:1047300008604348001D006818B101203A4910394B
:1047400008603F481C30006830B13D48001D0068DB
:1047500010B104203249087031480078062844D14D
:10476000304800782E490978884202D00C2001F0A8
:1047700040FC2B4800782B4908703148001D006828
:1047800028B1012028491039086004E0B1E0002078
:104790002549103908602A481C30006848B10120BA
:1047A0002149083908602149C1F8B4011B490C3975
:1047B000086023481830006860B900201A49083999
:1047C00008601A49C1F8B40114490C390860052081
:1047D000134908701A481C30006830B11848001D91
:1047E000006810B104200E4908700D4800780428B4
:1047F00048D10C4800780A490978884202D00D2037
:1048000001F0F7FB06480078064908700C48001DC7
:10481000006828BB0A481430006819E0AC01214246
:10482000790000207A000020B801224200002242D4
:104830000000214243585F5374657032000000004D
:10484000008121427D0000207C0000207B000020B0
:1048500048B90020B24908600720B249087002E058
:104860000120AF490860B048006858B90020AC4941
:1048700008310860AD49C1F8B401AD4908600520B0
:10488000A8490870A748007807286DD1A648006895
:1048900058B90020A24908310860A449C1F8B40100
:1048A000A349086005209F4908709F48001D0068C3
:1048B00040B101209A49083108609C49C1F8B4010F
:1048C0009B4908609848001F006830B99648143822
:1048D000006810B10120924908609348001D0068EB
:1048E000F0B3914814380068D0B304208D490870A3
:1048F0003AE08C48007804280ED08A4800780528D1
:104900000AD088480078072806D08648007806280C
:1049100002D00220834908708648007838B90B20FD
:1049200001F067FB012083490870834908708348C0
:1049300000787C490978884202D00B2001F059FBAD
:10494000784800787D490870012075490831086071
:104950007649C1F8B401764908607149086000E001
:1049600002E002207349087010BD10B56E48183877
:104970000068012875D100206F4908706D490870E2
:104980006848007818B16748007802280AD16C4856
:10499000007838B100206A49087001206149087028
:1049A000FFF767FD5F48007803283DD16348007832
:1049B0005C490978884202D00C2001F01AFB594862
:1049C00000785E4908705848001F006830B95648A2
:1049D0001438006810B90020514908605248143852
:1049E000006810B101204E4908604F48001D006862
:1049F00058B101204A49083108604C49C1F8B40156
:104A00004B4908600420474908704748006858B976
:104A100000204349083108604449C1F8B4014449C1
:104A2000086003203F4908703E480078042861D19F
:104A3000424800783B490978884202D00D2001F0B5
:104A4000D8FA384800783D4908703748143800686B
:104A500040B93548001F006838B900203049086067
:104A600003E01AE001202E4908602F480068002862
:104A700040D12D48001D006800283BD1284908314D
:104A800008602A49C1F8B401294908600320254972
:104A900008700C2001F0ADFA2CE0224800780428C0
:104AA00006D020480078032802D002201D49087053
:104AB0002048007838B90B2001F09BFA01201D49ED
:104AC00008701D4908701D48007816490978884209
:104AD00002D00B2001F08DFA012011490831086045
:104AE0001249C1F8B4011749C1F8A0010D48007876
:104AF0001249087010BD10B51348008820B1012874
:104B000005D0022809D105E0FFF7C6FC06E0FFF753
:104B1000C5FD03E0FFF729FF00E000BF00BF10BDA7
:104B2000A80122427900002018812142000022427F
:104B3000A00121427C0000207D0000207A0000209E
:104B40007B000020000021429E0E00202DE9F0474E
:104B500006460D46F82703240EB147F00207FE482B
:104B6000006840F00100FC490860081D006840F042
:104B70000400091D08604BE0032C01D1B84607E092
:104B8000022C02D105F0F00802E0F02000EA05183E
:104B90004FF008092EE008F0800030B1EE480068C0
:104BA00040F00200EC49086007E0EB48001D006897
:104BB00040F00200E849091D086000BF00BFE64858
:104BC000006840F00400E44908604FEA48604FEA9A
:104BD00010680220FBF7FBFFDF48001D006840F073
:104BE0000400DD49091D086000BF00BFA9F10100F4
:104BF00000F0FF09B9F1000FCDDC032C03D1C82070
:104C0000FBF7E5FF02E02820FBF7E1FF601EC4B2DE
:104C1000002CB1DCD048001D006840F00200CE49F5
:104C2000091D08600846006840F001000860BDE802
:104C3000F0872DE9F04106460C4615463146002026
:104C4000FFF784FF002706E014F8011B0120FFF79F
:104C50007DFF781CC7B2B7EB450FF5DBBDE8F081EF
:104C600010B50446012C06D0022C0AD0032C0FD01C
:104C7000042C1BD113E00822B8498020FFF7D9FF8C
:104C800015E00822B54910319020FFF7D2FF0EE061
:104C90000822B24920318820FFF7CBFF07E0082225
:104CA000AE4930319820FFF7C4FF00E000BF00BFDD
:104CB00010BD10B50120FFF7D3FF0220FFF7D0FF92
:104CC0000320FFF7CDFF0420FFF7CAFF10BD00202F
:104CD0000CE0002106E02022A04B03EB00135A5405
:104CE0004A1CD1B21029F6DB421CD0B20428F0DBFA
:104CF000704770B534210020FFF728FF802600247C
:104D000015E03146721CD6B20020FFF71FFF80214C
:104D10000020FFF71BFF002505E000210120FFF721
:104D200015FF681CC5B2102DF7DB601CC4B2202C27
:104D3000E7DB8026002415E03146721CD6B2002045
:104D4000FFF704FF88210020FFF700FF002505E0A2
:104D500000210120FFF7FAFE681CC5B2102DF7DB19
:104D6000601CC4B2202CE7DB30210020FFF7EEFEF0
:104D700070BD70B505460C4630210020FFF7E6FEF9
:104D800029460020FFF7E2FE002606E014F8011B8A
:104D90000120FFF7DBFE701CC6B2202EF6DB70BDD3
:104DA00010B56F48806940F004006D4988616A4819
:104DB0001038006820F00F00674910390860084675
:104DC000006840F0030008600846006820F0F0002A
:104DD00008600846006840F0300008600846006837
:104DE00020F4706008600846006840F44070086075
:104DF0006420FBF710FF30210020FFF7A7FE4820BA
:104E0000FBF709FF02210020FFF7A0FE4820FBF777
:104E1000DEFE0C210020FFF799FE4820FBF7D7FEAD
:104E200001210020FFF792FE4820FBF7D0FE06216B
:104E30000020FFF78BFE4820FBF7C9FE46481038DC
:104E4000006820F470404449103908600846006842
:104E500040F4405008604048001D006840F00800E1
:104E60003D49091D08603F494020FFF782FF3E4948
:104E70005020FFF77EFFFFF73CFFFFF728FFFFF70B
:104E800018FF10BD2DE9F041044634210020FFF742
:104E90005DFE8027002516E039467A1CD7B2002037
:104EA000FFF754FE80210020FFF750FE002606E0A9
:104EB00014F8011B0120FFF749FE701CC6B2102E2A
:104EC000F6DB681CC5B2202DE6DB8027002516E046
:104ED00039467A1CD7B20020FFF738FE882100201F
:104EE000FFF734FE002606E014F8011B0120FFF74F
:104EF0002DFE701CC6B2102EF6DB681CC5B2202D2C
:104F0000E6DB36210020FFF721FE30210020FFF7ED
:104F10001DFEBDE8F0812DE9F041054688461446A6
:104F2000002734210020FFF711FE002624E0294647
:104F30006A1CD5B20020FFF709FE41460020FFF7AA
:104F400005FE38467A1CD7B2215C0120FFF7FEFD32
:104F500038467A1CD7B209E010080140C20E002082
:104F60000010024016E6000836E60008215C012029
:104F7000FFF7ECFD701CC6B2102ED8DB36210020E6
:104F8000FFF7E4FD30210020FFF7E0FDBDE8F081F0
:104F900070B534210020FFF7D9FD002418E004F19A
:104FA0008000C1B20020FFF7D1FD80210020FFF773
:104FB000CDFD002505E000210120FFF7C7FD681C9D
:104FC000C5B2102DF7DB6420FBF701FE601CC4B2F4
:104FD000202CE4DB002418E004F18000C1B20020A2
:104FE000FFF7B4FD88210020FFF7B0FD002505E0A4
:104FF00000210120FFF7AAFD681CC5B2102DF7DBC8
:105000006420FBF7E4FD601CC4B2202CE4DB3021FB
:105010000020FFF79BFD70BD2DE9F04706460C46CA
:1050200017464FF00009012C03DD4FF00809A01EC0
:10503000C4B234210020FFF789FD002520E0802044
:1050400000EB04102844C1B20020FFF77FFD09F1F6
:1050500080003044C1B20020FFF778FD4FF0000817
:1050600007E000210120FFF771FD08F1010000F0C9
:10507000FF08B845F5DB6420FBF7A9FD681CC5B245
:10508000102DDCDB30210020FFF760FDBDE8F0874C
:105090002DE9F04706460C4617464FF00009FB483D
:1050A0000278FB480178FB480078FFF7B5FFF94824
:1050B0000670F7480470F5480770012C03DD4FF0C7
:1050C0000809A01EC4B234210020FFF73FFD0025CF
:1050D00020E0802000EB04102844C1B20020FFF73C
:1050E00035FD09F180003044C1B20020FFF72EFDEC
:1050F0004FF0000807E0FF210120FFF727FD08F12E
:10510000010000F0FF08B845F5DB6420FBF75FFD08
:10511000681CC5B2102DDCDB36210020FFF716FD20
:1051200030210020FFF712FDBDE8F0870146002086
:1051300006E02022D84B03EB01131A54421CD0B2D4
:105140001028F6DB704770B502F1D2048CB9202428
:10515000D14D05EB01152C54012307E02D24CE4D34
:1051600005EB0115C618AC555C1CE3B2052BF5DB4D
:105170008FE0002A40DA52422D24C74D05EB01157D
:105180002C54642A10DB4FF47A7492FBF4F504FB80
:105190001524642594FBF5F4C04D2D5DBE4C04EB45
:1051A0000116441C355505E02025BB4C04EB0116C7
:1051B000441C3555642492FBF4F504FB15240A25A0
:1051C00094FBF5F4B54D2D5DB34C04EB0116841C36
:1051D00035552E25B04C04EB0116C41C35550A2458
:1051E00092FBF4F504FB1524AC4D2D5DAA4C04EBA9
:1051F0000116041D35554CE0B2F57A7F0ADB4FF4F9
:105200007A7492FBF4F4A54D2C5DA34D05EB0115CA
:105210002C5404E02024A04D05EB01152C54642AE5
:1052200010DB4FF47A7492FBF4F504FB152464252B
:1052300094FBF5F4994D2D5D974C04EB0116441C3D
:10524000355505E02025944C04EB0116441C3555DA
:10525000642492FBF4F504FB15240A2594FBF5F471
:105260008E4D2D5D8C4C04EB0116841C35552E257E
:10527000894C04EB0116C41C35550A2492FBF4F545
:1052800004FB1524854D2D5D834C04EB0116041D94
:1052900035550025804C04EB0116441D355502257B
:1052A0007D4C04EB0116841D355570BD30B5632A65
:1052B00000DC5AB92D23784C04EB011423542D241F
:1052C000754B03EB0115431CEC5428E00A2A15DB4F
:1052D0000A2392FBF3F3714CE35C6F4C04EB011473
:1052E00023540A2392FBF3F403FB14236B4CE45C7A
:1052F000694B03EB0115431CEC5410E02023664C72
:1053000004EB011423540A2392FBF3F403FB14234C
:10531000624CE45C604B03EB0115431CEC54252408
:105320005D4B03EB0115831CEC5430BD2DE9F041BE
:1053300004460D4617465A49384608F0F9FF80469C
:1053400008F076FF06465748864208D3B6FBF0F0D1
:105350005249085C504901EB0511085504E0202032
:105360004D4901EB0511085542F21070864210D3E9
:105370004C48B6FBF0F100FB116042F21071B0FB3B
:10538000F1F04649095C444800EB0512601C1154D9
:1053900005E02021404800EB0512601C1154B6F5D1
:1053A0007A7F11D342F21070B6FBF0F100FB11606E
:1053B0004FF47A71B0FBF1F03849095C364800EBE4
:1053C0000512A01C115405E02021334800EB051202
:1053D000A01C11544FF47A70B6FBF0F100FB116081
:1053E0006421B0FBF1F02D49095C2B4800EB05125C
:1053F000E01C11542E21284800EB0512201D1154E9
:105400006420B6FBF0F100FB11600A21B0FBF1F063
:105410002249095C204800EB0512601D11540A2046
:10542000B6FBF0F100FB11601C49095C1A4800EB67
:105430000512A01D1154BDE8F08170B513461A463F
:10544000184CA24208D3B2FBF4F4144D2C5D124D5B
:1054500005EB01152C5404E020240F4D05EB01153C
:105460002C5442F21074A2421ED30E4CB2FBF4F53F
:1054700004FB152442F21075B4FBF5F4074D2D5DC5
:10548000054C04EB0116441C355513E08000002048
:105490007F0000207E000020C20E002056E600089B
:1054A0000000C842A08601002025604C04EB0116D4
:1054B000441C3555B2F57A7F11D342F21074B2FB19
:1054C000F4F504FB15244FF47A75B4FBF5F4584D4C
:1054D0002D5D564C04EB0116841C355505E0202546
:1054E000524C04EB0116841C35554FF47A74B2FB10
:1054F000F4F504FB15246425B4FBF5F44C4D2D5D47
:105500004A4C04EB0116C41C35552E25474C04EBC0
:105510000116041D35556424B2FBF4F504FB152473
:105520000A25B4FBF5F4424D2D5D404C04EB011609
:10553000441D35550A24B2FBF4F504FB15243C4DFB
:105540002D5D3A4C04EB0116841D355570BD70B5C8
:1055500013469AB242F21074A24208DB92FBF4F4B2
:10556000334D2C5D314D05EB01152C5404E0202406
:105570002E4D05EB01152C54B2F57A7F11DB42F26A
:10558000107492FBF4F504FB15244FF47A7594FB28
:10559000F5F4274D2D5D254C04EB0116441C3555C3
:1055A00005E02025214C04EB0116441C3555642AE6
:1055B00010DB4FF47A7492FBF4F504FB1524642598
:1055C00094FBF5F41A4D2D5D184C04EB0116841C68
:1055D000355505E02025154C04EB0116841C355586
:1055E0000A2A0FDB642492FBF4F504FB15240A2538
:1055F00094FBF5F40E4D2D5D0C4C04EB0116C41C10
:10560000355505E02025094C04EB0116C41C355521
:105610000A2492FBF4F504FB1524054D2D5D034C83
:1056200004EB0116041D355570BD0000C20E0020AC
:1056300056E60008002102E000BF4A1CD1B28142B8
:10564000FADB704700B5FE48806940F00800FC496D
:105650008861FC48006820F47060FA4908600846D8
:10566000006840F440700860081F006820F4704033
:10567000091F08600846006840F440500860F1487F
:105680001030006840F00800EE491031086008460C
:10569000006840F4806008600A20FFF7CBFFE9480B
:1056A0000C30006840F00800E6490C31086000BD8D
:1056B00070B50446E348001F006820F47020E149FB
:1056C000091F08600846006840F440300860DD4863
:1056D0000C30006840F48060DA490C31086008251D
:1056E0002CE004F0010040B1D6480C30006840F0D6
:1056F0001000D4490C31086007E0D248103000682F
:1057000040F01000CF4910310860CE4810300068DA
:1057100040F00800CB49103108600120FBF77BFA0C
:10572000C8480C30006840F00800C6490C310860D9
:105730000120FBF770FA6410681EC5B2002DD0DCA2
:1057400070BD70B50024BF48001F006820F47020B1
:10575000BC49091F08600846006840F40020086042
:10576000B8480C30006840F48060B6490C310860DD
:1057700008251DE0B3480C30006840F00800B1492E
:105780000C3108600120FBF746FAAE481030006883
:1057900040F00800AB49103108600120FBF73BFAEC
:1057A0006410A948006808B144F08004681EC5B2BE
:1057B000002DDFDC204670BD70B505460C46A148C3
:1057C0001030006840F480609E491031086008463F
:1057D000006840F0080008601920FBF7F8F99948C4
:1057E0000C30006840F4806096490C31086028460F
:1057F000FFF75EFF2046FFF75BFF92480C30006822
:1058000040F008008F490C310860081D006840F422
:105810008060091D086070BD70B50446894810306D
:10582000006840F4806087491031086008460068CD
:1058300040F0080008601920FBF7C9F981480C30D6
:10584000006840F480607F490C3108602046FFF713
:105850002FFFFFF776FF05467A480C30006840F0CE
:10586000080078490C310860081D006840F4806029
:10587000091D0860284670BD70B5044600218E20C1
:10588000FFF79AFF6F481030006840F480606D4960
:10589000103108600846006840F0080008601920D0
:1058A000FBF795F967480C30006840F48060654963
:1058B0000C310860BE20FFF7FBFE082505E014F858
:1058C000010BFFF7F5FE681EC5B2002DF7DC5D4841
:1058D0000C30006840F008005A490C310860081D7F
:1058E000006840F48060091D086080218E20FFF769
:1058F00063FF70BD70B5044652481030006840F434
:1059000080605049103108600846006840F0080087
:1059100008601920FBF75BF94A480C30006840F436
:10592000806048490C310860BF20FFF7C1FE0825A0
:1059300005E0FFF706FF04F8010B681EC5B2002D55
:10594000F7DC40480C30006840F008003D490C315D
:105950000860081D006840F48060091D086070BD83
:1059600070B5044600218E20FFF726FF3548103021
:10597000006840F4806033491031086008460068D0
:1059800040F0080008601920FBF721F92D480C3081
:10599000006840F480602B490C310860FE20FFF75E
:1059A00087FE1F2505E014F8010BFFF781FE681E36
:1059B000C5B2002DF7DC23480C30006840F0080029
:1059C00020490C310860081D006840F48060091D02
:1059D000086080218E20FFF7EFFE70BD70B5044691
:1059E00018481030006840F4806016491031086093
:1059F0000846006840F0080008601920FBF7E7F847
:105A000010480C30006840F480600E490C3108608A
:105A1000FF20FFF74DFE1F2505E0FFF792FE04F87B
:105A2000010B681EC5B2002DF7DC06480C3000687B
:105A300040F0080003490C310860081D006805E0CB
:105A400000100240040C01401081214240F48060AB
:105A5000091D086070BD70B50446802600218E20A7
:105A6000FFF7AAFE072508E014F8011B3046FFF7F0
:105A7000A3FEB01CC6B2681EC5B2002DF4DC8021A6
:105A80008E20FFF799FE70BD70B505468126002473
:105A900007E03046FFF7C0FE2855B01CC6B2601CB8
:105AA000C4B2072CF5DB70BDFE4840790A2190FB9B
:105AB000F1F00007000EFC490870FA4840790A210D
:105AC00090FBF1F201FB1200F74909780843F6490F
:105AD0000870F44800790A2190FBF1F00007000EED
